:020000040802F0
:1000000020340120E1020208E9020208EB020208A2
:10001000ED020208EF020208F102020800000000EF
:10002000000000000000000000000000290202089B
:10003000F5020208000000007D02020871060208B5
:10004000FB020208FB020208FB020208FB02020894
:10005000FB020208FB020208FB020208FB02020884
:10006000FB020208FB020208FB020208FB02020874
:10007000FB020208FB020208FB020208FB02020864
:10008000FB020208FB020208FB020208FB02020854
:10009000FB020208FB020208FB020208FB02020844
:1000A000FB020208FB020208FB020208FB02020834
:1000B000FB020208FB020208FB020208FB02020824
:1000C000FB020208FB020208FB020208FB02020814
:1000D000FB020208FB020208FB020208FB02020804
:1000E000FB020208FB020208FB020208FB020208F4
:1000F000FB020208FB020208FB020208FB020208E4
:10010000FB020208FB020208FB020208FB020208D3
:10011000FB020208FB020208FB020208FB020208C3
:10012000FB020208FB020208FB020208FB020208B3
:10013000FB020208FB020208FB020208FB020208A3
:10014000FB020208FB020208FB020208FB02020893
:10015000FB020208FB020208FB020208FB02020883
:10016000FB020208FB020208FB020208FB02020873
:10017000FB020208FB020208FB020208FB02020863
:10018000FB020208FB02020800F002F800F03CF853
:100190000AA090E8000C82448344AAF10107DA45E2
:1001A00001D100F031F8AFF2090EBAE80F0013F0F8
:1001B000010F18BFFB1A43F001031847F01B0000A2
:1001C000101C0000103A24BF78C878C1FAD8520732
:1001D00024BF30C830C144BF04680C6070470000C1
:1001E0000023002400250026103A28BF78C1FBD840
:1001F000520728BF30C148BF0B6070471FB501F0E0
:10020000CFFD1FBD10B510BD00F055F91146FFF729
:10021000F5FF00F09BFA00F073F903B4FFF7F2FF6B
:1002200003BC00F077F900002A4B19680868B0E8B1
:10023000F04F80F30988BFF36F8F4FF0000080F319
:10024000118870470000000006480068006880F3CD
:10025000088862B661B6BFF34F8FBFF36F8F00DFC0
:1002600000BF00BF08ED00E0DFF80C00016841F4BA
:1002700070010160704700BF88ED00E0EFF3098076
:10028000BFF36F8F134B1A681EF0100F08BF20EDDD
:10029000108A20E9F04F106008B44FF0500080F34E
:1002A0001188BFF34F8FBFF36F8F01F08DF84FF0C0
:1002B000000080F3118808BC19680868B0E8F04FA6
:1002C0001EF0100F08BFB0EC108A80F30988BFF34E
:1002D0006F8F704704000020EFF305807047000027
:1002E0000948804709480047FEE7FEE7FEE7FEE7CA
:1002F000FEE7FEE7FEE7FEE7FEE7FEE70448054906
:10030000054A064B704700009D0602088901020855
:10031000202E012020340120203001202030012017
:10032000032A40F2308010F0030C00F0158011F821
:10033000013BBCF1020F624498BF11F801CB00F8F9
:10034000013B38BF11F8013BA2F1040298BF00F84D
:1003500001CB38BF00F8013B11F0030300F03080FF
:10036000083AC0F0088051F8043B083A51F804CB31
:10037000A0E80810F5E7121D5CBF51F8043B40F8F7
:10038000043BAFF30080D20724BF11F8013B11F802
:1003900001CB48BF11F8012B24BF00F8013B00F846
:1003A00001CB48BF00F8012B704702F0FF0343EA7E
:1003B000032242EA024200F037B8704770477047A4
:1003C00010B5203AC0F00B80B1E81850203AA0E8F0
:1003D0001850B1E81850A0E81850BFF4F5AF5FEA24
:1003E000027C24BFB1E81850A0E8185044BF18C9D7
:1003F00018C0BDE810405FEA827C24BF51F8043B7E
:1004000040F8043B08BF7047D20728BF31F8023BD1
:1004100048BF11F8012B28BF20F8023B48BF00F865
:10042000012B70474FF000020429C0F0128010F039
:10043000030C00F01B80CCF1040CBCF1020F18BFC0
:1004400000F8012BA8BF20F8022BA1EB0C0100F053
:100450000DB85FEAC17C24BF00F8012B00F8012B26
:1004600048BF00F8012B70474FF0000200B513465B
:1004700094469646203922BFA0E80C50A0E80C50C4
:10048000B1F12001BFF4F7AF090728BFA0E80C5075
:1004900048BF0CC05DF804EB890028BF40F8042B6E
:1004A00008BF704748BF20F8022B11F0804F18BFDB
:1004B00000F8012B7047754600F028F8AE4605009D
:1004C0006946534620F00700854618B020B5FFF76F
:1004D00015FFBDE820404FF000064FF000074FF039
:1004E00000084FF0000B21F00701AC46ACE8C00952
:1004F000ACE8C009ACE8C009ACE8C0098D4670475B
:100500000446AFF300802046FFF787FE004870479F
:10051000BC2D012001491820ABBEFEE726000200D9
:100520007047F0B5002201274FF0030C0B6807FA63
:1005300002F52B40AB422CD1066853000CFA03F4B1
:10054000A64306600E79D0F800E09E4046EA0E060B
:1005500006600E79012E01D0022E12D18668A643C4
:1005600086604E79D0F808E09E4046EA0E06866026
:100570004668AE43466045688E799640B6B23543CC
:100580004560C568A543C560CC799C40C3681C43E1
:10059000C460521C102AC9D3F0BD42694A4042616E
:1005A00070470000044A0029116801D0014300E0AF
:1005B0008143116070470000303802400CB50022C2
:1005C000274900920192086840F4803008604FF497
:1005D000A043086800F4003001900098401C00908F
:1005E000019810B900989842F3D10868800334D577
:1005F000012001901A484030026842F080520260A7
:100600001848026842F44042026015480830026807
:100610000260026842F400420260026842F4A052A2
:100620000260031F104A1A600A6842F080720A6072
:100630000A689201FCD50D4940F205720A60016812
:1006400021F003010160016841F0020101600168CD
:10065000C1F381010229FAD10CBD01920CBD000049
:10066000003802400070004008544007003C02403F
:1006700010B5502080F31188BFF34F8FBFF36F8FF9
:1006800001F0EEF918B104494FF0805008600020E5
:1006900080F3118810BD000004ED00E0114810B592
:1006A000016841F4700101600F48016841F00101E7
:1006B00001600D4A00210832116002680B4B1A409C
:1006C0000260031D0A4A1A60026822F48022026056
:1006D00005480C300160FFF771FF02490548803979
:1006E000086010BD88ED00E000380240FFFFF6FE14
:1006F0001030002400000208064D4FF480644FF4CF
:100700007A7621462846FFF748FF304600F068FD1C
:10071000F7E70000001402401CB501212020FFF77C
:1007200041FF4FF4C060009001208DF804000020CC
:100730008DF8060003218DF805108DF80700694635
:100740000148FFF7EEFE1CBD001402401CB5FFF788
:10075000E3FF07490420CDE90001C201002305A100
:10076000074801F03DF900F0EFFD00201CBD00003E
:10077000000000206170705F7461736B31000000D5
:10078000F90602082DE9F041184E0F460446F568B7
:100790003068001D00F010FC38B9306890F82C105B
:1007A00001208840316981433161601C07D137B134
:1007B0003168BDE8F0410E48091D00F035BC3068D5
:1007C0002C44AC424460316805D2B06BBDE8F041C6
:1007D000091D00F011BC706B091D00F00DFCB06A22
:1007E000844200D2B462BDE8F08100000400002021
:1007F000800100202DE9F041054600F021FC2E4E3D
:10080000B068401CB06030682C4F10B1706940B3C4
:100810002DE03560B068012829D1002404EB840064
:1008200007EB800000F0DAFB641C052CF6D32348AC
:10083000643000F0D3FB2148783000F0CFFB1F4834
:100840008C3000F0CBFB1D48A03000F0C7FB1B48EC
:10085000B43000F0C3FB1948643070631430B063E7
:1008600005E03068E96AC06A884200D83560706A7D
:100870000121401C70622864E86A3269814011439A
:10088000316100EB800007EB8000291D00F0CCFBFC
:1008900000F0F6FB706900280CD03068E96AC06A85
:1008A000884207D206494FF080500860BFF34F8F4F
:1008B000BFF36F8FBDE8F08104000020CC00002062
:1008C00004ED00E010B500F0BBFB0E4C2068A0B9B1
:1008D0000D4800F083FB0C48143000F07FFB0A4801
:1008E000E0601430206100220C210A2000F00CFE90
:1008F000206010B105A100F03FFCBDE8104000F001
:10090000BFBB00004000002094010020546D7251D4
:100910000000000070B5124E124D1CE000F04CFDBE
:10092000306820B1002401F085F9A4B901E0012468
:10093000F9E700F085FBF068C468201D00F03CFB7F
:10094000A868401EA8606868401E686000F098FBB8
:10095000204600F052F868680028DFD170BD000022
:100960006C0100200400002030B4026C0B46002A09
:100970000BD0C1681144C1604468A14201D3016831
:10098000C16030BC1846FFF7CBBC30BC70472DE9C6
:10099000F041856B174604460026026C82B1C7B150
:1009A000E068FFF7BDFCE168206C091AE16022688D
:1009B000914202D26168081AE060022F16D017E057
:1009C0002068A8B9606801F0AFF8064600206060B2
:1009D0000EE0A068FFF7A4FC216CA0680844A060AA
:1009E0006168884204D32068A06001E005B16D1EF3
:1009F0006D1CA5633046BDE8F08110B50446006B60
:100A000000F052FB2046BDE8104000F04DBB000056
:100A100010484FF49631420706D0C01D0D4920F012
:100A20000700411AC1F596310B4A00230144C2E97F
:100A300000030839103A21F0070111604B600B6088
:100A40000B1AC0E9001393604FF000405360D06070
:100A500070470000BC01002070000020074E4FF0DE
:100A60008054074DFFF756FF30680128FAD92C60F3
:100A7000BFF34F8FBFF36F8FF4E70000CC0000206F
:100A800004ED00E02DE9F0470E46DDE90984174644
:100A9000824691009946089DA522206BFFF785FCB0
:100AA0006FF00301206B01EB8701084420F007077A
:100AB000780707D0502080F31188BFF34F8FBFF322
:100AC0006F8FFEE72218315C82F83410315C11B16F
:100AD000401C0A28F6D3002684F83D60052D00D37B
:100AE0000425E562C4E91256201D00F082FA04F1E3
:100AF000180000F07EFA2461C5F105006462A0616F
:100B0000266584F854604A465146384600F03EFA5D
:100B10002060B8F1000F01D0C8F80040BDE8F087B0
:100B200030B5114900E011460A688242FBD34B6898
:100B30005C18844203D14068184448600846436802
:100B40001C18944209D1084C103C2468A24209D0D8
:100B500052681A4442600A6812680260814200D0FA
:100B6000086030BD0460F9E77000002070B5002413
:100B700041600B4D0061914206D8D11A82699142C1
:100B800006D2011D286907E09A4203D2994201D397
:100B9000012403E0011DE86800F02EFA204670BD34
:100BA0004000002010B5044600F04AFAA06B20B1C6
:100BB000002400F065FA204610BD0124F9E700008A
:100BC00030B585B02B4D4BE00198002848DB039CE5
:100BD000606910B1201D00F0EFF904A800F0B6F82C
:100BE000024601980A283BD2DFE800F00505053AE5
:100BF000263705053A260298A16903460144204696
:100C0000FFF7B4FF00B3616A20468847E069012816
:100C100026D1002000900298A169002342181946AD
:100C2000204601F08FF878B9502080F31188BFF387
:100C30004F8FBFF36F8FFEE70298A06128B1811834
:100C400013462046FFF792FF0AE0502080F31188F8
:100C5000BFF34F8FBFF36F8FFEE7204600F024FAFB
:100C600000231A4601A9286800F078FC0028ABD1BF
:100C700005B030BD400000202DE9FC410E46054680
:100C800000F09AFB01A800F061F80446019818B141
:100C900000F0D0FFBDE8FC81224FAEB1386900689A
:100CA000A8B30026291B3246386800F077FA00F016
:100CB000C1FF0028EED11C494FF080500860BFF3FF
:100CC0004F8FBFF36F8FE5E7A542EBD800F0B2FF7F
:100CD000F8682646C068C468201D00F06DF9E06918
:100CE000012810D1A0692B46411932462046FFF752
:100CF0003DFF40B100200346014600902A462046B1
:100D000001F020F820B1616A20468847C2E707E079
:100D1000502080F31188BFF34F8FBFF36F8FFEE732
:100D20000126BFE74000002004ED00E00648416BCB
:100D3000096829B1416BC968C9684968816270470F
:100D40004FF0FF31FAE700000400002070B50546BF
:100D500000F080FE064E0446B068844203D200F0E4
:100D600009F8012000E0002028602046B46070BD32
:100D700040000020F8B5194E1FE0C068C46805683F
:100D8000201D00F019F9616A20468847E0690128B2
:100D900013D1A0692844A84206D924616060211DAE
:100DA000F06800F029F908E00020034601460090B1
:100DB0002A46204600F0C6FF38B1F06801680029D5
:100DC000DBD13169C6E90310F8BD502080F31188EA
:100DD000BFF34F8FBFF36F8FFEE70000400000208E
:100DE00008484068401C4FF0500080F3118804D040
:100DF000BFF34F8FBFF36F8FFEE7BFF34F8FBFF38C
:100E00006F8FFEE754000020084CE068016839B19C
:100E1000002139B10020FFF72FFFFFF7D1FEF4E7E3
:100E20000121F6E7C0680068F5E7000040000020F7
:100E30002DE9F041044600F003F994F9455004F11E
:100E4000240609E0606A48B1304600F0B9FE08B1F6
:100E500000F0ECF96D1E6DB2002DF3DC4FF0FF36A3
:100E600084F8456000F00CF900F0EAF894F9445079
:100E700004F1100709E0206948B1384600F0A0FEEF
:100E800008B100F0D3F96D1E6DB2002DF3DC84F8CB
:100E90004460BDE8F04100F0F3B800002DE9F041F6
:100EA0000546002600F088FA314F386808B9FFF788
:100EB000AFFDF86805424BD1C5B3083568070ED0C1
:100EC00005F00700C0F108000544680707D050206E
:100ED00080F31188BFF34F8FBFF36F8FFEE72DB301
:100EE0007868854234D8224910310846046801E008
:100EF000214604466068A84202D220680028F7D143
:100F00003868844224D00E6820680860606808361B
:100F1000411B10290FD96019420708D0502080F3D7
:100F20001188BFF34F8FBFF36F8FFEE710E0416072
:100F30006560FFF7F5FD61687868401A7860BA6807
:100F4000904200D2B860F86801430020C4E9000173
:100F500000F070FE700707D0502080F31188BFF3B7
:100F60004F8FBFF36F8FFEE73046BDE8F081000082
:100F7000600000200449086818B10868C26C521C5F
:100F8000C2640868704700000400002010B5031F09
:100F90004FF080741C601B1F21F001011960191FA4
:100FA000044B0B6014390A60091F6FF002024438C9
:100FB0000A6010BDE10D0208D0E9013201699A60B2
:100FC000D0E901235A604A68824201D182684A60AE
:100FD000002202610868401E0860704700F10801A5
:100FE0004FF0FF32C0E90112C160016100210160D0
:100FF000704700210161704730B50C68621C02D057
:1010000000F1080202E0026904E01A4653681D6814
:10101000A542FAD953684B6099608A6051600861B3
:101020000168491C016030BD42684A6093688B606A
:1010300093685960916008610168491C01607047BC
:10104000502080F31188BFF34F8FBFF36F8F0A4991
:101050004868401C486001280CD10848006810F01E
:10106000FF0F07D0502080F31188BFF34F8FBFF3DD
:101070006F8FFEE7704700005400002004ED00E091
:101080000849486828B1401E486001D180F31188A2
:101090007047502080F31188BFF34F8FBFF36F8FDD
:1010A000FEE700005400002070B5002827D0144D42
:1010B000A0F108046068E968084207D1502080F375
:1010C0001188BFF34F8FBFF36F8FFEE722683AB1ED
:1010D000502080F31188BFF34F8FBFF36F8FFEE76F
:1010E0008843606000F068F9606869680844686077
:1010F0002046FFF715FDBDE8704000F09BBD70BDB8
:101100006000002006484FF47A710068B0FBF1F1EE
:101110004FF0E020491E4161072101617047000046
:101120007800002010B5FFF7D7F8114910280ED32A
:1011300000F1E02090F8F0030A78904207D25020A6
:1011400080F31188BFF34F8FBFF36F8FFEE709481D
:101150000068896800F4E060884207D9502080F375
:101160001188BFF34F8FBFF36F8FFEE710BD0000F4
:10117000540000200CED00E010B5074B002253F89E
:1011800032401CB1521C082AF9D310BD43F832106A
:1011900003EBC201486010BD8C00002070B51546FD
:1011A0000E460446FFF74CFF94F944100020491CFA
:1011B00001D184F8440094F94510491C01D184F808
:1011C0004500FFF75DFFA06B28B92A46314604F1C0
:1011D000240000F049F82046BDE87040FFF728BE23
:1011E00010B5020014D00F48006B38B1502080F3C6
:1011F0001188BFF34F8FBFF36F8FFEE700F0DCF86D
:1012000000211046FFF7BEFA00F014FD002807D1B8
:1012100005494FF080500860BFF34F8FBFF36F8FC9
:1012200010BD00000400002004ED00E00149012091
:10123000C86170470400002010B50C4650B1094940
:1012400009681831FFF7D8FE2046BDE8104001219B
:10125000FFF798BA502080F31188BFF34F8FBFF388
:101260006F8FFEE70400002070B514460D4668B18C
:101270000A4909681831FFF7D7FE0CB14FF0FF3566
:1012800021462846BDE87040FFF77CBA502080F325
:101290001188BFF34F8FBFF36F8FFEE7040000206C
:1012A00070B5040039D01D4DE06A2968C96A8842CA
:1012B00033D2A069002804DB2868C06AC0F10500A9
:1012C000A061E06A164E00EB8000616906EB8000C9
:1012D00081421FD1201DFFF76FFE012150B9E06A46
:1012E00000EB800256F8222022B92A6901FA00F0A8
:1012F00082432A612868C06AE0622A6981401143FA
:10130000296100EB800006EB8000211DBDE87040E4
:10131000FFF78ABE2868C06AE06270BD0400002042
:10132000CC00002028B107490A6A0260C968416000
:101330007047502080F31188BFF34F8FBFF36F8F3A
:10134000FEE70000040000201CB517480024CDE98A
:1013500000402346822215A1164800F041FB0128D7
:1013600003D100F0C9FC012809D0401C1AD150203B
:1013700080F31188BFF34F8FBFF36F8FFEE75020CC
:1013800080F31188BFF34F8FBFF36F8F06484FF084
:10139000FF312C38816201214161C460BDE81C40ED
:1013A00000F040B81CBD00003000002049444C450E
:1013B000000000005D0A02080248016B491C01633D
:1013C0007047000004000020144A106B10B1012087
:1013D000D06170470020D06110691149B0FA80F0E7
:1013E000C0F11F0000EB800051F820306BB101EB21
:1013F000800000F10803416849684160994201D1C9
:1014000049684160C86810607047502080F31188B7
:10141000BFF34F8FBFF36F8FFEE700000400002083
:10142000CC0000201CB533480168334A914207D1F3
:10143000502080F31188BFF34F8FBFF36F8FFEE70B
:1014400000682D49491E884207D1502080F3118839
:10145000BFF34F8FBFF36F8FFEE7284908780190E5
:10146000FF20087008788DF800009DF800009DF8B6
:10147000002000F0F000904207D0502080F3118847
:10148000BFF34F8FBFF36F8FFEE79DF800001C4A3C
:1014900000F0500010700720906007E09068401E38
:1014A00090609DF8000040008DF800009DF800005D
:1014B0000006F3D4107A000200F4E0609060019816
:1014C00008700C482030016841F470010160016827
:1014D00041F070410160FFF715FE00205060FEF7FB
:1014E000C3FE0848016841F040410160FEF7ACFED0
:1014F00000201CBD00ED00E071C20F4100E400E0DF
:101500005400002034EF00E02DE9F04117460E466C
:10151000050016D0EEB105FB06F05030FFF7BEFC1B
:1015200004000CD004F15000AEB12060C4E90F56A5
:101530002046012100F0CAF8204684F84C70BDE82E
:10154000F081502080F31188BFF34F8FBFF36F8F6E
:10155000FEE70020E1E72460E8E700002DE9FF4F07
:1015600083B09B468A4604004FF0000603D0BAF1D0
:10157000000F08D011E0502080F31188BFF34F8F87
:10158000BFF36F8FFEE7206C38B1502080F31188D5
:10159000BFF34F8FBFF36F8FFEE700F04DFADFF818
:1015A00028814FF000094FF0805748B9059838B1AD
:1015B000502080F31188BFF34F8FBFF36F8FFEE78A
:1015C000FFF73EFDA56B45B351462046E668FFF7A1
:1015D000CBF9BBF1000F13D0E660606A50B104F1A3
:1015E000240000F0EDFA28B1C8F80070BFF34F8F67
:1015F000BFF36F8FFFF744FD012007B0BDE8F08F08
:101600006D1EA563206810B9FFF7B4FC6060206907
:101610000028EFD004F11000E3E7059808B11EB1EF
:1016200006E0FFF72DFD27E06846FFF77BFE012669
:10163000FFF726FDFFF7C0FEFFF702FD94F9440017
:10164000401C01D184F8449094F94500401C01D11C
:1016500084F84590FFF714FD05A9684600F08AF963
:10166000002820460AD0FFF7E3FB00F0E3FA20460B
:10167000FFF798FA0028A3D00020BEE7FFF792FA00
:10168000D8B1206830B9FFF7DBFC6068FFF708FECF
:10169000FFF7F6FC04F124000599FFF7CDFD204685
:1016A000FFF7C6FB00F0C6FA002889D1C8F8007021
:1016B000BFF34F8FBFF36F8F82E72046FFF7B8FB72
:1016C00000F0B8FA7CE7000004ED00E070B50D46CC
:1016D000040025D0FFF7B4FCD4E90F20216802FBF9
:1016E000001161600021A1632168A1600A46D4E96C
:1016F0000F01401E00FB0121E16021464FF0FF3049
:1017000001F8440F487004F110008DB1FFF766FC3A
:1017100004F12400FFF762FCFFF7B2FC012070BD6A
:10172000502080F31188BFF34F8FBFF36F8FFEE718
:1017300021690029F0D000F043FA0028ECD00449D8
:101740004FF080500860BFF34F8FBFF36F8FE3E718
:1017500004ED00E02DE9FF4F83B01F468B460400E7
:101760004FF0000603D0BBF1000F08D011E050206D
:1017700080F31188BFF34F8FBFF36F8FFEE7206CAC
:1017800038B1502080F31188BFF34F8FBFF36F8FB4
:10179000FEE7022F0AD1E06B012807D0502080F32A
:1017A0001188BFF34F8FBFF36F8FFEE700F044F94E
:1017B000DFF800914FF0000A4FF0805848B90598C3
:1017C00038B1502080F31188BFF34F8FBFF36F8F74
:1017D000FEE7FFF735FCA06BE16B884205D3022FD3
:1017E00003D00598C8B1DEB11EE03A4659462046FE
:1017F000FFF7CDF8616A19B104F1240000F0E0F9B7
:1018000028B1C9F80080BFF34F8FBFF36F8FFFF788
:1018100037FC012007B0BDE8F08FFFF731FC21E075
:101820006846FFF77FFD0126FFF72AFCFFF7C4FD9E
:10183000FFF706FC94F94400401C01D184F844A051
:1018400094F94500401C01D184F845A0FFF718FC2D
:1018500005A9684600F08EF830B12046FFF7E8FA97
:1018600000F0E8F90020D5E7FFF7EAFBA06BE16B99
:10187000884201D1012500E00025FFF701FC95B168
:1018800004F110000599FFF7D7FC2046FFF7D0FAC6
:1018900000F0D0F900289CD1C9F80080BFF34F8F29
:1018A000BFF36F8F95E72046FFF7C2FA00F0C2F949
:1018B0008FE7000004ED00E02DE9F0471F46904659
:1018C0008946040003D0B9F1000F08D011E0502080
:1018D00080F31188BFF34F8FBFF36F8FFEE7206C4B
:1018E00038B1502080F31188BFF34F8FBFF36F8F53
:1018F000FEE7022F0AD1E06B012807D0502080F3C9
:101900001188BFF34F8FBFF36F8FFEE7FFF70AFC1D
:101910005020EFF3118680F31188BFF34F8FBFF390
:101920006F8FA06BE16B884206D3022F04D000209A
:1019300086F31188BDE8F08794F945503A46494648
:101940002046FFF724F8681C04D06D1C84F845502D
:101950000120EDE7606A0028FAD004F1240000F0CD
:101960002FF90028F4D0B8F1000FF1D00121C8F808
:101970000010EDE770B50D46040019D005B3FFF770
:101980005FFB164AD06829684B1C0FD02368126A87
:10199000934202D0626882421AD96268801A8842F1
:1019A00016D2081A28602046FFF7BCFC002410E07D
:1019B000502080F31188BFF34F8FBFF36F8FFEE786
:1019C000502080F31188BFF34F8FBFF36F8FFEE776
:1019D0000124FFF755FB204670BD000004000020E5
:1019E0002DE9FF5F8346DDE90E87994616468A4654
:1019F0009000FFF753FA05001AD05820FFF74EFA6F
:101A0000040012D025630021CDE90241CDE9008711
:101A10004B46324651465846FFF734F82046FEF70B
:101A2000E9FE012004B0BDE8F09F2846FFF73CFB2B
:101A30004FF0FF30F6E700000548416919B1006B2F
:101A400018B1002070470120704702207047000045
:101A5000040000200148C068704700000400002016
:101A60002DE9F0412E4F0026386B40B1B869401C7B
:101A7000B861F86900B101263046BDE8F081FD6823
:101A80006D1CFD6013D1786B006838B1502080F375
:101A90001188BFF34F8FBFF36F8FFEE7786BB96B81
:101AA0007963B863386A401C3862FFF73FF9B86A57
:101AB000DFF87080854209D3786B006880B1786B5D
:101AC000C068C468606885420DD2B8623868C06A70
:101AD00000EB800158F821000128CAD90126C8E787
:101AE0004FF0FF30F1E7201DFFF766FAA06A18B14A
:101AF00004F11800FFF760FAE06A01213A698140B9
:101B00001143396100EB800108EB8100211DFFF7D3
:101B10008BFAE06A3968C96A8842CDD30126CBE7DF
:101B200004000020CC00002070B504004FF000003D
:101B300041D0214D29688C4207D0502080F3118874
:101B4000BFF34F8FBFF36F8FFEE7E16C71B1491E9A
:101B5000E164A36CE26A9A422DD000292BD1201DAA
:101B6000FFF72AFA1549012240B112E0502080F314
:101B70001188BFF34F8FBFF36F8FFEE7E06A00EB72
:101B8000800351F8233023B92B6902FA00F0834314
:101B90002B61A06CE062C0F10500A061E06A2B69D6
:101BA00082401A432A6100EB800001EB8000211D76
:101BB000FFF73AFA012070BD04000020CC0000209D
:101BC0002DE9F041C068C468ACB104F118000746C3
:101BD000FFF7F2F9154D286B0126A0B139461448DC
:101BE000FFF722FAE06A2968C96A88421CD90120F5
:101BF000EE61BDE8F081502080F31188BFF34F8F74
:101C0000BFF36F8FFEE7201DFFF7D6F9E06A2A6960
:101C100006FA00F111432961054900EB80008C3977
:101C200001EB8000211DDBE70020E2E7040000203B
:101C3000580100202DE9F0472C4D00242746286B41
:101C400038B1FFF7FDF9286B401E2863286B40B1BF
:101C500046E0502080F31188BFF34F8FBFF36F8FA2
:101C6000FEE7A86822490126D0B3A1F18C09884675
:101C7000D8F80010E9B1D8F80C00C46804F11800D5
:101C8000FFF79AF9201DFFF797F9E06A2A6906FA2B
:101C900000F11143296100EB800109EB8100211D56
:101CA000FFF7C2F9E06A2968C96A8842E0D3EE61A9
:101CB000DEE70CB1FFF73AF8AC693CB1FFF7D0FEB4
:101CC00000B1EE61641EF9D10020A861E86938B165
:101CD0000849012738070860BFF34F8FBFF36F8FA4
:101CE000FFF7CEF93846BDE8F08700000400002079
:101CF0005801002004ED00E01CB5FEF7E3FD0D489F
:101D0000006868B10B490220091DCDE900010023DC
:101D10004FF4827208A10A48FFF762FE002807D13B
:101D2000502080F31188BFF34F8FBFF36F8FFEE712
:101D30001CBD000040000020546D722053766300EB
:101D4000090E0208FEB51F460300089E4FF0000072
:101D500013D0124D2C68002C0ED08DE80E000629F1
:101D600015DAFFF769FE02284FF000030DD00022BC
:101D700069462868FFF7EEFCFEBD502080F311880D
:101D8000BFF34F8FBFF36F8FFEE73246F0E70023BC
:101D90003A4669462046FFF78FFDFEBD4000002011
:101DA0004FF04070E1EE100A70470000CC1D0208B1
:101DB000000000208C000000C4010208581E020828
:101DC0008C00002094330100E001020800000000B4
:101DD0000000000000000000000000000000000003
:101DE00000000000000000000000000000000000F3
:101DF00000000000000000000000000000000000E3
:101E000000000000000000000000000000000000D2
:101E100000000000000000000000000000000000C2
:101E200000000000AAAAAAAA00000000000000000A
:101E300000000000000000000000000000000000A2
:101E400000000000007A030A00000000000000000B
:081E5000010203040607080962
:040000050802018963
:00000001FF
