:02000004080AE8
:100000009812001055020A085D020A085F020A08E9
:1000100061020A0863020A0865020A08000000007B
:100020000000000000000000000000009D010A0820
:1000300069020A0800000000F1010A086D280A0898
:100040006F020A086F020A086F020A086F020A08A4
:100050006F020A086F020A086F020A086F020A0894
:100060006F020A086F020A086F020A086F020A0884
:100070006F020A086F020A086F020A086F020A0874
:100080006F020A086F020A086F020A086F020A0864
:100090006F020A086F020A086F020A086F020A0854
:1000A0006F020A086F020A086F020A086F020A0844
:1000B0006F020A086F020A086F020A086F020A0834
:1000C0006F020A086F020A086F020A086F020A0824
:1000D0006F020A08792A0A081D2B0A08652C0A08EB
:1000E0006F020A086F020A086F020A086F020A0804
:1000F0006F020A086F020A086F020A086F020A08F4
:100100006F020A086F020A086F020A086F020A08E3
:100110006F020A086F020A086F020A086F020A08D3
:100120006F020A086F020A086F020A086F020A08C3
:100130006F020A086F020A086F020A086F020A08B3
:100140006F020A086F020A086F020A086F020A08A3
:100150006F020A086F020A086F020A086F020A0893
:100160006F020A086F020A086F020A086F020A0883
:100170006F020A086F020A086F020A086F020A0873
:100180006F020A086F020A08DFF80CD000F064FB67
:100190000048004781410A08981200102A4B19684C
:1001A0000868B0E8F04F80F30988BFF36F8F4FF015
:1001B000000080F3118870470000000006480068C6
:1001C000006880F3088862B661B6BFF34F8FBFF353
:1001D0006F8F00DF00BF00BF08ED00E0DFF80C000C
:1001E000016841F470010160704700BF88ED00E0D4
:1001F000EFF30980BFF36F8F134B1A681EF0100FD7
:1002000008BF20ED108A20E9F04F106008B44FF0CD
:10021000500080F31188BFF34F8FBFF36F8F05F04D
:10022000EFF94FF0000080F3118808BC19680868E6
:10023000B0E8F04F1EF0100F08BFB0EC108A80F34A
:100240000988BFF36F8F704718080010EFF305801F
:10025000704700000648804706480047FEE7FEE773
:10026000FEE7FEE7FEE7FEE7FEE7FEE7FEE7FEE766
:10027000A1280A0889010A0840EA01039B0703D064
:1002800009E008C9121F08C0042AFAD203E011F8D5
:10029000013B00F8013B521EF9D27047D2B201E097
:1002A00000F8012B491EFBD270470022F6E710B57B
:1002B00013460A4604461946FFF7F0FF204610BDD4
:1002C00030B505462A460B4612F8010B13F8014BD0
:1002D00008B1A042F8D01CB1002802D06D1CF1E793
:1002E000284630BD10B5044604E00B7800F8013B09
:1002F00003B1491C521EF8D2204610BD421C10F812
:10030000011B0029FBD1801A704710B5002200E0C4
:10031000521C835C8C5CA34201D1002BF8D1D8B273
:10032000E1B2401A10BD2DE9FE4F81EA030404F04A
:10033000004421F0004100944FF0000B23F00043F3
:1003400050EA01045ED052EA03045BD0C3F30A54BE
:10035000C1F30A552C44A4F2F3340194A0FB0254D7
:10036000C1F3130141F48011C3F3130343F4801369
:1003700001FB024400FB034E840A970A44EA8154BD
:1003800047EA8357A4FB076802958D0A05FB07859A
:100390004FEA932C04FB0C542705029D4FEA0658A4
:1003A00047EA1637B5EB08056EEB070C870E920E81
:1003B00047EA811742EA8312A7FB0201B6EB0B0161
:1003C00064EB00042B0D43EA0C335E1844EB1C5025
:1003D000DA465146E7FB0201C5F313044FEA0B333B
:1003E00043EA14534FEA0432019C43EA0603A4F1A2
:1003F0000C040294009CCDE900B400F007F903B0AE
:10040000BDE8F08F00200146F9E72DE9F04D81EAC3
:10041000030404F0004B21F0004514464FF0000A9D
:1004200023F0004150EA050220D054EA01021DD019
:10043000C5F30A570246C5F31303C1F31300C1F312
:100440000A5640F4801543F48013A7EB0608101BEE
:10045000D64608F2FD3873EB050002D308F1010817
:1004600001E092185B41B8F1000F03DA0020014669
:10047000BDE8F08D00204FF48011064684460EE062
:10048000171B73EB050705D3121B63EB050306432C
:100490004CEA010C49084FEA300092185B4150EADF
:1004A0000107EDD152EA030012D082EA040083EA88
:1004B0000501084305D0101BAB4106D201220023E1
:1004C00006E000224FF0004302E06FF001025310FB
:1004D0001AEB06004CEB085110EB0A0041EB0B0144
:1004E000BDE8F04D00F083B80EB540F23341029103
:1004F0000021CDE900110A460B4600F087F803B051
:1005000000BD70B5C1F30A5201F000450024C1F3EB
:10051000130140F2FF3341F480119A4201DA0020C6
:1005200070BD40F233439A42A2F2334203DC52429E
:1005300000F04DF800E090402C43F1D0404270BDF7
:1005400030B50B46014600202022012409E021FAA3
:1005500002F59D4205D303FA02F5491B04FA02F5A0
:100560002844151EA2F10102F1DC30BD2DE9F05F37
:100570000546002092469B46884606468146402412
:100580001BE0284641464746224600F020F85346E5
:100590005A46C01A914110D311461846224600F01F
:1005A0006DF92D1A67EB01084F4622460120002104
:1005B00000F064F917EB00094E41201EA4F101047C
:1005C000DFDC484631462A464346BDE8F09F202AF4
:1005D00004DB203A21FA02F00021704721FA02F3ED
:1005E000D040C2F12002914008431946704710B52F
:1005F000141E73F1000408DA401C41F10001921846
:100600005B411A4301D120F0010010BD2DE9F04DEE
:1006100092469B4611B1B1FA81F202E0B0FA80F243
:100620002032904600F02AF904460F4640EA0A00BC
:1006300041EA0B0153465A46084313D0114653EA88
:10064000010019D0C8F140025046FFF7C0FF05462F
:100650000E4650465946424600F010F9084305D070
:10066000012004E020463946BDE8F08D0020054316
:1006700046EAE0762C4337430A986305E40AA0EB88
:1006800008000022FD0A44EA47540A3002D500203F
:100690000146E9E7010510196941DDE9084500193E
:1006A0006941BDE8F04DA2E72DE9FE4F804681EAA1
:1006B0000300C00F0C46009021F0004123F00045DC
:1006C000B8EB0200A94105D24046214690461C469F
:1006D0000B46024623F00040104347D0270DC7F3D6
:1006E0000A00C3F30A510290401A019040286BDAC5
:1006F000C3F3130040F4801B0098924620B10023FE
:10070000D2EB030A63EB0B0B01985946C0F1400290
:10071000504600F0B3F806460D4650465946019A39
:1007200000F0BBF810EB08006141002487EA115289
:1007300084EAE7731A4340D0009A62B3019A012A0F
:100740004FEA075215DC001B61EB02014FF000423B
:1007500002EA0752CDE90042001C41F58011324601
:100760002B46FFF753FF03B0BDE8F08F404621460C
:10077000F9E7001B61EB0201001C41F58013001832
:100780005B412018A2F5001747EB030140EAD57042
:10079000B6196D4111E06D084FEA360645EAC0759D
:1007A0004FEA0752001B61EB0201001C41F580116A
:1007B00049084FEA30000019514132462B4603B038
:1007C000BDE8F04FFFF713BF00980122400000235F
:1007D000D0EB020263EBE073009821464FEAE0742D
:1007E000B8EB000061EB0401E9E783F000435BE74D
:1007F00081F0004158E7C1F30A52C1F3130140F2FE
:10080000FF3341F480119A4202DA0020014670471A
:1008100040F233439A42A2F2334202DC5242FFF7E3
:10082000D6BE00F02BB8000030B5041E71F10004F4
:1008300004DB4FF00044404264EB0101141E73F1ED
:10084000000405DB1C464FF00043524263EB0403F7
:10085000994208BF904230BD064C074D06E0E06863
:1008600040F0010394E8070098471034AC42F6D3F7
:10087000FFF78EFCF46F0A0824700A08202A04DBB4
:10088000203A00FA02F1002070479140C2F12003A3
:1008900020FA03F3194390407047202A06DBCB1758
:1008A000203A41FA02F043EAE07306E041FA02F32B
:1008B000D040C2F12002914008431946704770B5FC
:1008C0008C1810F8015B15F0070301D110F8013BFB
:1008D0002A1106D110F8012B03E010F8016B01F882
:1008E000016B5B1EF9D12B0705D40023521E0DD4DA
:1008F00001F8013BFAE710F8013BCB1A921C03E028
:1009000013F8015B01F8015B521EF9D5A142D8D35F
:10091000002070BD1CB50121202001F06BFC4FF4BC
:100920008070009001208DF8040000208DF80600F2
:1009300002208DF8070003208DF805006946044861
:1009400000F0D0FB4FF48071014800F03FFC1CBD6B
:10095000001402400FB400B5C1B043A800904FF49A
:10096000807101A8009B429A02F0B2FB0020009027
:1009700010480068B8B105F0A9FC022813D1002383
:10098000C21E19460B48006805F0D6F801280DD1A3
:1009900001A800F02DFE00231A46194605480068FC
:1009A00005F0F8F902E001A800F022FE41B05DF880
:1009B00014FB00000800001010B540210148FFF7AB
:1009C00074FC10BD220900101CB50121084601F07D
:1009D00011FC4FF48060009000208DF8040001208D
:1009E0008DF807006946044800F07CFB00210348AD
:1009F00002F0C9F91CBD00000000024000100140D7
:100A000010B50448007810B900F036F801E000F0A5
:100A100003F810BD0908001010B50748007830B180
:100A200001200649087006A0FFF794FF02E00BA022
:100A3000FFF790FF10BD000009080010FF0700102D
:100A40005B42545D20E58F91E98081E585B3E997AC
:100A5000ADE8AFB7E6B1825C720A00005B42545D5C
:100A600020E5B7B2E585B3E997ADEFBC8CE8B7B345
:100A7000E8BF870D0A00000010B50A48007868B981
:100A80000948006850B10023022219460648006850
:100A900005F094FB05A0FFF75DFF02E00AA0FFF759
:100AA00059FF10BD09080010000800105B42545D9A
:100AB00020E58F91E98081E5BC80E590AFE9809ADF
:100AC000E79FA50D0A0000005B42545D20E5B7B228
:100AD000E5BC80E590AFEFBC8CE8B7B3E8BF870D0D
:100AE0000A0000000748006840F08070054908606F
:100AF0000020054948600846006840F00100086091
:100B000070470000FCED00E0001000E0F0B5B1B06F
:100B100000276548006848B105F0D8FB022805D1D8
:100B2000C11E6148006805F0A9FA01275FA0FFF720
:100B300011FF00254FF47A7004F0C6FB63A000F0AB
:100B400071FA4FF47A7004F0BFFB002617E060A042
:100B500000F068FA40F6B8315FA000F019FA0446D8
:100B600021465EA0FFF7F6FE601C18B96348FFF748
:100B7000F1FE03E062A0FFF7EDFE02E0761C032E1B
:100B8000E5DB00BF66A000F04DFA40F6B83152A098
:100B900000F0FEF90446214665A0FFF7DBFE601C6D
:100BA00028B96BA0FFF7D6FE4FF0FF3573E0402168
:100BB00021A8FFF77AFB6EA370A272A121A802F010
:100BC00073FA21A800F02EFA4FF4FA5142A000F077
:100BD000DFF9401C28B971A0FFF7BCFE4FF0FF35CC
:100BE00059E078A0FFF7B6FE7CA000F01BFA40F6B3
:100BF000B83139A000F0CCF9401C28B97BA0FFF730
:100C0000A9FE4FF0FF3546E080A0FFF7A3FE87A0C6
:100C100000F008FA42F210712FA000F0B9F9401C60
:100C200028B98CA0FFF796FE4FF0FF3533E095A072
:100C3000FFF790FE9CA000F0F5F942F210719EA023
:100C400000F0A6F9401C28B99CA0FFF783FE4FF0E6
:100C5000FF3520E0A1A0FFF77DFE802101A8FFF76E
:100C600024FBA7A3AAA2B3A101A802F01DFA01A820
:100C700000F0D8F940F6B831B4A000F089F9401C72
:100C800028B9B5A0FFF766FE4FF0FF3503E0BAA024
:100C9000FFF760FE00BF1FB10348006805F0CAF906
:100CA000284631B0F0BD00000C0000105BE5B7B481
:100CB000E6B395E4BA915D20E6ADA3E59CA8E8BF54
:100CC0009EE68EA52E2E2E0D0A0000002B2B2B004B
:100CD00041540D0A000000004F4B00005BE6ADA53B
:100CE000E9AAA45D204154E6B58BE8AF9520E7BBA7
:100CF00093E69E9C3D25640D0A000000A86F0A083B
:100D00005B4F4B5D20E5B7B2E98080E587BAE980AB
:100D10008FE4BCA0E6A8A1E5BC8F0D0A000000008E
:100D200041542B43574D4F44453D330D0A000000BD
:100D30005BE6ADA5E9AAA45D2043574D4F44453D70
:100D40003320E7BB93E69E9C3D25640D0A0000001E
:100D50005BE5A4B1E8B4A55D2041542B43574D4F4A
:100D600044453D3320E8B685E697B60D0A000000FD
:100D70006E73686E73686E7368000000796A7868D5
:100D80006D00000041542B43574A41503D222573CA
:100D9000222C222573220D0A000000005BE5A4B17D
:100DA000E8B4A55D2041542B43574A415020576970
:100DB0004669E8BF9EE68EA5E8B685E697B60D0AB9
:100DC000000000005B4F4B5D2057694669E5B7B2F4
:100DD000E8BF9EE68EA55C720A00000041542B43DA
:100DE00049504D4F44453D310D0A00005BE5A4B12B
:100DF000E8B4A55D2041542B4349504D4F44453D37
:100E00003120E8B685E697B60D0A00005B4F4B5DD2
:100E100020E9808FE4BCA0E6A8A1E5BC8FE5B7B2CD
:100E2000E5BC80E590AF5C720A00000041542B43A2
:100E3000495053544152543D22544350222C226273
:100E4000656D66612E636F6D222C383334340D0A64
:100E5000000000005BE5A4B1E8B4A55D2041542B7F
:100E6000434950535441525420E5B7B4E6B395E496
:100E7000BA91E8BF9EE68EA5E8B685E697B65C72A5
:100E80000A0000005B4F4B5D20E5B7B4E6B395E484
:100E9000BA91E69C8DE58AA1E599A8E5B7B2E8BFCD
:100EA0009EE68EA55C720A0041542B43495053457F
:100EB0004E440D0A000000003E0000005BE5A4B1B6
:100EC000E8B4A55D2041542B43495053454E44207E
:100ED000E8B685E697B60D0A000000005B4F4B5D53
:100EE00020E9808FE4BCA0E58F91E98081E6A8A18C
:100EF000E5BC8FE5B7B2E5BC80E590AF5C720A0057
:100F000075725568423668366D3030340000000026
:100F10003366326435666561623430656133383416
:100F20003464323333323166313635616232646271
:100F300000000000636D643D31267569643D2573D2
:100F400026746F7069633D25730D0A00636D643DFF
:100F500031267265733D31005BE5A4B1E8B4A55D4F
:100F600020E8AEA2E99885E4B8BBE9A298E8B68586
:100F7000E697B60D0A0000005B4F4B5D20E4B8BB5E
:100F8000E9A298E5B7B2E8AEA2E998855C720A00DA
:100F90002DE9F04104460D4600277E1E12E0214651
:100FA0001148FFF78DF908B100260CE00A2002F085
:100FB000F3FE7F1C0A2095FBF0F0B84202DA4FF0F6
:100FC000FF3600E0EBE700BF3346074A214607A0A3
:100FD000FFF7C0FC002012490870FF210248FFF70C
:100FE00064F93046BDE8F081620900105BE8B08327
:100FF000E8AF955D20E69C9FE69C9B3A27257327EA
:10100000207C20E694B6E588B03A27257327207C1B
:1010100020E7BB93E69E9C3D25640D0A000000007E
:101020001500001070B5054600261348006848B149
:1010300005F04CF9022805D1C11E0F48006805F0E3
:101040001DF8012600240CE0295D0C4801F073FF17
:1010500000BF8021094801F0A2FE0028F9D0601CE1
:10106000C4B22846FFF74AF9A042EDD81EB10248A3
:10107000006804F0DFFF70BD0C0000100048004065
:101080001CB50121202001F0B5F80121102001F04C
:10109000B1F84FF4C060009001208DF804000020EA
:1010A0008DF806008DF8070003208DF805006946CD
:1010B0000A4800F017F84FF4C0400090694608480D
:1010C00000F010F84FF4C061044800F081F84FF4CC
:1010D000C041034800F07CF81CBD00000014024031
:1010E00000100240F0B50A4600210023002400BF92
:1010F0003DE0012505FA01F3156805EA03049C4269
:1011000034D105684F000326BE40B543056015790C
:101110004E00B5400668354305601579012D02D0B3
:101120001579022D16D185684F000326BE40B543C0
:10113000856055794E00B5408668354385604568C1
:1011400001268E40B5434560456896798E40B6B21B
:1011500035434560C5684F000326BE40B543C560B2
:10116000D5794E00B540C6683543C560491C102985
:10117000BFD3F0BDF0B5002300244D07ED0E02FAF9
:1011800005F3CE1000F1200555F826504E07F70E56
:101190000F26BE40B543CF1000F1200646F8275079
:1011A000CE1000F1200555F8265045EA0304CE1074
:1011B00000F1200545F82640F0BD024600201369E5
:1011C0000B400BB1012000E00020704741837047C5
:1011D0000183704703490448814200D370470348A4
:1011E000FCE70000D5110A0800000A080000040806
:1011F00010B515480068401C13490860084600688F
:10120000032805DB03200860632000F0C9FE0AE024
:101210000D480068022803D1622000F0C1FE02E000
:10122000612000F0BDFE09A0FFF794FB4FF4804160
:101230000948FFF7CBFFC82004F046F84FF480417F
:101240000548FFF7C5FF10BD100000104B45593091
:101250003AC9FDB5B50D0A000010024010B5184896
:101260000068401E1649086008460068002804DC33
:101270000020086000F094FE11E01148006818B9E1
:10128000302000F08DFE0AE00D480068012803D1EF
:10129000612000F085FE02E0622000F081FE09A0DE
:1012A000FFF758FB4FF400510948FFF78FFFC820A4
:1012B00004F00AF84FF400510548FFF789FF10BD0C
:1012C000100000104B4559313ABDB5B5B50D0A00B7
:1012D0000010024010B5642000F062FE01F030FE04
:1012E00008A0FFF737FB4FF480610C48FFF76EFF53
:1012F000C82003F0E9FF4FF480610848FFF768FF5A
:1013000010BD00004B4559323A2057694669BFAAC3
:10131000B9D8D2D1C7D0BBBB0D0A0000001402401F
:1013200010B5652000F03CFEFFF76AFB08A0FFF750
:1013300011FB4FF400710C48FFF748FFC82003F081
:10134000C3FF4FF400710848FFF742FF10BD0000D3
:101350004B4559333A20C0B6D1C0BFAAB9D8D2D173
:10136000C7D0BBBB0D0A00000014024010B50948ED
:101370000068002806DD002006490860302000F0E3
:101380000FFE05E0022003490860622000F008FE1D
:1013900010BD000010000010FFF7BCFAFFF71AFFA5
:1013A0000546524885423AD14FF400515048FFF764
:1013B0000DFF4FF4FA7002F0EFFC4FF400514C486F
:1013C000FFF706FF4FF4967002F0E6FC4FF4005171
:1013D0004748FFF7FBFE4FF4FA7002F0DDFC4FF4D4
:1013E00000514348FFF7F4FE4FF4967002F0D4FC2E
:1013F0004FF400513E48FFF7E9FE4FF4FA7002F057
:10140000CBFC4FF400513A48FFF7E2FE4FF49670E0
:1014100002F0C2FC374C38A0FFF79CFA39E04FF4D9
:1014200080613D48FFF7D2FE4FF4FA7002F0B4FC41
:101430004FF480613848FFF7CBFE4FF4FA7002F0AA
:10144000ABFC4FF480613448FFF7C0FE4FF4FA70F4
:1014500002F0A2FC4FF480612F48FFF7B9FE4FF471
:10146000FA7002F099FC4FF480612B48FFF7AEFE52
:101470004FF4FA7002F090FC4FF480612648FFF7B9
:10148000A7FE4FF4FA7002F087FC184C23A0FFF778
:1014900061FA2246294629A0FFF75CFA01210807D4
:1014A00000F0B8FE012000F047FD1048844201D151
:1014B0002B4801E02A48401C2A49086021462AA0FE
:1014C000FFF748FA322002F067FC00BFBFF34F8FEE
:1014D0002D48006800F4E0602C490843001D2A49AB
:1014E0000860BFF34F8F00BF00BFFEE70000040895
:1014F0000010024000000A080D0A5B4B4559345D9C
:1015000020B3A4B0B433C3EB212041C7F8202D3E53
:101510002042C7F80D0A0000001402400D0A5B4B80
:101520004559345D20B3A4B0B433C3EB212042C786
:10153000F8202D3E2041C7F80D0A00005B4B4559AD
:10154000345D20B5B1C7B03A30782530385820C462
:10155000BFB1EA3A3078253038580D0A0000000053
:101560000300A5A5502800405B4B4559345D20B4CD
:10157000A5B7A2C8EDB8B4CEBB202D3E203078254B
:101580003038580D0A0000000CED00E00000FA05AC
:1015900010B50446A189A068FFF70FFE607160795D
:1015A00068B9208B401C2083208BC82807DBA07ED5
:1015B00028B9606918B10120A07660698047207958
:1015C00058B96079012808D1A07E18B9206908B1FE
:1015D0002069804700202083A0766079207110BDAB
:1015E0000121017141710021018381767047000062
:1015F00070B505462846FEF781FEC6B200240CE011
:10160000295D074801F097FC00BF8021044801F0E4
:10161000C6FB0028F9D0601CC4B2B442F0DB70BD38
:101620000044004070B5002100230F22C4781CB391
:10163000174C246804F4E064C4F5E064C4F30721A3
:10164000C1F10404E3B20A4144789C40E1B28478D9
:10165000144021430C07210E0E4C05786155047887
:1016600004F01F050124AC4005786D11AD0005F1B3
:10167000E025C5F8004109E0047804F01F050124C5
:10168000AC40054D0678761145F8264070BD000047
:101690000CED00E000E400E080E100E002490143DD
:1016A000024A1160704700000000FA050CED00E0EE
:1016B00070B5002418E004F1B000002100F023FB15
:1016C0000021084600F01FFB0021102000F01BFB4A
:1016D000002505E00121002000F015FB681CC5B2C3
:1016E000802DF7DB601CC4B2082CE4DB70BD000069
:1016F00030B587B0FFF7DCFF10233DA20321142093
:1017000000F0E4FA3C48C4682046FEF7F7FD401EAE
:10171000255C3948C088384989882B4637A2CDE9ED
:101720000010102103A801F0ABFC082303AA072135
:10173000482000F0CBFA162203213C2000F0FCF9EF
:10174000172203214C2000F0F7F9182203215C2016
:1017500000F0F2F940F6B83002F02AFBFFF7A8FFDC
:101760000E220021084600F0E7F90F220021102088
:1017700000F0E2F9102324A20021202000F0A6FAB4
:10178000102322A20021382000F0A0FA1422032105
:10179000002000F0D1F915220321102000F0CCF92F
:1017A000102319A20321202000F090FA1B2203210C
:1017B000712000F0C1F91D220621782000F0BCF94B
:1017C000FF2014490870144908701449087014491E
:1017D0000870144908704FF0FF3013490860FF206B
:1017E000124908704FF0FF301149086007B030BD52
:1017F00073746D3332000000986F0A082563205619
:1018000025642E25640000003A0000002062656D0A
:1018100066613A00DF070010E0070010E1070010E2
:10182000E2070010E3070010E4070010E8070010CB
:10183000EC0700102DE9F04107460D4616461C4600
:1018400000F07CFD00F0A8FE00F0FEFD22463146CF
:10185000284600F023FE204600F07EFE00F09AFDB0
:10186000BDE8F0811FB501210A2000F0C3FC4FF450
:101870008060029000208DF80C0001208DF80F0090
:1018800002A94D48FFF72EFC4FF4004002900120C2
:101890008DF80C0000208DF80E0002208DF80D0050
:1018A00001208DF80F0002A94448FFF71BFC00201F
:1018B00001901EE04FF400414048FFF789FC0020F2
:1018C000009002E00098401C009000986428F9D332
:1018D0004FF400413948FFF779FC0020009002E006
:1018E0000098401C009000986428F9D30198401C8F
:1018F000019001980928DDD34FF480600290012007
:101900008DF80C0000208DF80E0002208DF80D00DF
:1019100001208DF80F0002A92748FFF7E3FB4FF4E1
:1019200080612548FFF752FC0020009002E00098FB
:10193000401C009000986428F9D34FF400411F48E0
:10194000FFF746FC0020009002E00098401C009049
:1019500000986428F9D34FF480611748FFF738FCEA
:101960000020009002E00098401C0090009864283D
:10197000F9D34FF400411148FFF728FC00200090F4
:1019800002E00098401C009000986428F9D34FF4BE
:101990008060029001208DF80C0000208DF80E0070
:1019A00002208DF80D0001208DF80F0002A90248D9
:1019B000FFF798FB1FBD0000000C0240000402402E
:1019C0001CB5FFF74FFF01210A2000F013FC4FF474
:1019D0000040009001208DF8040000208DF80600E2
:1019E00002208DF8050001208DF8070069463D486A
:1019F000FFF778FB4FF48060009069463A48FFF7A4
:101A000071FBC82002F0C8F90021AE2000F07BF97C
:101A10000021084600F077F90021102000F073F94A
:101A20000021402000F06FF90021B02000F06BF998
:101A30000021812000F067F90021FF2000F063F908
:101A40000021A12000F05FF90021A62000F05BF941
:101A50000021A82000F057F900213F2000F053F9A1
:101A60000021C82000F04FF90021D32000F04BF9ED
:101A70000021084600F047F90021D52000F043F985
:101A80000021802000F03FF90021D82000F03BF930
:101A90000021052000F037F90021D92000F033F9AA
:101AA0000021F12000F02FF90021DA2000F02BF9BD
:101AB0000021122000F027F90021DB2000F023F99B
:101AC0000021302000F01FF900218D2000F01BF9CB
:101AD0000021142000F017F90021AF2000F013F9C5
:101AE0001CBD000000040240000C024001490870C7
:101AF00070470000DC0700100149087070470000C3
:101B0000DE0700100149087070470000DD07001073
:101B100070B504460D4605F1B000002100F0F3F861
:101B2000102141EA1410002100F0EDF804F00F003C
:101B3000002100F0E8F870BD2DE9F04180460E4626
:101B40001546002731464046FFF7E2FF00240AE031
:101B5000124A02EB8511085D012100F0D4F8781CCF
:101B6000C7B2601CC4B2102CF2DB701CC1B240467C
:101B7000FFF7CEFF00240CE06900491C074A02EB86
:101B80004111085D012100F0BEF8781CC7B2601C4D
:101B9000C4B2102CF0DBBDE8F08100001A00001088
:101BA0002DE9F04707460E46904699460025002449
:101BB000A8F12000C5B27F2F02DD0027B01CC6B2FD
:101BC000B9F1100F24D131463846FFF7A1FF0024A8
:101BD00008E004EB0511194A505C012100F093F86C
:101BE000601CC4B2082CF4DB701CC1B23846FFF78D
:101BF0008FFF002409E004EB051108310F4A505C07
:101C0000012100F080F8601CC4B2082CF3DB12E064
:101C100031463846FFF77CFF00240AE005EB45011A
:101C2000074A02EB4101085D012100F06CF8601CDD
:101C3000C4B2062CF2DBBDE8F0870000A8690A08F0
:101C400080670A082DE9FF5F074691461E460E9DF4
:101C50004FF0000A002435E0301B401EC1B20A20BC
:101C600002F054FBB9FBF0F00A21B0FBF1F201FBEA
:101C70001208BAF1000F14D1701EA04211DDB8F1A4
:101C8000000F0CD1AB4605EBDB71491001FB047171
:101C9000C8B22B4620220199FFF782FF10E04FF0D7
:101CA000010AAB4605EBDB71491001FB0471C8B2B8
:101CB00008F13001CAB22B460199FFF771FF00BF4E
:101CC000601CC4B2B442C7DBBDE8FF9F2DE9F04100
:101CD00004460F461546984600260FE0AA5D434687
:101CE00039462046FFF75CFF04F10800C4B2782CA7
:101CF00002DD0024B81CC7B2701CC6B2A85D002863
:101D0000ECD1BDE8F08170B504460D461DB1E0B2DE
:101D100001F0A0F902E0E0B201F086F970BD000028
:101D200010B588B004460121084600F063FA01218D
:101D3000480400F06FFA072202212248FFF71AFA3E
:101D4000072203211F48FFF715FA0C2006900220F6
:101D50008DF81C0000208DF81E0003208DF81D005A
:101D600001208DF81F0006A91648FFF7BBF9029461
:101D70000C20ADF812000020ADF81000ADF80E00F8
:101D8000ADF80C00ADF8140002A90F4801F064F89A
:101D900026208DF8040001208DF805008DF806003E
:101DA0008DF8070001A8FFF73DFC012240F2255104
:101DB000054801F02BF80121034800F0E4FF08B0CA
:101DC00010BD0000000002400044004010B588B083
:101DD00004460121102000F02DFA0121084600F0F0
:101DE00009FA072209212248FFF7C4F907220A212C
:101DF0001F48FFF7BFF94FF4C060069002208DF82E
:101E00001C0000208DF81F008DF81E0003208DF8A7
:101E10001D0006A91648FFF765F902940020ADF8E9
:101E20000C00ADF810000C20ADF812000020ADF849
:101E30000E00ADF8140002A90E4801F00DF825209F
:101E40008DF8040001208DF805008DF806008DF84E
:101E5000070001A8FFF7E6FB012240F225510548E3
:101E600000F0D4FF0121034800F08DFF08B010BD41
:101E7000000002400010014010B588B00446012166
:101E8000022000F0B7F90121880400F0C3F94FF4F3
:101E90004060069002208DF81C0000208DF81E0086
:101EA00003208DF81D0000208DF81F0006A91B4897
:101EB000FFF718F907220A211848FFF75BF90722F4
:101EC0000B211648FFF756F902940C20ADF81200CA
:101ED0000020ADF81000ADF80E00ADF80C00ADF824
:101EE000140002A90E4800F0B7FF27208DF8040067
:101EF00001208DF805008DF806008DF8070001A877
:101F0000FFF790FB012240F22551054800F07EFFCB
:101F10000121034800F037FF08B010BD0004024063
:101F20000048004010B504462146024800F05FFD1D
:101F300010BD000000080040014908627047000021
:101F400000000E422DE9F04180460E46174612A1D0
:101F50004046FEF7B5F905461DB94FF0FF30BDE824
:101F6000F0812D1D2846FEF7C9F984B2002C05DD4D
:101F7000601E285C0D2801D1601E84B2BC4201DBCA
:101F8000781E84B2224629463046FEF7ABF900207F
:101F9000305500BFE3E700006D73673D00000000AF
:101FA00010B50446642C4FD008DC302C37D0612C9F
:101FB0000BD0622C17D0632C77D122E0652C4AD04D
:101FC000662C4FD0672C7BD170E00120FFF794FD89
:101FD00001203F4908603C20FFF7A4FF3DA0FEF729
:101FE000B9FC002010BD0220FFF786FD0220384911
:101FF00008605020FFF796FF3BA0FEF7ABFC0020E7
:10200000F0E70320FFF778FD0320314908606320E3
:10201000FFF788FF39A0FEF79DFC0020E2E70020D3
:10202000FFF76AFD0020FFF77DFF002028490860C8
:10203000374908703749086037A0FEF78BFC3EA08F
:10204000FEF788FC0020CDE700F07AFF3FA0FEF706
:1020500081FC0020C6E7FEF7D3FC42A0FEF77AFC25
:102060000020BFE72A48007890B93C202949086041
:102070000120274908700220FFF73EFD0220144985
:1020800008605020FFF74EFF3DA0FEF763FC0AE01A
:102090002048006800F5E1601E49086008460168B4
:1020A00041A0FEF757FC00209CE709E000201849FA
:1020B00008701849086018A0FEF74CFC002091E752
:1020C000214644A0FEF746FC4FF0FF308AE70000AF
:1020D000100000105B636D645D2061202D3E203197
:1020E000E6A1A35C720A00005B636D645D20622060
:1020F0002D3E2032E6A1A35C720A00005B636D6492
:102100005D2063202D3E2033E6A1A35C720A00000F
:1021100000000010040000105B636D645D20672008
:102120002D3E20E585B3E997ADE58092E8AEA1E6C6
:1021300097B65C720A0000005B636D645D2030201E
:102140002D3E20E5819CE6ADA20D0A005B636D6427
:102150005D2064202D3E2057694669E58887E68D1D
:10216000A20D0A005B636D645D2065202D3E20E8B2
:10217000939DE78999E58887E68DA20D0A00000006
:102180005B636D645D2066202D3E20E590AFE58A9F
:10219000A8E58092E8AEA1E697B6203330E58886C0
:1021A000E9929F0D0A0000005B636D645D2066206C
:1021B0002D3E20E58092E8AEA1E697B62B3330E5C0
:1021C0008886E9929F2C20E589A9E4BD99256C7544
:1021D000730D0A005B636D645D2027256327202D46
:1021E0003E20E69CAAE79FA5E591BDE4BBA40D0AAD
:1021F0000000000029B1064A12680243044B1A602D
:1022000004E0034A12688243014B1A6070470000E1
:102210003038024029B1064A12680243044B1A6062
:1022200004E0034A12688243014B1A6070470000C1
:102230004038024029B1064A12680243044B1A6032
:1022400004E0034A12688243014B1A6070470000A1
:1022500044380240F0B50021002200240225002667
:102260000223324F3F6807F00C0121B1042905D049
:10227000082937D105E02E4F076036E02D4F076063
:1022800033E02A4F3F1F3F68C7F38056274F3F1F59
:102290003F6807F03F036EB1264FB7FBF3F7DFF857
:1022A0008CC0ACF1040CDCF800C0CCF3881C07FB3C
:1022B0000CF40CE01E4FB7FBF3F7DFF870C0ACF185
:1022C000040CDCF800C0CCF3881C07FB0CF4174F9F
:1022D0003F1F3F68C7F301477F1C7D00B4FBF5F744
:1022E000076002E0124F076000BF00BF0F4F3F685A
:1022F00007F0F0010909104F7A5C0768D740476082
:102300000A4F3F6807F4E051890A0B4F7A5C47682F
:10231000D7408760054F3F6807F46041490B064F7F
:102320007A5C4768D740C760F0BD000008380240BB
:102330000024F40000127A008C08001010B5134835
:10234000007813490978884200D110BD0F48007801
:10235000022805D1192200212820FFF7EDFB0EE00D
:102360000A480078012805D1102200212820FFF713
:10237000E3FB04E0112200212820FFF7DDFB0348E6
:1023800000780349087000BFDFE70000DC07001099
:10239000DF07001070B586B022480078224909781E
:1023A000884207D12148006821490968884201D143
:1023B00006B070BD1B480078C0B11C480068A8B1C9
:1023C0001A4800684FF46161B0FBF1F417480068E7
:1023D000B0FBF1F201FB12003C21B0FBF1F5134818
:1023E0000068B0FBF1F201FB120602E00024264671
:1023F000254623460FA2102102A8CDE9005600F081
:102400003FFE102302AA06210020FFF75FFC0548CB
:10241000007805490870054800680549086000BF54
:10242000C6E7000000000010E807001004000010DC
:10243000EC0700102530326C753A2530326C753A55
:102440002530326C7500000000B585B00F4800786B
:102450000F490978884201D105B000BD14216846B2
:10246000FDF723FF094803780AA21421684600F00B
:1024700007FE10236A4603212020FFF727FC0348AC
:1024800000780349087000BFE6E70000DE0700108F
:10249000E10700103A25642020000000F8B504464A
:1024A0000D46164623480078854204D1224800682C
:1024B000844200D1F8BD35B3232C0BDD10231FA2BD
:1024C00003213C20FFF702FC1E2203215020FFF7CE
:1024D00033FB29E0102002232246032100903C20F8
:1024E000FFF7B0FB102317A203214B20FFF7EEFBF1
:1024F0001A2203216020FFF71FFB1C2E14DD62202F
:10250000FFF74EFD10E0102310A203213C20FFF73F
:10251000DDFB1C2203216020FFF70EFB0D48007835
:1025200010B93020FFF73CFD0248057002480460F6
:1025300000BFBFE7E2070010E407001020202020C2
:1025400000000000636D20200000000020202020FB
:10255000200000000000001038B504460D48007847
:10256000844200D138BD4CB91020022300900948A4
:10257000027806216420FFF765FB09E010200223A2
:102580002246062100906420FFF75CFB014804709E
:1025900000BFE7E7E307001010B5134800781349C0
:1025A0000978884200D110BD0F480078022805D173
:1025B000192200217120FFF7BFFA0EE00A480078C7
:1025C000012805D1102200217120FFF7B5FA04E09F
:1025D000112200217120FFF7AFFA03480078034968
:1025E000087000BFDFE70000DD070010E007001003
:1025F00001460022322900DD1CE025480068081A47
:1026000000EE900AF8EEE00AB0EE600AB5EEC00AFD
:10261000F1EE10FA03D2F1EE400AB0EE600AF7EEE6
:10262000000AB4EEE00AF1EE10FA01DD012200E04A
:10263000002200BF012A13D116480078022804DACC
:1026400014480078401C134B18700020124B18706F
:1026500010480078022816DB0120104B187012E099
:102660000D4800780A2802DA00200A4B18700A4840
:102670000078401C084B1870184600780A2802DBC6
:102680000020064B1870024801600448007870472B
:10269000F0070010F6070010F5070010F40700100F
:1026A00010B52DED068B002480211C48FEF790FD0F
:1026B0000F2001F07DFB80211848FEF787FD00BF49
:1026C0004FF400711548FEF778FD0128F8D103E0BA
:1026D000012001F06DFB641C4FF400710F48FEF700
:1026E0006CFD0128F4D02046FDF7FEFE41EC1A0BEC
:1026F0009FED0B0B53EC102BFDF715FE41EC190B66
:102700009FED090B53EC102BFDF77FFE41EC180BEE
:10271000FDF7F7FEBDEC068B10BD0000000802407F
:102720009CC420B07268A13F00000000000000407F
:102730001CB501210420FFF75DFD802000900120E1
:102740008DF8040000208DF8060002208DF80700A7
:1027500003208DF8050069460848FEF7C3FC4FF4D6
:102760000070009000208DF8040069460348FEF7D1
:10277000B9FC80210148FEF729FD1CBD000802407C
:102780000CB50020019000903448006840F480307F
:102790003249086000BF3148006800F40030009002
:1027A0000198401C0190009818B90198B0F5A04F0D
:1027B000F1D12A48006800F4003010B101200090E7
:1027C00001E0002000900098012846D123484030C5
:1027D000006840F08050214940310860204800687E
:1027E00040F440401E4908601C48083000681B49FE
:1027F000083108600846006840F400400860084658
:10280000006840F4A05008601648091F0860081FBF
:10281000006840F08070091F086000BF0F48006822
:1028200000F000700028F9D040F205700E490860F1
:102830000A480830006820F00300084908310860A1
:102840000846006840F00200086000BF03480830F6
:10285000006800F00C000828F8D10CBD00380240D8
:102860000070004008544007003C024010B500BF13
:10287000502080F31188BFF34F8FBFF36F8F00BFDD
:1028800003F03AFD18B14FF080500449086000BFD2
:10289000002080F3118800BF10BD000004ED00E0AF
:1028A00010B51548006840F47000134908601348DB
:1028B000006840F001001149086000200F4908310C
:1028C00008600E4800680E4908400C4908600D4831
:1028D000091D0860081F006820F48020091F086097
:1028E000002006490C310860FFF74AFF06480249FC
:1028F0008039086010BD000088ED00E0003802401B
:10290000FFFFF6FE1030002400000A0821B1028803
:1029100042F08002028004E002884FF67F731A4082
:102920000280704721B1028842F00102028004E077
:1029300002884FF6FE731A400280704770B500247B
:1029400000220023058C4FF6FF6635400584028C7B
:102950008388848B4FF68F752C404FF6FC752C4086
:102960000D882C434FF6FF552A408D894FF6FF7690
:1029700006EA05252A434D8806EA05252A43154D12
:10298000A84202D0144DA8421DD14FF2FF752A4033
:10299000CD894FF6FF7606EA05252A434FF6FF3527
:1029A0002A408D8806EA05252A434EF6FF752B40FE
:1029B0004DF6FF752B400D8A06EA05152B434D8A0F
:1029C00006EA05152B43838084838D68C5630284E2
:1029D00070BD000000000140000401400A460021D3
:1029E000818B4FF6F7731940114381837047C163A0
:1029F0007047000000220288184B98420ED0184BF6
:102A000098420BD0B0F1804F08D0164B984205D0B9
:102A1000154B984202D0154B984204D14FF68F7354
:102A20001A404B881A43124B984207D0114B9842D8
:102A300004D04FF6FF431A400B891A4302804B68BB
:102A4000C3620B880385054B984202D0044B984221
:102A500001D18B7A038601238382704700000140F5
:102A6000000401400004004000080040000C004049
:102A7000001000400014004010B540F225512148DC
:102A800000F09AF900283BD040F225511D4800F093
:102A90006BF91C4800F04AFA1B4908800846008878
:102AA0000A2812D01948007831280AD2084601783D
:102AB000164802780078401C144B18701448815452
:102AC0001EE00020114908701AE000210F4800782C
:102AD000401E0F4A115432210E48FDF7E6FB0B4809
:102AE0000078421E0A490B48FDF7FCFB32210848DA
:102AF000FDF7DBFB0020054908700120064908703E
:102B000010BD000000100140FA070010180000106E
:102B1000B0080010F00C0010F807001010B540F2DB
:102B200025513B4800F048F9012870D1384800F0A1
:102B3000FDF9C4B237480078401C364908700A2CA9
:102B40004DD135480078002841DD33480078401EDB
:102B50003249085C0D2806D100212F480078401E1C
:102B60002E4A115404E000212C482B4A127881543B
:102B70002B492A48FDF7C9FB58B92AA12748FDF778
:102B8000C4FB30B128A0FEF733FD01202A490870AC
:102B90001DE03F2221492248FDF7A4FB00202049E7
:102BA00081F83F003F221D492448FDF79BFB002090
:102BB000224981F83F0022A0FEF71AFD1F48FEF7C8
:102BC00017FD20A0FEF714FD01201F4908704021C9
:102BD0001248FDF76AFB00200F49087016E00E4806
:102BE00000783F2808D20C4801780078401C0A4A37
:102BF00010700A48445409E014A0FEF7F9FC402183
:102C00000648FDF752FB00200349087000BF10BDC5
:102C1000004400401400001019000010E2080010E9
:102C2000220900106600000052585BE9878DE5A478
:102C30008D5D0D0A00000000FD070010220D001040
:102C400052585B005D0D0A00FC0700104552523AD5
:102C5000E7BC93E586B2E58CBAE6BAA2E587BA216D
:102C60000D0A000010B540F22551314800F0A4F8DB
:102C700001285CD140F225512D4800F075F82C4810
:102C800000F054F9C4B22B480078FF280ADA29482A
:102C900001780078401C274A1070274844540021CE
:102CA000127881540A2C36D124480078002829DD76
:102CB00022480078401E2249085C0D2806D10021D8
:102CC0001E480078401E1E4A115404E000211C4892
:102CD0001A4A127881541BA11948FDF7F1FA88B1FC
:102CE0001AA11748FDF7ECFA60B91AA11448FDF7CC
:102CF000E7FA38B9FF2212491948FDF7F3FA012023
:102D0000184908704FF480710D48FDF7CEFA002085
:102D10000A4908700BE009480078FF2807D20748E5
:102D200001780078401C054A10700548445410BDD5
:102D30000048004015000010620900101700001044
:102D4000610B00106D73673D000000006D73673DFF
:102D50004F4B00006D73673D4641494C0000000039
:102D6000610A00101600001010B50022002340F682
:102D70006A14A14200D100BF0A1201249440A3B2F8
:102D8000DC43048010BD21B1828942F4005282816B
:102D900004E082894DF6FF731A4082817047024633
:102DA0000020B1F5007F00D100BF13880B400BB1AC
:102DB000012000E00020704770B502460024002387
:102DC0000025002040F66A16B14200D100BFC1F3D1
:102DD000421501F01F03012606FA03F3012D02D16B
:102DE0009689334006E0022D02D1168A334001E075
:102DF000968A33400C12012606FA04F416883440F1
:102E000013B10CB1012000E0002070BDF0B5034605
:102E1000002400260025002040F66A17B94200D1A0
:102E200000BF1846C1F3421401F01F06012707FA3C
:102E300006F5012C01D10C3004E0022C01D1103038
:102E400000E014301AB107682F43076002E00768FA
:102E5000AF430760F0BD00002DE9FF4705460E4671
:102E60000024A14600BFA046B08900B100BF2C8A53
:102E700024F44054F08804432C82AC8941F20C6065
:102E80008443B08831890843718908430443AC8185
:102E9000AC8A24F44074B0890443AC826846FFF7DE
:102EA000D9F92048854202D01F48854202D1DDF879
:102EB0000C9001E0DDF80890A88900F4004040B1D2
:102EC00009EBC90000EB091031684900B0FBF1F7CC
:102ED00007E009EBC90000EB091031688900B0FB7D
:102EE000F1F76420B7FBF0F004012009642101FB35
:102EF0001078A88900F4004040B1322000EBC800EF
:102F0000B0FBF1F000F00700044308E0322000EBD2
:102F100008106421B0FBF1F000F00F0004432C8195
:102F2000BDE8FF8700100140001401400146888879
:102F3000C0F308007047C1F30802828070470000A8
:102F400010B50448007810B900F038F801E000F03E
:102F500003F810BD0808001010B50748007830B11C
:102F600001200649087006A0FDF7F4FC02E00CA061
:102F7000FDF7F0FC10BD000008080010FE0700106F
:102F80005B576946695D20E58F91E98081E585B3EE
:102F9000E997ADE8AFB7E6B1825C720A00000000C5
:102FA0005B576946695D20E5B7B2E585B3E997AD42
:102FB000EFBC8CE8B7B3E8BF870D0A0010B50A482C
:102FC000007868B90948006850B100230222194608
:102FD0000648006803F0F2F805A0FDF7BBFC02E02C
:102FE0000AA0FDF7B7FC10BD080800100408001087
:102FF0005B576946695D20E58F91E98081E5BC807A
:10300000E590AFE9809AE79FA50D0A005B576946F6
:10301000695D20E5B7B2E5BC80E590AFEFBC8CE818
:10302000B7B3E8BF870D0A0010B5044600F0F8FFFB
:10303000782000F0BDFF00F099FF002000F0B8FFFD
:1030400000F094FF204600F0B3FF00F08FFF01F086
:103050000BF810BD10B5044600F0E2FF782000F038
:10306000A7FF00F083FF402000F0A2FF00F07EFFEA
:10307000204600F09DFF00F079FF00F0F5FF10BD45
:103080000FB41CB50A46521ECDE9000207A9054B34
:103090006A46069800F0F0F8009A002111701CBCF6
:1030A0005DF814FBA7390A080FB4084B10B504A942
:1030B00002AA039800F0E0F8044602A9002000F0FC
:1030C0007DFC204610BC5DF814FB0000BD390A08E9
:1030D0007CB5491E1C461546CDE90001044B6A46E5
:1030E0002146284600F0C8F8009A002111707CBDE6
:1030F000A7390A0802E008C8121F08C1002AFAD13D
:1031000070477047002001E001C1121F002AFBD167
:10311000704700002DE9FF5FDDE90220010DDDF8B9
:1031200038B0024318D044F61050A1F2FF314143A9
:103130000D140F98012820D0A5EB0B00401C5FEA6E
:10314000000A4FF00004474EDFF81C91A04650469D
:1031500016D5CAF1000728E00F98012443A20128E0
:1031600008D0002100980F9BC0E90021C0E902436C
:10317000BDE8FF9F6FEA0B01F4E7CBF10000DEE74B
:10318000074612E0F80707D0224633464046494634
:10319000FDF7C9F88046894622463346104619464F
:1031A000FDF7C1F804460E467F10002FEAD1DDE995
:1031B0000201BAF1000F42464B4602DAFDF7B3F8BE
:1031C00001E0FDF722F904460E460022284BFDF7E8
:1031D0002BFB03D84FF0FF30014607E00022254BC0
:1031E00020463146FDF760FAFDF705FB102409E0A3
:1031F000002C0ADB0A220023FDF7B8F9019B3032CC
:103200001A55641E50EA0102F2D1641C019AC4F1FD
:10321000110314440F9A012A03D0012208430DD14F
:103220000AE0084304D000204FF0110B0F9080E714
:10323000A3EB0B056D1E0DE05B4504DD4FF00002B6
:1032400005F1010504E003DA4FF00002A5F10105E4
:10325000002AECD000980F99C0E90231C0E900457E
:1032600086E70000000024400000F03F300000002E
:103270000000F0430000E03F2DE9FF4F95B09B4672
:103280008946064600250FE2252877D100242746E7
:10329000F84A0121059400E0044316F8013F203B61
:1032A00001FA03F01042F7D130782A2811D06FF0DC
:1032B0002F033078A0F13002092A16D8059A44F07D
:1032C000020402EB820203EB42021044761C0590DA
:1032D000EFE759F8042B0592002A03DA504244F430
:1032E0000054059044F00204761C30782E2816D144
:1032F00016F8010F44F004042A280DD06FF02F02B5
:103300003078A0F13003092B09D807EB870302EBD3
:103310004303C718761CF3E759F8047B761C307812
:103320006C280FD006DC4C2817D068280DD06A28EE
:1033300014D104E0742810D07A280FD10DE044F4A1
:1033400000140AE044F4801401E044F4401472785C
:10335000824202D104F58014761C761C30786628EF
:103360000BD013DC582877D009DC002875D045280D
:10337000F6D04628F4D047281AD19DE118E06328FA
:1033800035D0642879D0652812D195E1702873D0A2
:1033900008DC6728F1D069286FD06E280DD06F281F
:1033A00006D1B5E073282CD0752875D0782874D054
:1033B0005A46179990476D1C75E1C4F302500228D4
:1033C00009D003280DD0D9F8001004280DD00D60C5
:1033D00009F1040967E1D9F80010EA17C1E90052C0
:1033E000F6E7D9F800100D80F2E70D70F0E719F854
:1033F000041B8DF8001000208DF80100EA46012022
:1034000003E059F804AB4FF0FF3061074FF00001C3
:1034100002D40DE008F101018846B9420FDA804577
:10342000F8DB1AF808100029F4D108E008F10101CE
:1034300088468142FADB1AF808100029F6D105986F
:103440005B46A0EB080721463846179A00F094FA2D
:10345000284400EB080507E04DE029E10DE01AF8EB
:10346000010B5A4617999047B8F10108F7D25B460D
:1034700021463846179A13E142E00A220092C4F32B
:1034800002524FF0000A022A08D059F804CB032A4E
:103490004FEAEC710AD00DE029E02AE009F10701BA
:1034A00021F00702F2E802C1914609E00FFA8CFC14
:1034B0004FEAEC71042A03D14FFA8CFC4FEAEC710D
:1034C000002907DA0A460021DCF1000C61EB020159
:1034D0002D2202E0220504D52B228DF804200122A2
:1034E00003E0E20701D02022F7E7904659E00A21E5
:1034F00002E010220DE010214FF0000A00910BE0D5
:1035000010224FF0000A44F004040827009203E060
:1035100008224FF0000A0092C4F30252022A05D09A
:1035200059F804CB0021032A08D009E009F107016A
:1035300021F00702F2E802C1914605E01FFA8CFC77
:10354000042A01D10CF0FF0C4FF00008220728D507
:10355000702806D0009B83F0100353EA0A0305D0BD
:103560000EE040228DF80420012208E05CEA01020E
:1035700006D030228DF804208DF8050002229046F6
:10358000009B83F0080353EA0A030AD15CEA0102B4
:1035900001D1620705D530228DF804204FF00108D3
:1035A0007F1E582804D034A003900EA802900DE08E
:1035B00036A0F9E753466046009AFCF7D7FF8446E9
:1035C0000398825C0298401E029002705CEA01003F
:1035D000F0D1029806A9081A00F1200A600702D566
:1035E00024F4803400E00127574502DDA7EB0A00F0
:1035F00000E0002000EB0A01009005984144401AC9
:103600000590E00306D45B462146179A059800F022
:10361000B3F90544002706E001A85A46C05D179992
:1036200090476D1C7F1C4745F6DBE0030CD55B46DD
:103630002146179A059800F09FF9054404E03020D0
:103640005A46179990476D1C0099481E0090002912
:10365000F5DC08E0029802995A460078491C02916C
:10366000179990476D1CBAF10001AAF1010AF1DC2B
:1036700065E1000009280100303132333435363736
:1036800038396162636465660000000030313233AE
:10369000343536373839414243444546000000004E
:1036A00000F058F90544761C307800287FF4ECAD22
:1036B00019B02846BDE8F08F620700D4062709F14B
:1036C000070222F0070CFCE80223E14603F0004861
:1036D0005FEA080C02D00FF2702C0DE05FEA045C88
:1036E00002D50FF2682C07E05FEAC47C02D00FF22B
:1036F000602C01E0AFF2700C4FF0FF3823F0004374
:10370000CDF850C065280CD006DC452809D04628E5
:103710001DD047283DD13DE0662818D067287ED1CE
:1037200038E00021112F01DB112000E0781CCDE9E9
:10373000000106A90EA8FFF7EDFCDDE90F010E9AC6
:1037400003910021009207F1010A04914DE04FF02E
:1037500000400097CDE9011006A90EA8FFF7DAFC9A
:10376000DDE90F0203920E9B11990022DDF80CA0F7
:103770000093049211B9791C00EB010AB7EB0A001F
:1037800004D4C0F1FF3007F1010A0490AAEB07004E
:10379000019044E0012F00DA01270021112F01DD03
:1037A000112000E03846CDE9000106A90EA8FFF778
:1037B000B1FCDDE90F010E9A039100210491009202
:1037C000BA4621070CD40399514500DA8A46BAF16A
:1037D000010F05DD009AAAF10101515C302908D0E2
:1037E000B84202DA10F1040F06DA0121CDE9011026
:1037F00015E0AAF10101E9E7002805DC049901447C
:103800000491AAEB000102E0411C514500DD8A460B
:103810000499401A401C01904FF00040029020078C
:1038200004D40198504501DBCDF8048000208DF8C8
:103830004F0002980DF14F07B0F1004F25D02B201B
:103840000E9002984FF0020800280CDA40420290D5
:103850002D200E9007E00A210298FCF771FE30310E
:10386000029007F8011DB8F10001A8F10108F2DC8F
:1038700002980028EFD1791E0E980870307800F079
:10388000200040F0450007F8020D12A8C01B00F10F
:1038900007081498007800B1012000EB0A01019894
:1038A00001EBE07105984144401A401E0590E00389
:1038B00006D45B462146179A059800F05DF805444A
:1038C0001498007818B15A46179990476D1CE00378
:1038D00024D55B462146179A059800F04DF805441B
:1038E0001CE00498002807DBDDE90301884203DDC2
:1038F0000098405C179901E0179930205A4690478C
:10390000049805F10105401C04900198401E0190A7
:1039100004D12E205A46179990476D1CBAF1000128
:10392000AAF1010ADDDC05E017F8010B5A461799E8
:1039300090476D1CB8F10001A8F10108F4DC5B466A
:103940002146179A0598ABE62D0000002B000000D9
:10395000200000002DE9F041044600251E461746D0
:10396000880404D405E039462020B0476D1C641E4D
:10397000F9D52846BDE8F0812DE9F041044600253F
:103980001E469046C80301D5302700E02027880452
:1039900004D505E041463846B0476D1C641EF9D594
:1039A0002846BDE8F0814A68002A06D00A68531C00
:1039B0000B6010704868401E486070470A68531CCE
:1039C0000B601070704700000EB502F08FFC029083
:1039D00000BF002000900190FEF762FE06463046D0
:1039E000FEF706FE07461824684600F0F9F908B904
:1039F0009DF802402248007898B12248006880B1C2
:103A000020480068401E1F4908600846006840B909
:103A100000201B4908703020FEF7C2FA1AA0FCF7FC
:103A200099FF23463A46314620480068FDF702FFD9
:103A30001E480068401C1D4908601D480078012888
:103A400018D11C48FCF75AFCA0B11A490878FEF7B7
:103A5000A7FA05461DB918A0FCF77CFF02E01EA0DE
:103A6000FCF778FF32211348FCF71FFC00201049B7
:103A7000087000BF4FF47A7102A801F053FCA8E768
:103A800000000010040000105BE58092E8AEA1E6A3
:103A900097B65D20E5BD92E99BB62CE9A38EE68939
:103AA00087E585B3E997AD0D0A0000000C0800100A
:103AB000F8070010F00C00105B5553415254315D73
:103AC00020E591BDE4BBA4E689A7E8A18CE6889037
:103AD000E58A9F0D0A0000005B5553415254315D49
:103AE00020E591BDE4BBA4E689A7E8A18CE5A4B1DB
:103AF000E8B4A50D0A000000012500BF3DB94FF054
:103B0000FF31012001F042FA4DA0FCF723FF002510
:103B100052A0FCF71FFF012057490870FDF7E6FF90
:103B2000012240F225515548FFF770F9FCF744FF98
:103B300053A0FCF70FFF0024002668E056480078E9
:103B400030B100205449087054A0FCF703FF5FE037
:103B500059480078012832D15848FCF7CFFB00289B
:103B60002DD0002240F225514448FFF74FF9534928
:103B70000878FEF715FA07461FB951A0FCF7EAFED0
:103B800002E056A0FCF7E6FE40214C48FCF78DFB16
:103B9000002049490870012240F225513748FFF7BB
:103BA00035F935480078022807D0022032490870DC
:103BB000FDF79CFF50A0FCF7CDFE002400BF564847
:103BC000007801280FD10020534908702A48007856
:103BD000022807D0022028490870FDF787FF4FA070
:103BE000FCF7B8FE00242448007802280CD1601CA1
:103BF00084B2642C08DB002401201F490870FDF703
:103C000075FF50A0FCF7A6FE322001F05DFB95E7A2
:103C100000BF002240F225511848FFF7F7F8402175
:103C20002648FCF742FB0020234908703A490870F7
:103C300011490870FDF75AFF4BA0FCF78BFE5DE7BA
:103C40005B42545D20E694B6E588B0E5BC80E59023
:103C5000AFE4BFA1E58FB75C720A00005B42545D20
:103C600020E58786E5A487E5BC80E590AFE8939DD5
:103C7000E789995C720A00000908001000440040BE
:103C80005B42545D20E8939DE78999E5B7B2E5BCB6
:103C900080E590AF5C720A00FF0700105B42545D44
:103CA00020E694B6E588B0E585B3E997ADE8AFB70F
:103CB000E6B1820D0A000000FC070010220D001082
:103CC0005B42545D20E591BDE4BBA4E689A7E8A171
:103CD0008CE68890E58A9F0D0A0000005B42545DE7
:103CE00020E591BDE4BBA4E689A7E8A18CE5A4B1D9
:103CF000E8B4A50D0A0000005B42545D20E5B7B2B0
:103D0000E8BF9EE68EA52028E694B6E588B0E6B624
:103D100088E681AF290D0A00FD0700105B42545D63
:103D200020E5B7B2E8BF9EE68EA52028E9878DE59D
:103D3000A48DE591BDE4BBA4E4BF9DE6B4BB290D11
:103D40000A0000005B42545D20E8BF9EE68EA5E8B5
:103D5000B685E697B6202835E7A792E697A0E6B69F
:103D600088E681AF290D0A005B42545D20E8939DEF
:103D7000E78999E5B7B2E585B3E997ADEFBC8CE784
:103D8000AD89E5BE85E5BC80E590AFE4BFA1E58FD8
:103D9000B72E2E2E0D0A000010B5044603E04FF496
:103DA0007A7000F005F82000A4F10104F7D110BDED
:103DB00010B5084B5968084B1B68084CB3FBF4F36B
:103DC00003FB00F200BF034B5B685B1A9342FAD31C
:103DD00010BD0000001000E09C08001040420F00E1
:103DE0002DE9F04105460024A046012001F0AAF883
:103DF00000204C4908601420FFF7CEFF01204A49FB
:103E0000C1F8A4021E20FFF7D3FF002001F09AF8AA
:103E10000BE0601C84B20120FFF7CAFFB4F57A6F93
:103E200003DB4FF0FF30BDE8F0813E48803800688A
:103E30000128EED0002409E0601C84B20120FFF7C5
:103E4000B7FF642C02DB6FF00100ECE735488038E7
:103E500000680028F0D0002409E0601C84B2012032
:103E6000FFF7A6FF642C02DB6FF00200DBE72D48B2
:103E7000803800680128F0D000263AE04FF00008B2
:103E8000072730E0002409E0601C84B20120FFF71E
:103E90008FFF3C2C02DB6FF00300C4E72148803821
:103EA00000680028F0D02820FFF782FF1D488038E6
:103EB0000068012815D1B84040EA080000F0FF086A
:103EC000002409E0601C84B20120FFF771FF322C4E
:103ED00002DB6FF00400A6E7124880380068012872
:103EE000F0D0781E47B2002FCCDA05F80680701C9F
:103EF00046B2052EC2DB287869780844A9780844C0
:103F0000E97808442979FF2901D0012100E0002146
:103F1000084010B16FF0050085E76420FFF748FF07
:103F2000002080E7A4024342000043421CB5012167
:103F30004020FEF75FF94FF40070009001208DF8EB
:103F4000040000208DF8060003208DF805000020F5
:103F50008DF8070069460348FDF7C4F801200249BF
:103F600008601CBD00180240A402434210B50020A6
:103F700000F0D8F901200C4908600520FFF718FF70
:103F80000A48D0F82802012801D1012400E00024C9
:103F90000520FFF70DFF0020034908600520FFF70B
:103FA00007FF204610BD0000BC8240420080414215
:103FB00070B50546012000F0B5F9002014490860ED
:103FC0001449C1F8A8020520FFF7F2FE07241CE0FF
:103FD0000120A040284018B101200F49086002E0EC
:103FE00000200D4908600220FFF7E2FE0120084989
:103FF00008600520FFF7DCFE00200849C1F8BC027C
:104000000520FFF7D5FE601E44B2002CE0DA70BD3B
:10401000BC82404200804142A8824142008040422E
:1040200010B5012000F07EF901200B4908600B4912
:10403000C1F8A8020520FFF7BBFE00200849086070
:104040000520FFF7B5FE00200649C1F8BC02052097
:10405000FFF7AEFE10BD0000BC824042008041422E
:10406000A88241420080404210B5012000F05AF978
:1040700001200A49086000200949C1F8A80205206A
:10408000FFF796FE0120074908600520FFF790FE24
:1040900000200349C1F8A80210BD0000BC824042C4
:1040A00000804142A88241420020284908602848F7
:1040B000886001208881274808610846FDF790FA4A
:1040C000012025490860254888600420888124480B
:1040D00008610846FDF784FA0220224908601F485B
:1040E000886008208881204808610846FDF778FA32
:1040F00003201E49086019488860102088811C48E8
:1041000008610846FDF76CFA04201A490860104857
:104110008860401588811848086118484861084639
:10412000FDF75EFA00BF0948FDF732FA0A48FDF7CD
:104130002FFA0C48FDF72CFA0C48FDF729FA0D4828
:10414000FDF726FA0F2001F0BFF8ECE7640C001031
:1041500000000240F1110A08800C0010001002401B
:104160005D120A089C0C0010D5120A08B80C001049
:1041700021130A08D40C00106D130A0899130A08B9
:104180001CB54FF4A060FDF789FAFCF7ABFC4FF4C7
:10419000E130FDF71BFEFCF717FC4FF41650FDF75E
:1041A000BFFD4FF4E130FDF767FEFCF769FFFEF756
:1041B000BFFAFFF7BBFE00F05BFE002240F2255184
:1041C0003148FEF723FE002240F225512F48FEF72A
:1041D0001DFE002240F225512D48FEF717FEFDF787
:1041E000EFFBFDF765FAFDF783FA012001F066FCAD
:1041F00028490860042001F061FC2749086000207C
:10420000FDF774FC0020FDF77DFC00231A461946DB
:1042100022480068FDF70EFB214880680090204886
:10422000C3888288C1681FA0FCF794FB254803213E
:1042300000234FF40072CDE9001023A1254801F0BE
:104240008DFF2548022100230A02CDE9001023A199
:10425000244801F083FF2448022100234FF44072D8
:10426000CDE9001021A1244801F078FF00200321AE
:1042700003468022CDE9001020A1234801F06EFF03
:1042800001F06CF900BFFEE7004400400048004028
:1042900000100140080000100C0000100C08001075
:1042A000986F0A080D0A3D3D3D2025732056256470
:1042B0002E2564206275696C64202564203D3D3D97
:1042C0000D0A0000100800106170705F7461736B5C
:1042D00031000000C9390A080008001062745F74D8
:1042E00061736B00F93A0A0804080010776966697F
:1042F0005F7461736B0000008D560A086B65795F0F
:104300007461736B00000000A9400A0810B50246F2
:10431000012000E050430B00A1F10104E1B2F9D10A
:1043200010BD00001CB504464FF480600090012CC5
:104330000CD101208DF8040000208DF80600032028
:104340008DF8050001208DF807000AE034B900203F
:104350008DF8040001208DF8070002E04FF0FF30D7
:104360001CBD69460248FCF7BDFE0020F8E70000CE
:10437000000C02402DE9F04105460E461C48076836
:104380001C480068001D00F03BFE50B91948006849
:1043900090F82C100120884017490968814316487D
:1043A0000160681C38B936B112480168091D13480C
:1043B00000F064FE1AE07C190E4800684460BC42BC
:1043C00007D20C480168091D0D48006800F03CFE4A
:1043D0000CE008480168091D0A48006800F034FE36
:1043E00009480068844201D207480460BDE8F081B2
:1043F0002C0800101808001030080010580E00108B
:10440000200800101C0800104808001010B50446D1
:1044100000F040FE24480068401C234908602348FF
:10442000006840B9214804600846006801280DD1A1
:1044300000F0ECF90AE01E48006838B91B48006833
:10444000C06AE16A884201D81848046019480068C7
:10445000401C1849086008460068206494F82C1035
:104460000120884014490968084313490860E16A3B
:1044700001EB8101114A02EB8100211D00F0FEFDDC
:1044800000F032FE0A48006868B108480068C06A57
:10449000E16A884207D24FF0805009490860BFF3B3
:1044A0004F8FBFF36F8F10BD280800101808001041
:1044B000340800104408001030080010A40D00104B
:1044C00004ED00E010B500F0E5FD10480068D0B93B
:1044D0000F4800F0A9FD0F4800F0A6FD0C480E495A
:1044E00008600C480D49086000220C210A2001F0E8
:1044F000F6FA064908600846006820B108A103489A
:10450000006800F0A5FE00F0EFFD10BD5C08001093
:104510006C0E0010800E0010540800105808001097
:10452000546D72510000000070B523E001F060F896
:104530001348006808B9012000E00020054602F099
:104540002FF8BDB900F0A6FD0D48C068C468201D55
:1045500000F056FD0B480068401E0A4908600A48F2
:104560000068401E0849086000F0BEFD204600F0CB
:1045700060F800BF044800680028D7D170BD000073
:10458000440E0010280800102408001070B50446DE
:104590000D46206C70B1216CE0680844E0606168F1
:1045A000E068884201D32068E0602846226CE16818
:1045B000FBF762FE70BD2DE9F04104460F4615463B
:1045C0004FF00008A66B206C40B9206860BB6068A3
:1045D00001F036FF80460020606025E07DB9394655
:1045E000226CA068FBF748FE216CA0680844A0601C
:1045F000D4E90110884217D32068A06014E039463E
:10460000226CE068FBF738FE216CE068401AE0603D
:104610002168E068884203D2216C6068401AE0603B
:10462000022D01D106B1761E701CA0634046BDE884
:10463000F08110B50446206B00F074FD204600F0B8
:1046400071FD10BD0146084A126812680AB90122BC
:1046500000E000220A600A6822B9034A1268D268A0
:10466000106800E0002070475408001030B54FF487
:104670009633174800F007042CB1C01D20F0070046
:10468000134C041B1B1B0246124C22600024114DCC
:104690006C60D018083820F007000F4C2060002410
:1046A0000D4D2D686C600C4D2D682C601146441A20
:1046B0004C60094C24680C60084D4C682C60084D17
:1046C0004C682C604FF00044064D2C6030BD00005B
:1046D0000000002068080010700800107808001022
:1046E000740800107C08001000BFFFF71DFF06488B
:1046F00000680128F9D94FF0805004490860BFF3E1
:104700004F8FBFF36F8FF0E7A40D001004ED00E0B2
:1047100010B504464CB1002060602060E0600023CA
:104720001A461946204601F035FB10BD2DE9F0412F
:1047300006460D4617469846069C0DB9246000E0D3
:104740002760E66325640121204601F0D7FA84F84A
:104750004C80BDE8F0812DE9F05F82460F4690461F
:104760009B460A9E0C9C4FEA8801A522206BFBF712
:1047700095FDA8F10100216B01EB800929F00709E3
:1047800009F0070008B9012000E0002050B900BF7F
:10479000502080F31188BFF34F8FBFF36F8F00BF9E
:1047A00000BFFEE7002507E0795D04F134004155C4
:1047B000785D00B902E06D1C0A2DF5D300BF002121
:1047C0003D200155052E00D30426E662A664002094
:1047D000E064201D00F035FC04F1180000F031FC0D
:1047E0002461C6F10500A06164620020206584F8A0
:1047F00054005A465146484600F08EFB20600B9804
:1048000008B10B980460BDE8F09F000010B50024CB
:1048100007E004EB84010F4A02EB810000F004FC86
:10482000641C052CF5D30C4800F0FEFB0B4800F08F
:10483000FBFB0B4800F0F8FB0A4800F0F5FB0A48C8
:1048400000F0F2FB04480949086004480849086080
:1048500010BD0000A40D0010080E00101C0E00106A
:10486000300E0010440E0010580E00101C080010EE
:104870002008001010B50146164800E000680368E3
:104880008B42FBD30246436813448B4204D14368F6
:104890004C682344436001460A464B68134404684D
:1048A000A34211D10C4C03682468A34208D04B6882
:1048B0000468646823444B6003681B680B6005E070
:1048C000054B1B680B6001E003680B60884200D059
:1048D000016010BD68080010700800102DE9F0415B
:1048E00004460D4616461F464FF0000865602461D9
:1048F000B5420CD8F01BA169884202D34FF00108E1
:1049000011E0211D0948006800F09EFB0BE0BE424B
:1049100004D2BD4202D34FF0010804E0211D044837
:10492000006800F091FB4046BDE8F0815808001097
:104930005408001070B5054600F0ACFBA86B08B930
:10494000012400E0002400F0CFFB204670BD70B5CC
:10495000054600F09FFBA86BE96B884201D101245A
:1049600000E0002400F0C0FB204670BDF8B505460D
:104970000F4616480068C068C468201D00F040FB60
:10498000E06901281DD1A06941192B463A4620460D
:10499000FFF7A4FFA8B1002003462A460146009075
:1049A000204601F0ABFE064656B900BF502080F30A
:1049B0001188BFF34F8FBFF36F8F00BF00BFFEE7BB
:1049C00000BF2046616A8847F8BD00005408001007
:1049D00070B586B06AE00398002867DB059C6069C3
:1049E00008B9012000E0002010B9201D00F008FBEC
:1049F00002A800F0BDF8054603980A2854D2DFE863
:104A000000F009050731334F0608323400BF00BFFC
:104A100000BF00BF0498A269811803462A462046B9
:104A2000FFF75CFFE8B12046616A8847E06901282A
:104A300017D1002000900498A1694218002319465C
:104A4000204601F05BFE064656B900BF502080F3B9
:104A50001188BFF34F8FBFF36F8F00BF00BFFEE71A
:104A600000BF22E000BF20E000BF0498A061A06961
:104A700008B1012000E0002050B900BF502080F3B1
:104A80001188BFF34F8FBFF36F8F00BF00BFFEE7EA
:104A9000A06941192B462A462046FFF71FFF04E074
:104AA000204600F03FFB00E000BF00BF00231A4695
:104AB00003A90448006801F03FF800288BD106B034
:104AC00070BD00005C080010F8B505460C4600F00B
:104AD0008FFD684600F04CF80646009820BB44B9AC
:104AE000B54206D801F05CFD31462846FFF73EFF8F
:104AF0001CE03CB10E480068006808B9012000E0E5
:104B000000200446A91B22460A48006800F0B6FBB4
:104B100001F046FD50B94FF0805007490860BFF3DF
:104B20004F8FBFF36F8F01E001F03AFDF8BD000039
:104B3000580800105C08001004ED00E00A490968FC
:104B4000096809B9012100E0002121B14FF0FF31CE
:104B5000064A116006E004490968C968C868034A42
:104B600041681160704700001C08001048080010E0
:104B700070B5044601F0BAFB054607480068854257
:104B800004D200F00BF80120206001E0002020603A
:104B900001480560284670BD640800102DE9F843FF
:104BA00032E024480068C068056822480068C06890
:104BB000C468201D00F024FA2046616A8847E06935
:104BC000012821D1A0694619AE4207D96660246147
:104BD000211D1848006800F037FA15E00020034650
:104BE0002A4601460090204601F088FD074657B945
:104BF00000BF502080F31188BFF34F8FBFF36F8F3A
:104C000000BF00BFFEE700BF0A480068006808B99F
:104C1000012000E000200028C3D00648D0F8008022
:104C200005480068034908600348C0F80080BDE8F3
:104C3000F883000054080010580800100E4800685F
:104C4000401C08B9012000E0002050B900BF5020EE
:104C500080F31188BFF34F8FBFF36F8F00BF00BF8A
:104C6000FEE700BF502080F31188BFF34F8FBFF3E2
:104C70006F8F00BF00BFFEE78008001008B500BFBF
:104C80006846FFF7DFFC044620460099FFF71CFF4B
:104C9000FFF79EFEF4E770B5044600F0FBF994F9C7
:104CA000455010E0606A08B9012000E0002038B9E2
:104CB00004F1240001F028FC18B100F09DFB00E095
:104CC00003E0681E45B2002DECDC00BFFF2084F835
:104CD000450000F009FA00F0DDF994F9445010E0C5
:104CE000206908B9012000E0002048B904F1100053
:104CF00001F00AFC08B100F07FFB681E45B200E03D
:104D000001E0002DECDC00BFFF2084F8440000F03F
:104D1000EBF970BD2DE9F04104464FF0000800F0BA
:104D200067FC4648006808B9FFF7A0FC44480068E3
:104D3000204000286BD1D4B1083404F00700B0B192
:104D400004F00700C0F10800044404F0070008B9AB
:104D5000012000E0002050B900BF502080F31188EE
:104D6000BFF34F8FBFF36F8F00BF00BFFEE7002C74
:104D70004DD034480068844249D8334E30460568E7
:104D800001E02E462D686868A04202D228680028FB
:104D9000F7D12A480068854239D0306800F1080808
:104DA000286830606868001B102819D92F1907F08F
:104DB000070008B9012000E0002050B900BF5020D2
:104DC00080F31188BFF34F8FBFF36F8F00BF00BF19
:104DD000FEE76868001B78606C603846FFF74AFDA4
:104DE000184968680968081A164908600846006882
:104DF00016490968884203D21248006813490860BE
:104E00000F4968680968084368600020286001F05D
:104E1000C7FB08F0070008B9012000E0002050B9E6
:104E200000BF502080F31188BFF34F8FBFF36F8F07
:104E300000BF00BFFEE74046BDE8F08170080010EB
:104E40007C08001074080010680800107808001032
:104E50000648006830B10549096801F14C00C96C89
:104E6000491C0160014800687047000018080010E4
:104E700000B58BB001210420FDF7CCF901210220FF
:104E8000FDF7B8F94FF48070099002208DF82800E2
:104E900000208DF82A0003208DF8290001208DF8CC
:104EA0002B0009A91A48FCF71DF90222082118480D
:104EB000FCF760F940F24730ADF818000020ADF87B
:104EC0001A00632007900020ADF8200006A91148C1
:104ED000FDF790FD6020ADF804000120ADF806005C
:104EE000002003900220ADF8100001A90948FDF749
:104EF00025FD08210748FDF771FD01210548FDF753
:104F000005FD01210348FDF70DFD0BB000BD0000BC
:104F10000004024000080040001F4FF0807303604F
:104F2000001F21F001030360001F054B03601438CC
:104F30000260001F6FF0020303602038704700001A
:104F40003D4C0A081CB504464FF400700090012C3B
:104F50000CD101208DF8040000208DF806000320FC
:104F60008DF8050000208DF8070007E02CB900201F
:104F70008DF804008DF8070000E01CBD694602486A
:104F8000FCF7B0F800BFF8E70018024070B506461D
:104F90000D4600F07FF818480068006D88B90120C0
:104FA0001549096881F854005DB101212846FFF7D1
:104FB000E1F94FF0805011490860BFF34F8FBFF304
:104FC0006F8F00F091F800F065F80B480068046DF1
:104FD0004CB126B1002008490968086503E0601E4D
:104FE00005490968086500200349096881F85400EB
:104FF00000F07AF8204670BD1808001004ED00E0BB
:1050000001460A69D1E901309860D1E9010358608D
:105010005068884201D1886850600020086110689B
:10502000401E10601068704700F1080141604FF0A9
:10503000FF31816000F10801C16001610021016060
:10504000704700210161704710B502460B685C1C77
:105050000CB9106907E002F1080000E040684468FC
:1050600024689C42FAD944684C604C68A16088600E
:1050700041600A611468641C146010BD42684A6093
:1050800093688B60936859609160086103685B1C4A
:105090000360704700BF502080F31188BFF34F8F2B
:1050A000BFF36F8F00BF0E480068401C0C490860BA
:1050B00008460068012812D10A480068C0B208B941
:1050C000012000E0002050B900BF502080F311887B
:1050D000BFF34F8FBFF36F8F00BF00BFFEE7704776
:1050E0008008001004ED00E00D48006850B900BFD2
:1050F000502080F31188BFF34F8FBFF36F8F00BF35
:1051000000BFFEE706480068401E054908600846E3
:10511000006820B9002080F3118800BF00BF7047ED
:105120008008001070B506463546002E3FD0083D79
:105130002C461F4960680968084008B1012000E05A
:10514000002050B900BF502080F31188BFF34F8F6B
:10515000BFF36F8F00BF00BFFEE7206808B90120D2
:1051600000E0002050B900BF502080F31188BFF349
:105170004F8FBFF36F8F00BF00BFFEE70C49606821
:105180000968084098B1206888B9094960680968C9
:105190008843606000F02CFA06496068096808449A
:1051A000044908602046FFF765FB01F0F9F970BD7E
:1051B0007C08001074080010064800684FF47A71EB
:1051C000B0FBF1F0401E4FF0E0214861072008617C
:1051D000704700009C08001070B5FBF737F80446D4
:1051E000102C16D304F1E02090F8F0531548007805
:1051F000854201DB012000E0002050B900BF5020B3
:1052000080F31188BFF34F8FBFF36F8F00BF00BFD4
:10521000FEE70D48006800F4E0600C490968884228
:1052200001D8012000E0002050B900BF502080F3D9
:105230001188BFF34F8FBFF36F8F00BF00BFFEE732
:1052400070BD0000840800100CED00E0880800101C
:10525000024600200BE0084B53F8303033B9064BC0
:1052600043F8301003EBC0035A6002E0401C0828EA
:10527000F1D300BF70470000640D00102DE9F0412C
:1052800005460E4617462C46FFF704FF94F94400E6
:10529000401C10B9002084F8440094F94500401CDB
:1052A00010B9002084F84500FFF71EFFA06B28B955
:1052B0003A46314604F1240000F0C0F82046FFF7DA
:1052C000EAFCBDE8F081000070B504460025D4B1C9
:1052D0001248006808B9012000E0002050B900BF62
:1052E000502080F31188BFF34F8FBFF36F8F00BF43
:1052F00000BFFEE700F07CF900212046FFF73AF8F6
:1053000001F04EF905463DB94FF080500449086060
:10531000BFF34F8FBFF36F8F70BD000050080010B8
:1053200004ED00E02DE9F04704460F464FF0000978
:1053300054B900BF502080F31188BFF34F8FBFF3E3
:105340006F8F00BF00BFFEE70FB1012000E000201B
:1053500050B900BF502080F31188BFF34F8FBFF3C7
:105360006F8F00BF00BFFEE72048006808B901202A
:1053700000E0002050B900BF502080F31188BFF337
:105380004F8FBFF36F8F00BF00BFFEE700F030F913
:10539000174806682068C5192068B04207D92068F8
:1053A000A8420BD9B54209D94FF0010906E020689F
:1053B000A84201D8B54201D94FF001092560B9F1E1
:1053C000000F03D0A81B0021FEF7D4FF01F0E8F87E
:1053D0008046B8F1000F07D14FF0805005490860B2
:1053E000BFF34F8FBFF36F8FBDE8F08750080010F9
:1053F0002C08001004ED00E001200149086070470E
:105400003C08001070B504460D4654B900BF50204A
:1054100080F31188BFF34F8FBFF36F8F00BF00BFC2
:10542000FEE70548016818312046FFF70DFE01210F
:105430002846FEF79FFF70BD1808001070B505469E
:105440000E46144655B900BF502080F31188BFF3B3
:105450004F8FBFF36F8F00BF00BFFEE706480168A4
:1054600018312846FFF70AFE0CB14FF0FF362146EF
:105470003046FEF77FFF70BD1808001070B5054676
:105480002C46002D4BD02649E06A0968C96A88423B
:1054900045D2A06900F0004028B921480068C06AE0
:1054A000C0F10500A061E16A01EB81011D4A02EB38
:1054B00081016069884201D1012000E0002050B3E1
:1054C000201DFFF79DFD78B9E06A00EB80001549CB
:1054D00051F8200040B994F82C100120884012495E
:1054E00009688143104801600D480068C06AE062A5
:1054F00094F82C10012088400B49096808430A4998
:105500000860E16A01EB8101064A02EB8100211D7E
:10551000FFF7B4FD03E002480068C06AE06270BDB6
:1055200018080010A40D00103008001050B900BF7A
:10553000502181F31188BFF34F8FBFF36F8F00BFEE
:1055400000BFFEE70349096801600349096841603B
:1055500070470000400800102C0800101CB51D48C2
:1055600000210B468222CDE900101BA11C4800F04F
:10557000F5FD0446012C02D101F094F80446012CFB
:1055800015D100BF502080F31188BFF34F8FBFF3B8
:105590006F8F00BF4FF0FF301249086001201249A1
:1055A000086000201149086000F0EAF910E0601C72
:1055B00008B1012000E0002050B900BF502080F366
:1055C0001188BFF34F8FBFF36F8F00BF00BFFEE79F
:1055D0001CBD00004C08001049444C450000000070
:1055E000E9460A0848080010340800102C0800108A
:1055F00002480068401C01490860704750080010CC
:105600001D48006818B101201C49086032E00020E4
:105610001A4908601A480068B0FA80F0C0F11F010A
:1056200001EB8100174A52F8200008B1012000E088
:10563000002050B900BF502080F31188BFF34F8F76
:10564000BFF36F8F00BF00BFFEE701EB81020D4B80
:1056500003EB820042685268426000F1080243682E
:10566000934202D14268526842604268D268064B57
:105670001A6000BF70470000500800103C0800107E
:1056800030080010A40D00101808001090B0012779
:1056900000BF3FB94FF0FF310120FFF777FC5BA05F
:1056A000FBF758F90027012060490870FCF72AFA37
:1056B000012240F225515E48FDF7A8FB5DA0FBF7F3
:1056C00049F90025002613E000210846FFF75EFC9B
:1056D00010B96348007800B174E0701CC0B206468F
:1056E000014660A0FBF736F941F28830FFF7ECFD88
:1056F000FBF70CFA0028E7D1012502204B4908707E
:10570000FCF700FA62A0FBF725F900F0EFFD044674
:1057100000BF5348007830B100205149087063A0A1
:10572000FBF718F94EE06848007801283AD167483D
:10573000FAF7E4FD002835D0002240F225513C481C
:10574000FDF764FB40216846FAF7AFFD4022694649
:105750005E48FCF7F7FB98B96846FAF7CFFD90B1C1
:105760009DF80000FCF71CFC8046B8F1000F03D147
:1057700057A0FBF757FC02E059A0FBF753FC02E0EF
:105780005CA0FBF7E7F84FF480715048FAF78DFD05
:1057900000204D490870012240F225512448FDF7B0
:1057A00035FB00BF00F0A2FD001BB0F57A7F05D3EA
:1057B00057A0FBF737FC00F099FD04463220FFF7B5
:1057C00083FDA6E754A0FBF7C5F84DB15BA0FBF73E
:1057D00029FC4FF4FA70FFF777FD59A0FBF722FC84
:1057E000002240F225511248FDF710FB4FF4807162
:1057F0003648FAF75AFD0020334908700B49087003
:10580000FCF780F952A0FBF7A5F842E75B57694621
:10581000695D20E694B6E588B0E5BC80E590AFE42C
:10582000BFA1E58FB75C720A0000000008080010F5
:10583000004800405B576946695D2057694669E545
:10584000B7B2E5BC80E590AFEFBC8CE8BF9EE68EBA
:10585000A5E5B7B4E6B395E4BA912E2E2E0D0A0055
:10586000FE0700105B576946695D20E8BF9EE68E23
:10587000A5E5A4B1E8B4A5EFBC8CE9878DE8AF95A8
:10588000E6ACA1E695B03A2025640D0A00000000C0
:105890005B576946695D20E5B7B4E6B395E4BA9114
:1058A000E5B7B2E8BF9EE68EA50D0A005B576946D4
:1058B000695D20E694B6E588B0E585B3E997ADE883
:1058C000AFB7E6B1820D0A0016000010610A0010A1
:1058D000636D643D32266D73673D4F4B0D0A0000CA
:1058E000636D643D32266D73673D4641494C0D0A38
:1058F000000000005B576946695D20E58D8FE8AECA
:10590000AEE5938DE5BA94E6B688E681AF0D0A0060
:1059100070696E670D0A00005B576946695D20E695
:10592000ADA3E59CA8E696ADE5BC80E5B7B4E6B3CB
:1059300095E4BA912E2E2E0D0A0000002B2B2B0081
:1059400041542B434950434C4F53450D0A0000002E
:105950005B576946695D2057694669E5B7B2E585D9
:10596000B3E997ADEFBC8CE7AD89E5BE85E5BC80BA
:10597000E590AFE4BFA1E58FB72E2E2E0D0A0000F3
:105980001CB5474800684749884201D0012000E023
:10599000002050B900BF502080F31188BFF34F8F13
:1059A000BFF36F8F00BF00BFFEE73D4800683D4971
:1059B000491E884201D0012000E0002050B900BFFC
:1059C000502080F31188BFF34F8FBFF36F8F00BF5C
:1059D00000BFFEE73449084600780190FF200A46E0
:1059E00010700846007800909DF8000000F0F0006C
:1059F0009DF80020904201D1012000E0002050B924
:105A000000BF502080F31188BFF34F8FBFF36F8F1B
:105A100000BF00BFFEE79DF8000000F05000234AE1
:105A200010700720224A106009E021480068401EDB
:105A30001F4A10609DF800004006000E00909DF87F
:105A4000000000F080008028EFD0194800680002B4
:105A5000174A10601046008800F4E0601060124A97
:105A6000019810700E482030006840F470000C4916
:105A7000203108600846006840F070400860FFF779
:105A80009BFB00200B490860FAF7A8FB0A48006856
:105A900040F0404008490860FAF790FB00201CBD28
:105AA00000ED00E071C20F4100E400E08408001046
:105AB000880800108008001034EF00E02DE9F04164
:105AC00004460126002722460021012000F007F8A5
:105AD00005462846FEF71CFE2846BDE8F0812DE964
