:020000040800F2
:10000000606100209D010008A5010008A70100080B
:10001000A9010008AB010008AD01000800000000C4
:10002000000000000000000000000000AF01000818
:10003000B101000800000000B3010008B50100088C
:10004000B7010008B7010008B7010008B7010008B0
:10005000B7010008B7010008B7010008B7010008A0
:10006000B7010008B7010008B7010008B701000890
:10007000B7010008B7010008B7010008B701000880
:10008000B7010008B7010008B7010008B701000870
:10009000B7010008B7010008B7010008B701000860
:1000A000B7010008B7010008B7010008B701000850
:1000B000B7010008B7010008B7010008B701000840
:1000C000B7010008B7010008B7010008B701000830
:1000D000B7010008E5300008753100083532000826
:1000E000B7010008B7010008B7010008B701000810
:1000F000B7010008B7010008B7010008B701000800
:10010000B7010008B7010008B7010008B7010008EF
:10011000B7010008B7010008B7010008B7010008DF
:10012000B7010008B7010008B7010008B7010008CF
:10013000B7010008B7010008B7010008B7010008BF
:10014000B7010008B7010008B7010008B7010008AF
:10015000B7010008B7010008B7010008B70100089F
:10016000B7010008B7010008B7010008B70100088F
:10017000B7010008B7010008B7010008B70100087F
:10018000B7010008B7010008DFF80CD000F0D2FC7E
:10019000004800478D6900086061002006488047DC
:1001A00006480047FEE7FEE7FEE7FEE7FEE7FEE75C
:1001B000FEE7FEE7FEE7FEE77D3000088901000864
:1001C0002DE9F05F0546002092469B46884606468C
:1001D000814640241BE0284641464746224600F01F
:1001E0009FFA53465A46C01A914110D311461846F9
:1001F000224600F086FA2D1A67EB01084F46224688
:100200000120002100F07DFA17EB00094E41201E6D
:10021000A4F10104DFDC484631462A464346BDE8E6
:10022000F09F10B5431A934209D28318881803E04F
:1002300010F8011D03F8011D521EF9D210BD40EA4D
:1002400001039B0703D009E008C9121F08C0042A54
:10025000FAD203E011F8013B00F8013B521EF9D23B
:1002600010BDD2B201E000F8012B491EFBD270474D
:100270000022F6E710B513460A4604461946FFF772
:10028000F0FF204610BD30B505462A460B4612F851
:10029000010B13F8014B08B1A042F8D01CB10028A3
:1002A00002D06D1CF1E7284630BD10B5044604E0CD
:1002B0000B7800F8013B03B1491C521EF8D22046CE
:1002C00010BDCAB2401E10F8011F8A4202D0002998
:1002D000F9D100207047421C10F8011B0029FBD106
:1002E000801A704730B504460020034600E05B1CCE
:1002F000934203D2E05CCD5C401BF8D030BD30B5FA
:1003000005460020034600E05B1C934205D2EC5CEE
:10031000C85C201A01D1002CF6D130BD0FB400B555
:100320008DB010A909900B9000914FF0FF300A900A
:1003300000200C9005480690054807906A4609A8D9
:100340000F9900F011FA0DB05DF814FB8507000855
:10035000A30700082DE9FF4F1C4681B00021D4E916
:10036000016791464FF0FF358A468846A1696D1CAA
:1003700002988847216A834688470028F6D1BBF156
:10038000FF3F0CD026F4C066002F1ADD700615D58D
:10039000BBF12B0F0AD0BBF12D0F0FD104E04FF0B2
:1003A000FF3005B0BDE8F08F46F48066A1696D1C92
:1003B000029888477F1E8346002F02DDBBF1300F75
:1003C00003D0B9F1000F2AD025E0A1696D1C46F4D5
:1003D00000767F1E029888478346002F05DDBBF11B
:1003E000780F06D0BBF1580F03D0B9F1000F10D031
:1003F00011E0B9F1000F02D0B9F1100F0BD1A169D2
:100400006D1C26F400767F1E0298884783461020D4
:1004100000E0082081464FEAE970009017E00A20CA
:10042000F8E74346AAFB092803FB0980DDF800C072
:100430007F1E0AFB0C0112EB0B0A41EBEB78A16962
:1004400046F4007605F10105029888478346002F9F
:1004500006DD4946584600F073F95FEA000BE0D527
:10046000E16902988847B00502D46FF0010098E76F
:10047000F00718D1700610D57005514605D5002338
:10048000D1EB030163EB080200E042462068031D44
:1004900023600068C0E9001205E02068011D2160AA
:1004A0000068C0E900A828467BE72DE9FF5F1D46EC
:1004B0004FF0FF3BD5E9014691465F464FF00008FB
:1004C000A9697F1C01988847296A824688470028C5
:1004D000F6D1BAF1FF3F0CD024F4C064002E19DD30
:1004E000600614D5BAF12B0F09D0BAF12D0F0ED139
:1004F00003E0584604B0BDE8F09F44F48064A96965
:100500007F1C01988847761E8246002E02DDBAF1D4
:10051000300F03D0B9F1000F26D032E0A969761E62
:1005200044F400747F1C019888478246002E05DD44
:10053000BAF1780F06D0BAF1580F03D0B9F1000F15
:1005400010D01EE0B9F1000F02D0B9F1100F18D190
:10055000A969761E24F400747F1C0198884782469E
:10056000102002E0082000E00A20814609E008FB94
:100570000908A969761E44F400747F1C0198884715
:100580008246002E05DD4946504600F0D9F8002885
:10059000EDDAE96901988847A00502D46FF00100FF
:1005A000A8E7E00725D1600613D5600502D5C8F19C
:1005B000000000E0404629680A1D2A6009682205FB
:1005C00001D5087015E0220701D5088011E0086008
:1005D0000FE02868011D29600068210502D580F818
:1005E000008006E0210702D5A0F8008001E0C0F8F5
:1005F000008038467EE72DE9FF5FD2E901A74FF082
:100600000008916999461446DDF838B046460198CD
:100610008847054659EA0B0005D009E0A169761C18
:10062000019888470546216A284688470028F5D161
:10063000681C03D05FEACA7005D015E04FF0FF30A8
:1006400004B0BDE8F09F2068011D2160D0F8008053
:100650000AE05FEACA7001D108F8015BA169761C63
:100660007F1E019888470546002F1ADD681C18D0A8
:10067000B9F1000F0DD0E81705EBD060421120F062
:100680001F0059F822102A1A012090400142E0D19F
:1006900007E0BBF1000FDCD1216A2846884700281B
:1006A000D7D0E16901988847BBF1000F07D1002E30
:1006B00005DD5FEACA7002D1002188F80010A06849
:1006C000B84203DDBBF1000F03D017B16FF001009A
:1006D000B6E73046B4E730B50B460146002020228D
:1006E000012409E021FA02F59D4205D303FA02F53F
:1006F000491B04FA02F52844151EA2F10102F1DC9F
:1007000030BD202A04DB203A00FA02F100207047B5
:100710009140C2F1200320FA03F31943904070473F
:10072000202A04DB203A21FA02F00021704721FA46
:1007300002F3D040C2F120029140084319467047AD
:100740003A2800D2303820F02002412A01D3A2F109
:100750003700884201D34FF0FF30704702681144E0
:100760001378016018467047D1600449516104490B
:10077000116200211161114600F006BA5D07000800
:100780007D0B0008426842B1016811F8013B23B1BA
:10079000521EC0E90012184670470121C160881E30
:1007A000704742685AB1C368016843B983688B4295
:1007B00005D0491E521CC0E90012002070474FF0BE
:1007C000FF3070472DE9FE4F804681EA0300C00FDD
:1007D0000C46009021F0004123F00045B8EB0200E8
:1007E000A94105D24046214690461C460B4602468A
:1007F00023F00040104347D0270DC7F30A00C3F38E
:100800000A510290401A019040286BDAC3F313009A
:1008100040F4801B0098924620B10023D2EB030ADB
:1008200063EB0B0B01985946C0F140025046FFF7AD
:1008300068FF06460D4650465946019A00F08CF96D
:1008400010EB08006141002487EA115284EAE77343
:100850001A4340D0009A62B3019A012A4FEA075224
:1008600015DC001B61EB02014FF0004202EA075267
:10087000CDE90042001C41F5801132462B4600F0C4
:1008800028FB03B0BDE8F08F40462146F9E7001B86
:1008900061EB0201001C41F5801300185B41201838
:1008A000A2F5001747EB030140EAD570B6196D4178
:1008B00011E06D084FEA360645EAC0754FEA075267
:1008C000001B61EB0201001C41F5801149084FEA51
:1008D00030000019514132462B4603B0BDE8F04FBD
:1008E00000F0E8BA0098012240000023D0EB020299
:1008F00063EBE073009821464FEAE074B8EB000028
:1009000061EB0401E9E783F000435BE781F000411C
:1009100058E72DE9FE4F81EA030404F0004421F07A
:10092000004100944FF0000B23F0004350EA010413
:100930005ED052EA03045BD0C3F30A54C1F30A55F4
:100940002C44A4F2F3340194A0FB0254C1F313012C
:1009500041F48011C3F3130343F4801301FB0244F9
:1009600000FB034E840A970A44EA815447EA8357FE
:10097000A4FB076802958D0A05FB07854FEA932CB7
:1009800004FB0C542705029D4FEA065847EA163728
:10099000B5EB08056EEB070C870E920E47EA811740
:1009A00042EA8312A7FB0201B6EB0B0164EB0004E1
:1009B0002B0D43EA0C335E1844EB1C50DA465146CB
:1009C000E7FB0201C5F313044FEA0B3343EA145368
:1009D0004FEA0432019C43EA0603A4F10C0402949A
:1009E000009CCDE900B400F074FA03B0BDE8F08FCC
:1009F00000200146F9E72DE9F04D81EA030404F0F7
:100A0000004B21F0004514464FF0000A23F000414E
:100A100050EA050220D054EA01021DD0C5F30A575E
:100A20000246C5F31303C1F31300C1F30A5640F4A1
:100A3000801543F48013A7EB0608101BD64608F276
:100A4000FD3873EB050002D308F1010801E09218AC
:100A50005B41B8F1000F03DA00200146BDE8F08DDC
:100A600000204FF48011064684460EE0171B73EBFE
:100A7000050705D3121B63EB050306434CEA010C83
:100A800049084FEA300092185B4150EA0107EDD166
:100A900052EA030012D082EA040083EA0501084307
:100AA00005D0101BAB4106D20122002306E0002234
:100AB0004FF0004302E06FF0010253101AEB060002
:100AC0004CEB085110EB0A0041EB0B01BDE8F04D77
:100AD00000F0F0B9C1F30A52C1F3130140F2FF3341
:100AE00041F480119A4202DA00200146704740F238
:100AF00033439A42A2F2334202DC5242FFF710BE65
:100B0000FFF7FFBD30B5041E71F1000404DB4FF0A8
:100B10000044404264EB0101141E73F1000405DB44
:100B20001C464FF00043524263EB0403994208BF56
:100B3000904230BD064C074D06E0E06840F00103EE
:100B400094E8070098471034AC42F6D3FFF720FB37
:100B5000A0800008C0800008202A06DBCB17203ABE
:100B600041FA02F043EAE07306E041FA02F3D040B2
:100B7000C2F120029140084319467047C0B24FF4B9
:100B8000F05100F0F5B900002DE9F34F8BB04FF0B4
:100B9000000801F10C000C464FF0010B46460DF128
:100BA000080A0190626901210198904705002DD043
:100BB000252D2CD0216A8847C0B162690121019896
:100BC0009047216A88470028F7D1411E6269019841
:100BD000904700E0761CA1690B988847216A8847F6
:100BE0000028F7D1E1690B988847DBE7A1690B98EA
:100BF00088470746A84201D1761CD3E7E1690B98E4
:100C000088477F1C02D1B8F1000F6FD046E1002762
:100C100062693D463946019890472A2804D16269A5
:100C20000121019890470125DFF884926269012132
:100C300001989047A0F130010A290AD24F45E5DC1E
:100C400007EB870100EB4107303FDFD445F010058B
:100C5000ECE7E90601D46FF000476C280AD04C2875
:100C600014D0682815D06A280DD074281CD07A2892
:100C70001AD01DE062690121019890476C2802D0CA
:100C800045F0040514E045F002050DE045F02005AF
:100C90000AE06269012101989047682802D045F076
:100CA000080505E045F40065626901210198904757
:100CB000C4E9015765283DD019DC58287AD00CDCEE
:100CC000452837D004DC252826D0412831D131E011
:100CD00046282FD047282CD12CE05B2877D06128DC
:100CE00028D063287CD0642823D15AE0D0E06F2834
:100CF00048D008DC66281DD067281BD0692821D081
:100D00006E2816D127E0702845D0732868D0752842
:100D100047D078280DD14DE0A1690B98884705464A
:100D200025283FF469AFE1690B9888476D1C3FF4B3
:100D30006AAFB3E023466A466FF001000B99AFF348
:100D400000809EE045F040006060A80723464FF019
:100D5000000236D43EE0E8077FF447AF2068011D6B
:100D600021600068290501D506701BE7290701D518
:100D7000068017E7A90703D5F117C0E9006111E75D
:100D800006600FE745F040006060A80723464FF07B
:100D9000080216D41EE040F60E0125EA010060604C
:100DA00016E045F040006060A80723464FF00A02B5
:100DB00007D40FE045F040006060A80708D523463F
:100DC00010226FF001000B99FFF7C4FA59E007E019
:100DD000234610226FF001000B99FFF766FB50E0ED
:100DE0004FF000094F464B46632802D05B2806D0DF
:100DF00040E0E80601D40120A06001273AE06269E2
:100E00000121019890475E2805D14FF001096269E0
:100E1000494601989047216939B900210A4653464D
:100E200043F82120491C0829FADBB0B3216969B9CC
:100E3000C11700EBD16253110AEB830122F01F02AC
:100E4000821A01200B68904003430B606269012104
:100E5000019890475D28E8D1B9F1000F09D0002032
:100E6000514651F82020D24341F82020401C082848
:100E7000F7DB02AB224600976FF001000B99FFF7FA
:100E8000BAFB00280CDA401C08D1BBF1000F05D0DA
:100E90004FF0FF300DB0BDE8F08FFFE74046F9E7B7
:100EA000E90701D108F1010806444FF0000B79E68B
:100EB000CCCCCC0C10B5141E73F1000408DA401C25
:100EC00041F1000192185B411A4301D120F0010069
:100ED00010BD2DE9F04D92469B4611B1B1FA81F259
:100EE00002E0B0FA80F220329046FFF70AFC044696
:100EF0000F4640EA0A0041EA0B0153465A460843AE
:100F000013D0114653EA010019D0C8F140025046EF
:100F1000FFF706FC05460E46504659464246FFF787
:100F2000F0FB084305D0012004E020463946BDE827
:100F3000F08D0020054346EAE0762C4337430A98BB
:100F40006305E40AA0EB08000022FD0A44EA4754C6
:100F50000A3002D500200146E9E701051019694170
:100F6000DDE9084500196941BDE8F04DA2E7000040
:100F70007F2801D9002208E0064A02EB5002C00790
:100F8000127800D1120902F00F02012090400840AF
:100F9000704700006078000870B58C1810F8015B8D
:100FA00015F0070301D110F8013B2A1106D110F802
:100FB000012B03E010F8016B01F8016B5B1EF9D106
:100FC0002B0705D40023521E0DD401F8013BFAE78C
:100FD00010F8013BCB1A921C03E013F8015B01F8F7
:100FE000015B521EF9D5A142D8D3002070BD0FB4C9
:100FF00000B5C1B043A800904FF4807101A8009BD8
:10100000429A03F053FB0020009001A800F090FAF0
:1010100041B05DF814FB70B505460E4614462846EF
:1010200001F070FF3146204600F055FA4FF49670FB
:1010300005F0DEFB3146204600F04FFA4FF4967083
:1010400005F0D6FB3146204600F045FA4FF4967085
:1010500005F0CEFB3146204600F03FFA4FF4967083
:1010600005F0C6FB284600F03BFA70BD30B50146DE
:101070000C46226863680025B2F1005F04D30D4876
:10108000824201D2012506E0B2F1805F03D30A4813
:10109000824200D2012555B10848834207D3B3F1FB
:1010A000016F04D203F0010008B1012030BD00201F
:1010B000FCE700000000022000000110000004080E
:1010C0000748006840F08070054908600020054925
:1010D00048600846006840F0010008607047000062
:1010E000FCED00E0001000E02DE9F04105460C4663
:1010F0000026771E12E029461448FFF7C4F808B10D
:1011000000270CE00A2005F073FB761C0A2094FBF4
:10111000F0F0B04202DA4FF0FF3700E0EBE700BF3B
:101120000FB90BA000E00CA00246234629460CA0F4
:10113000FFF75DFF0020164908704FF40061034877
:10114000FFF796F83846BDE8F08100005C470020C4
:10115000E68890E58A9F0000E8B685E697B600002D
:101160005B41545D20E69C9FE5BE853A27257327A9
:10117000207C20E7BB93E69E9C3A25732028E8B6A6
:1011800085E697B63D25646D73290D0A00000000C1
:101190006300002070B5054600240CE0295D094875
:1011A00002F01FFB00BF8021064802F04EFA002823
:1011B000F9D0601CC4B22846FFF78DF8A042EDD8E4
:1011C00070BD00000048004070B504460A46002685
:1011D000092502B909E0012A01D1160205E0022A17
:1011E00001D1160201E04FF4407600F0C5F8054643
:1011F000092D28D11548006820F440701349086073
:1012000008460068304308600846006820F0F8008F
:1012100008600846006844F0020108430B49086072
:101220000846006840F48030086000F0A5F80546E4
:101230000648006820F0020004490860084600687B
:1012400020F0F8000860284670BD0000103C024005
:1012500009201349096801F48031B1F5803F01D1BB
:1012600001201CE00E49096801F0100109B10620B7
:1012700015E00B49096801F4807109B102200EE004
:101280000749096801F0EF0109B1072007E00449A7
:10129000096801F0020109B1082000E00920704747
:1012A0000C3C02400348006840F0004001490860DF
:1012B00070470000103C024030B502460C4609253C
:1012C00000F05AF80546092D17D10D48006820F4A2
:1012D00040700B49086008460068086008460068CE
:1012E00040F001000860147000F046F8054604481C
:1012F000006820F0010002490860284630BD000067
:10130000103C024030B502460C46092500F034F886
:101310000546092D19D10E48006820F440700C498B
:1013200008600846006840F480700860084600685D
:1013300040F001000860148000F01EF805460448E3
:10134000006820F0010002490860284630BD000016
:10135000103C02400548006800F0004028B10448F5
:1013600002490C390860034808607047103C02408D
:1013700023016745AB89EFCD08B509200090FFF741
:1013800067FF009002E0FFF763FF00909DF8000008
:101390000128F8D09DF8000008BD00001CB501210F
:1013A000202001F00BFD0121102001F007FD4FF47A
:1013B000C060009001208DF8040000208DF8060028
:1013C0008DF8070003208DF8050069460A4800F0F3
:1013D00017F84FF4C04000906946084800F010F834
:1013E0004FF4C061044800F078F84FF4C04103485E
:1013F00000F073F81CBD0000001402400010024011
:10140000F0B50A4600210023002400BF3DE001257D
:1014100005FA01F3156805EA03049C4234D1056816
:101420004F000326BE40B543056015794E00B54018
:101430000668354305601579012D02D01579022D16
:1014400016D185684F000326BE40B54385605579A7
:101450004E00B540866835438560456801268E405C
:10146000B5434560456896798E40B6B235434560D0
:10147000C5684F000326BE40B543C560D5794E0010
:10148000B540C6683543C560491C1029BFD3F0BDBF
:10149000F0B5002300244D07ED0E02FA05F3CE103F
:1014A00000F1200555F826504E07F70E0F26BE40D6
:1014B000B543CF1000F1200646F82750CE1000F1BA
:1014C000200555F8265045EA0304CE1000F120050A
:1014D00045F82640F0BD4183704701837047000006
:1014E00070B50446254672B600204FF0E021086131
:1014F0004861886100BF08E04FF0FF32094941F8B8
:101500002020094941F82020401C0828F4D307482E
:101510000460286880F3088800BF62B66E68B04730
:1015200070BD000080E100E080E200E008ED00E036
:1015300070B505462846FEF7CEFEC6B200240CE084
:10154000295D074802F04DF900BF8021044802F0F0
:101550007CF80028F9D0601CC4B2B442F0DB70BD46
:101560000044004070B5002100230F22C4781CB352
:10157000174C246804F4E064C4F5E064C4F3072164
:10158000C1F10404E3B20A4144789C40E1B284789A
:10159000144021430C07210E0E4C05786155047848
:1015A00004F01F050124AC4005786D11AD0005F174
:1015B000E025C5F8004109E0047804F01F05012486
:1015C000AC40054D0678761145F8264070BD000008
:1015D0000CED00E000E400E080E100E070B50024E4
:1015E00018E004F1B000002100F039FA00210846AB
:1015F00000F035FA0021102000F031FA002505E056
:101600000121002000F02BFA681CC5B2802DF7DB09
:10161000601CC4B2082CE4DB70BD2DE9F05F054608
:101620000E4617469846DDF828A0BAF1000F01D003
:10163000FF2000E000208346344611E02146284682
:1016400000F056F9A94607E00121584600F007FAD4
:1016500009F1010000F0FF09B945F5DD601CC4B2D5
:101660004445EBDDBDE8F09F1CB501210A2001F0E7
:10167000A5FB4FF40040009001208DF804000020ED
:101680008DF8060002208DF8050001208DF8070076
:1016900069463D48FFF7B4FE4FF48060009069460C
:1016A0003A48FFF7ADFEC82005F0A2F80021AE20B1
:1016B00000F0D5F90021084600F0D1F900211020F2
:1016C00000F0CDF90021402000F0C9F90021B02040
:1016D00000F0C5F90021812000F0C1F90021FF20B0
:1016E00000F0BDF90021A12000F0B9F90021A620E9
:1016F00000F0B5F90021A82000F0B1F900213F2049
:1017000000F0ADF90021C82000F0A9F90021D32094
:1017100000F0A5F90021084600F0A1F90021D5202C
:1017200000F09DF90021802000F099F90021D820D7
:1017300000F095F90021052000F091F90021D92051
:1017400000F08DF90021F12000F089F90021DA2064
:1017500000F085F90021122000F081F90021DB2042
:1017600000F07DF90021302000F079F900218D2072
:1017700000F075F90021142000F071F90021AF206C
:1017800000F06DF91CBD000000040240000C024096
:1017900070B5002414E02146502000F0A9F800257F
:1017A0000AE004EB440105EB0111074A505C0121FA
:1017B00000F055F9681CC5B2302DF2DB601CC4B2D4
:1017C000062CE8DB70BD00004077000838B5044601
:1017D0000C48047001200C49087000200B49087067
:1017E0000B4908600B49086002F0C0F802F09AFE4D
:1017F000002006237F2219460090FFF70EFFFFF717
:10180000C7FF38BD2C1100202D1100202E11002003
:10181000301100203411002070B504460D462946D1
:10182000204602F00FF870BD70B504460D4616460E
:1018300006480470064804700648056006480660BD
:1018400002F070FE02F008FE70BD00002D110020B5
:101850002E110020301100203411002038B504462C
:101860000A480078A0420ED0084804704FF0FF30BC
:101870000749086007490860002006237F221946AF
:101880000090FFF7CAFE02F04DFE38BD2D1100207A
:101890003C1100204011002010B5FFF79FFE0020F2
:1018A000124908703C220321082000F035F83D223F
:1018B0000321182000F030F83E220321282000F0F8
:1018C0002BF83F220321382000F026F84022032184
:1018D000482000F021F841220321582000F01CF894
:1018E00042220321682000F017F810BD2B110020C0
:1018F00070B504460D4605F1B000002100F0AFF8C8
:10190000102141EA1410002100F0A9F804F00F00A2
:10191000002100F0A4F870BD2DE9F04180460E468C
:101920001546002731464046FFF7E2FF00240AE053
:10193000124A02EB8511085D012100F090F8781C35
:10194000C7B2601CC4B2102CF2DB701CC1B240469E
:10195000FFF7CEFF00240CE06900491C074A02EBA8
:101960004111085D012100F07AF8781CC7B2601CB3
:10197000C4B2102CF0DBBDE8F0810000680000204C
:101980002DE9F04707460E4690469946002500246B
:10199000A8F12000C5B27F2F02DD0027B01CC6B21F
:1019A000B9F1100F24D131463846FFF7A1FF0024CA
:1019B00008E004EB0511194A505C012100F04FF8D2
:1019C000601CC4B2082CF4DB701CC1B23846FFF7AF
:1019D0008FFF002409E004EB051108310F4A505C29
:1019E000012100F03CF8601CC4B2082CF3DB12E0CB
:1019F00031463846FFF77CFF00240AE005EB45013D
:101A0000074A02EB4101085D012100F028F8601C43
:101A1000C4B2062CF2DBBDE8F0870000507100086C
:101A2000286F00082DE9F04104460F4615469846F8
:101A300000260FE0AA5D434639462046FFF7A0FF87
:101A400004F10800C4B2782C02DD0024B81CC7B22F
:101A5000701CC6B2A85D0028ECD1BDE8F08170B55D
:101A600004460D461DB1E0B201F0D5FE02E0E0B241
:101A700001F0BBFE70BD00002DE9F05FADF5015D2A
:101A80009A4801680B919A490B98884207D1994C62
:101A9000A0F1020A214698A0FFF7A9FA29E094498B
:101AA000491C0B98884207D1A34CA0F1020A214699
:101AB000A2A0FFF79CFA1CE08C48001D00680DF501
:101AC0000051C863C86BAD49884209D1894CDFF821
:101AD00020A2AAF1020A2146A9A0FFF788FA08E08D
:101AE000954CDFF80CA2AAF1010A2146B448FFF791
:101AF0007EFA052242F234016944002005F0B2F971
:101B00000522B0A142F234006844FEF7EBFB38B97D
:101B1000AE48D0F800804146ADA0FFF768FA04E077
:101B20004FF00008B7A0FFF762FAC04800684045D0
:101B30000BD84246BD480168BDA0FFF758FA4FF0E8
:101B4000FF300DF5015DBDE8F09FB8480068A0EBDF
:101B5000080722463946C4A0FFF749FAD0A0FFF78C
:101B600046FAFFF7F7FB634884421DD1D9A0FFF77F
:101B70003EFA02213020FFF727FB092800D023E39B
:101B8000DDA0FFF734FA02213820FFF71DFB0928FA
:101B900000D019E3E1A0FFF72AFA02214020FFF765
:101BA00013FB09281ED00FE3E5A0FFF720FA02215E
:101BB0004820FFF709FB092800D005E3E9A0FFF75B
:101BC00016FA02215020FFF7FFFA092800D0FBE2A5
:101BD000EDA0FFF70CFA02215820FFF7F5FA0928CB
:101BE00000D0F1E2F1A0FFF702FAF7A0FFF7FFF94A
:101BF00000256DE0781BB0F5805F02D94FF480506E
:101C000000E0781B0A900A9820F0010B0A998AB22A
:101C100008EB050041F23401694405F023F9002680
:101C200020E041F234006844815D0246701C105C83
:101C300041EA00210991611988190999FFF762FBAE
:101C400009280ED060198119EAA0FFF7D0F9002207
:101C50000A210520FFF7E8FDFFF724FB4FF0FF30D6
:101C60006FE7B61C5E45DCD30A9883451BD241F270
:101C700034026A4412F80B10621902EB0B00FFF7F2
:101C80001BFB09280FD0601900EB0B01E5A0FFF743
:101C9000AEF900220A210520FFF7C6FDFFF702FB7F
:101CA0004FF0FF304DE70A98054439462846FFF7C4
:101CB000B3FDC5F30C0050B964206843B0FBF7F1E5
:101CC0000B463A4609912946E3A0FFF790F900BF79
:101CD000BD428FD32946EAA0FFF789F9F2A0FFF7AA
:101CE00086F94FF0000900200C9035E250280040A2
:101CF0000300A5A5000004085B4F54412D464C414C
:101D000053485D20424B5030523D4F54415F555037
:101D100047524144455F412C20E5B086E58699E570
:101D200085A541E58886E58CBA20283078253038AD
:101D300058290D0A0000000000000A085B4F5441BA
:101D40002D464C4153485D20424B5030523D4F543C
:101D5000415F555047524144455F422C20E5B086D3
:101D6000E58699E585A542E58886E58CBA20283088
:101D70007825303858290D0A0000000002005A5A10
:101D80005B4F54412D464C4153485D20E4B88AE6F0
:101D9000ACA1E8BF90E8A18C4228424B50315229B7
:101DA0002C20E5B086E58699E585A541E58886E5A0
:101DB0008CBA2028307825303858290D0A000000C8
:101DC000B4790008485454502F0000004C00002003
:101DD0005B4F54412D464C4153485D20E6A380E6BD
:101DE000B58BE588B048545450E5A4B42C20E59B4D
:101DF000BAE4BBB6E5818FE7A7BB3D256C750D0A3C
:101E0000000000005B4F54412D464C4153485D207B
:101E1000E697A048545450E5A4B42C20E7BAAF622A
:101E2000696EE69687E4BBB60D0A000054000020F8
:101E30005B4F54412D464C4153485D20E99499E84D
:101E4000AFAF3A20E68EA5E694B6E695B0E68DAE45
:101E500028256C7529203C3D2048545450E5A4B4F5
:101E600028256C75290D0A005B4F54412D464C41C5
:101E700053485D20E59BBAE4BBB6E5A4A7E5B08F67
:101E80003D256C7520E5AD97E88A822C20E79BAE56
:101E9000E6A0873D3078253038580D0A0000000054
:101EA0005B4F54412D464C4153485D20E8A7A3E9C0
:101EB0009481E58685E983A8466C6173682C20E5EA
:101EC000BC80E5A78BE693A6E999A42E2E2E0D0AD9
:101ED000000000005B4F54412D464C4153485D20AB
:101EE000E693A6E999A420536563746F7220362E99
:101EF0002E2E0D0A000000005B4F54412D464C4130
:101F000053485D20E693A6E999A420536563746F56
:101F10007220372E2E2E0D0A000000005B4F544118
:101F20002D464C4153485D20E693A6E999A42053E1
:101F30006563746F7220382E2E2E0D0A000000008B
:101F40005B4F54412D464C4153485D20E693A6E932
:101F500099A420536563746F7220392E2E2E0D0ABA
:101F6000000000005B4F54412D464C4153485D201A
:101F7000E693A6E999A420536563746F722031300B
:101F80002E2E2E0D0A0000005B4F54412D464C4171
:101F900053485D20E693A6E999A420536563746FC6
:101FA000722031312E2E2E0D0A0000005B4F54415D
:101FB0002D464C4153485D20E693A6E999A4E5AE31
:101FC0008CE688900D0A00005B4F54412D464C4131
:101FD00053485D20E5BC80E5A78BE58699E585A59E
:101FE000E58685E983A8466C6173682E2E2E0D0A5E
:101FF000000000005B4F54412D464C4153485D208A
:10200000E99499E8AFAF3A20466C617368E7BC96F3
:10201000E7A88BE5A4B1E8B4A52040307825303896
:10202000580D0A005B4F54412D464C4153485D20EA
:10203000E99499E8AFAF3A20E69CABE5AD97E88A22
:1020400082E7BC96E7A88BE5A4B1E8B4A5204030B0
:1020500078253038580D0A005B4F54412D464C41CD
:1020600053485D20E8BF9BE5BAA63A20256C752F42
:10207000256C75202825642525290D0A00000000FF
:102080005B4F54412D464C4153485D20E58699E510
:1020900085A5E5AE8CE688903A20256C7520E5ADE7
:1020A00097E88A820D0A00005B4F54412D464C414F
:1020B00053485D20E5BC80E5A78BE6A0A1E9AA8C8A
:1020C00020286D656D636D7020726561642D62619D
:1020D000636B292E2E2E0D0A00000000A7EB0900CD
:1020E000B0F5805F02D94FF4805001E0A7EB090002
:1020F00083461FFA8BF208EB09000DA904F0B2FE2B
:1021000004EB09015A460DA8FEF7ECF810B30121C3
:102110000C9104EB090133A0FEF769FF002614E0DF
:1021200004EB0900815D0A910DA9895D0A9881423D
:1021300001D137A000E037A000900DA8825D3146A4
:1021400036A00A9BFEF753FF761C102E01DA5E457F
:10215000E6D303E0D94400BFB945BFD300BF0C9814
:1021600060B13AA0FEF743FF00220B210520FFF7E4
:102170005BFBFFF797F84FF0FF30E2E449463DA0E4
:10218000FEF735FFFFF78EF82246514645A0FEF7D1
:102190002EFF5448C0F800A039463846FFF73CFBF4
:1021A000002211460420FFF73FFB40F2DC5004F010
:1021B0001FFB4DA0FEF71BFF322004F019FB554812
:1021C0005549086000BFFEE754A0FEF710FF00224B
:1021D00009210520FFF728FBFFF764F84FF0FF30D7
:1021E000AFE400005B4F54412D464C4153485D2005
:1021F000E99499E8AFAF3A20E6A0A1E9AA8CE5A45A
:10220000B1E8B4A520403078253038580D0A0000D8
:102210004F4B000044494646000000005B4F5441CC
:102220002D464C4153485D2020205B25645D20579E
:102230003235513D2530325820767320466C61731B
:10224000683D253032582025730D0A005B4F5441FC
:102250002D464C4153485D20E6A0A1E9AA8CE5A497
:10226000B1E8B4A52C204F5441E7BB88E6ADA20DE0
:102270000A0000005B4F54412D464C4153485D20FD
:10228000E6A0A1E9AA8CE9809AE8BF873A20256CEC
:102290007520E5AD97E88A82E58CB9E9858D0D0A50
:1022A000000000005B4F54412D464C4153485D20D7
:1022B000E8AEBEE7BDAE20424B5030523D307825EF
:1022C0003038582C20E58786E5A487E5A48DE4BD49
:1022D0008DE8B7B3E8BDACE588B030782530385824
:1022E0000D0A0000502800405B4F54412D464C41E0
:1022F00053485D203D3D3D20E8A7A6E58F91E7B31B
:10230000BBE7BB9FE5A48DE4BD8D203D3D3D0D0A9F
:10231000000000000400FA050CED00E05B4F5441A2
:102320002D464C4153485D20E99499E8AFAF3A20DF
:10233000E68987E58CBAE693A6E999A4E5A4B1E815
:10234000B4A50D0A000000002DE9F84304460D462F
:102350001646B4F5801F0FD3270DC4F313004FF4B6
:10236000CC31B0FBF1F83B460CA231462846CDF803
:10237000008002F073F90FE0B4F5806F06D3A30A72
:1023800009A23146284602F069F905E0234608A271
:102390003146284602F062F9BDE8F883256C752EB7
:1023A000256C754D42000000256C754B4200000005
:1023B000256C7542000000002DE9F041F4B086A0C4
:1023C000FEF715FE0120FFF749FA90A0FEF70FFE79
:1023D00001F07AFD60B196A0FEF709FE002201210E
:1023E0000520FFF721FA4FF0FF3074B0BDE8F0810F
:1023F00064211420FFF710FA9AA0FEF7F8FDA74A0F
:10240000A7A1ABA0FEF7F3FD64211920FFF704FAA2
:10241000002041F288314FF48062AC4BCDE90021BD
:1024200002909E4A50219EA001F034FB044654B114
:10243000A7A0FEF7DCFD002203210520FFF7F4F939
:102440004FF0FF30D1E764213720FFF7E5F99F48CF
:10245000FDF741FF05462946A7A0FEF7C8FD00206D
:102460009A4981F8FF030846FDF735FF0746002526
:10247000A84618E07E1BC82E00DDC82693484119E7
:10248000324601A8FDF7CDFE002001A9885501AA1A
:102490004146A6A0FEF7ABFD354408F10108322005
:1024A00004F0A6F900BFBD42E4DB4146A3A0FEF75D
:1024B0009EFD64214120FFF7AFF9A9A0FEF797FD2B
:1024C0007B218248FDF7FDFE054655B9ACA0FEF71D
:1024D0008EFD002204210520FFF7A6F94FF0FF3002
:1024E00083E77A48291AB2A0FEF781FD34A928466D
:1024F00001F05EFE60B13DAAB7A03499FEF777FD0A
:10250000002204210520FFF78FF94FF0FF306CE720
:1025100064214B20FFF780F935AABCA03499FEF75F
:1025200066FD71997098CDE90001BFA06E9A65991A
:10253000FEF75DFD66A9C6A0FEF759FD3DA9C9A03D
:10254000FEF755FD0020339033A801F051FA002822
:102550001AD1C9A0659A3399FEF749FD65980028FC
:102560000EDD3399659888420AD8D048FEF73FFDC2
:10257000FFF792F9032004F047F94FF0FF3034E7FA
:10258000CBA0FEF734FD02E0D648FEF730FD642113
:102590000846FFF741F90220FFF760F9D2A0FEF7E5
:1025A00026FD3DA802F0FEFC044654B1DEA0FEF775
:1025B0001EFD002206210520FFF736F94FF0FF30FF
:1025C00013E7E8A0FEF713FDF3A06E99FEF70FFDE9
:1025D000FC480168F8E100000D0A3D3D3D3D3D3DF0
:1025E0003D3D205B4F54415D20E59BBAE4BBB6E620
:1025F0009FA5E8AFA2E4B88EE4B88BE8BDBD203D4E
:102600003D3D3D3D3D3D3D0D0A0000005B4F5441C9
:102610005D20E6ADA5E9AAA4313A20E5889DE5A7AD
:102620008BE58C9620455350383236360D0A000023
:102630005B4F54415D20E99499E8AFAF3A20455390
:10264000503832363620E5889DE5A78BE58C96E537
:10265000A4B1E8B4A52C20E7BB88E6ADA2204F5476
:10266000410D0A005B4F54415D20E6ADA5E9AAA4E7
:10267000323A204854545020E69FA5E8AFA2E59B8B
:10268000BAE4BBB6E78988E69CAC202862656D6633
:102690006120415049290D0A00000000A47F000874
:1026A000617069732E62656D66612E636F6D0000E7
:1026B0005B4F54415D20202055524C3A2068747481
:1026C000703A2F2F257325730D0A00005C550020EA
:1026D0005B4F54415D20E99499E8AFAF3A20E5851E
:1026E00083E695B0E68DAEE8AFB7E6B182E5A4B17A
:1026F000E8B4A55C720A00005B4F54415D202020C5
:10270000E5AE8CE695B4E5938DE5BA942028256472
:1027100020E5AD97E88A82292C20E58886E6AEB5CB
:10272000E68993E58DB03A0D0A0000005B7365679A
:1027300025645D2025730D0A000000005B4F5441A5
:102740005D202020E68993E58DB0E5AE8CE688908B
:102750002C20E585B120256420E6AEB55C720A0028
:102760005B4F54415D20E6ADA5E9AAA4333A20E8C9
:10277000A7A3E69E90204A534F4E0D0A000000008A
:102780005B4F54415D20E99499E8AFAF3A20E69C55
:10279000AAE689BEE588B0204A534F4E20E8B5B777
:1027A000E5A78BE7ACA620277B270D0A00000000D9
:1027B0005B4F54415D2020204A534F4E20E8B5B76F
:1027C000E5A78BE5818FE7A7BB3A20256420E5AD1F
:1027D00097E88A820D0A00005B4F54415D20E9941E
:1027E00099E8AFAF3A204A534F4E20E8A7A3E69EA0
:1027F00090E5A4B1E8B4A52028636F64653D256425
:102800002075726C3D2573290D0A00005B4F544101
:102810005D202020636F64653D2564206D73673DF6
:1028200025730D0A000000005B4F54415D202020FD
:1028300076657273696F6E3D25642073697A653DB4
:10284000256C7520756E69783D256C6C750D0A00D8
:102850005B4F54415D2020207461673D25730D0A54
:10286000000000005B4F54415D20202075726C3DDC
:1028700025730D0A000000005B4F54415D20E5BD4B
:1028800093E5898D415050E78988E69CAC3A202534
:102890006C752C20E69C8DE58AA1E599A8E78988CE
:1028A000E69CAC3A2025640D0A000000587F000821
:1028B0005B4F54415D20E69C8DE58AA1E599A8E730
:1028C0008988E69CACE8BE83E696B02C20E7BBA7DF
:1028D000E7BBADE58D87E7BAA7E6B581E7A88B0D25
:1028E0000A000000147F00085B4F54415D20E6ADF4
:1028F000A5E9AAA4343A20E4B88BE8BDBDE59BBAAB
:10290000E4BBB62028E4BB8EE58583E695B0E68D72
:10291000AE55524CE58699E585A557323551313291
:1029200038290D0A000000005B4F54415D20E994F6
:1029300099E8AFAF3A20E59BBAE4BBB6E4B88BE8C0
:10294000BDBDE588B0205732355131323820E5A47D
:10295000B1E8B4A52C204F544120E7BB88E6ADA2D6
:102960000D0A00005B4F54415D20E6ADA5E9AAA425
:10297000353A20E6A0A1E9AA8CE58583E695B0E684
:102980008DAE20767320E5AE9EE99985E4B88BE89C
:10299000BDBD0D0A000000005B4F54415D202020AA
:1029A000E58583E695B0E68DAEE5A3B0E6988E208A
:1029B00073697A653D256C7520E5AD97E88A820DCF
:1029C0000A0000005000002026A0FEF710FB30484F
:1029D000016830A0FEF70BFB2D4800683A4A1268E8
:1029E000811A394802683948FEF701FB6E9890B1A8
:1029F0002748006834490968401A6E9988420AD00D
:102A000023480068304A1268801A6E9A811A30484A
:102A1000FEF7EDFA02E02FA0FEF7E9FA3748FEF7DD
:102A2000E6FA66A936A0659AFEF7E1FA184800684A
:102A300025490968421A244801683D48FEF7D7FA3B
:102A40003CA0FEF7D4FA0320FEF708FFFFF714F8C6
:102A500004462CB147A0FEF7CAFA4FF0FF30C4E499
:102A60000020C2E45B4F54415D2020204854545064
:102A700020436F6E74656E742D4C656E6774683D8F
:102A8000256C7520E5AD97E88A820D0A00000000EC
:102A9000540000205B4F54415D20202057323551B7
:102AA00031323820E680BBE58699E585A53D256C69
:102AB0007520E5AD97E88A822028E590AB4854540C
:102AC00050E5A4B4290D0A004C000020947A0008B7
:102AD000447A00085B4F54415D202020E6A0A1E924
:102AE000AA8CE9809AE8BF873A20E5A4A7E5B08FD1
:102AF000E58CB9E9858D0D0A00000000287D0008ED
:102B00005B4F54415D202020E59BBAE4BBB6E789CA
:102B100088E69CACE58FB7287461672B7665727385
:102B2000696F6E293A2025735F5625640D0A0000EF
:102B3000D07E00085B4F54415D202020E5BC80E53D
:102B4000A78BE690ACE8BF903A20E4BB8E573235B5
:102B500051313238E58699E585A5E58685E983A872
:102B6000466C617368E5B9B6E8B7B3E8BDAC5C72B2
:102B70000A0000005B4F54415D20E99499E8AFAF33
:102B80003A20E690ACE8BF90E588B0E58685E98319
:102B9000A8466C617368E5A4B1E8B4A52C204F5435
:102BA0004120E7BB88E6ADA20D0A000010B588B051
:102BB00004460121084600F001F90121480400F013
:102BC0000DF9072202212248FEF762FC07220321A9
:102BD0001F48FEF75DFC0C20069002208DF81C00BB
:102BE00000208DF81E0003208DF81D0001208DF8B7
:102BF0001F0006A91648FEF703FC02940C20ADF84E
:102C000012000020ADF81000ADF80E00ADF80C0079
:102C1000ADF8140002A90F4800F074FD26208DF8CD
:102C2000040001208DF805008DF806008DF80700DE
:102C300001A8FEF797FC012240F22551054800F05B
:102C40003BFD0121034800F0F4FC08B010BD00007A
:102C5000000002400044004010B588B00446012145
:102C6000102000F0CBF80121084600F0A7F8072259
:102C700009212248FEF70CFC07220A211F48FEF713
:102C800007FC4FF4C060069002208DF81C00002065
:102C90008DF81F008DF81E0003208DF81D0006A979
:102CA0001648FEF7ADFB02940020ADF80C00ADF81D
:102CB00010000C20ADF812000020ADF80E00ADF8A9
:102CC000140002A90E4800F01DFD25208DF8040017
:102CD00001208DF805008DF806008DF8070001A889
:102CE000FEF740FC012240F22551054800F0E4FCCB
:102CF0000121034800F09DFC08B010BD0000024017
:102D00000010014010B588B004460121022000F0F7
:102D100055F80121880400F061F84FF440600690F6
:102D200002208DF81C0000208DF81E0003208DF875
:102D30001D0000208DF81F0006A91B48FEF760FB50
:102D400007220A211848FEF7A3FB07220B21164889
:102D5000FEF79EFB02940C20ADF812000020ADF8A7
:102D60001000ADF80E00ADF80C00ADF8140002A98B
:102D70000E4800F0C7FC27208DF8040001208DF8D4
:102D800005008DF806008DF8070001A8FEF7EAFBA4
:102D9000012240F22551054800F08EFC0121034834
:102DA00000F047FC08B010BD00040240004800409D
:102DB000014908627047000000000E4229B1064A2E
:102DC00012680243044B1A6004E0034A126882430B
:102DD000014B1A60704700003038024029B1064AA2
:102DE00012680243044B1A6004E0034A12688243EB
:102DF000014B1A60704700004038024029B1064A72
:102E000012680243044B1A6004E0034A12688243CA
:102E1000014B1A607047000044380240F0B50021B1
:102E200000220024022500260223324F3F6807F0CB
:102E30000C0121B1042905D0082937D105E02E4F16
:102E4000076036E02D4F076033E02A4F3F1F3F6891
:102E5000C7F38056274F3F1F3F6807F03F036EB10F
:102E6000264FB7FBF3F7DFF88CC0ACF1040CDCF8AD
:102E700000C0CCF3881C07FB0CF40CE01E4FB7FB22
:102E8000F3F7DFF870C0ACF1040CDCF800C0CCF351
:102E9000881C07FB0CF4174F3F1F3F68C7F301471F
:102EA0007F1C7D00B4FBF5F7076002E0124F07605E
:102EB00000BF00BF0F4F3F6807F0F0010909104F36
:102EC0007A5C0768D74047600A4F3F6807F4E051D3
:102ED000890A0B4F7A5C4768D7408760054F3F6887
:102EE00007F46041490B064F7A5C4768D740C760DA
:102EF000F0BD0000083802400024F40000127A00FF
:102F00005411002010B504460120FFF751FF054879
:102F1000844201D1044801E00348401C0349086091
:102F200010BD00000000040801005A5A5428004057
:102F30000CB50020019000903448006840F48030C7
:102F40003249086000BF3148006800F4003000904A
:102F50000198401C0190009818B90198B0F5A04F55
:102F6000F1D12A48006800F4003010B1012000902F
:102F700001E0002000900098012846D1234840300D
:102F8000006840F0805021494031086020480068C6
:102F900040F440401E4908601C48083000681B4946
:102FA000083108600846006840F4004008600846A0
:102FB000006840F4A05008601648091F0860081F08
:102FC000006840F08070091F086000BF0F4800686B
:102FD00000F000700028F9D040F205700E4908603A
:102FE0000A480830006820F00300084908310860EA
:102FF0000846006840F00200086000BF034808303F
:10300000006800F00C000828F8D10CBD0038024020
:103010000070004019544007003C024070B505465E
:1030200000240026072421E00120A040284018B1F8
:1030300001201049086002E000200E4908600120CC
:103040000C490839086003F0EBFB0B48D0F810027C
:10305000012802D1A0403043C6B2002005490839FA
:103060000860012003F0DCFB601E44B2002CDBDAB8
:10307000304670BD948240420080404210B51548F1
:10308000006840F47000134908601348006840F07D
:1030900001001149086000200F49083108600E48FE
:1030A00000680E4908400C4908600D48091D086079
:1030B000081F006820F48020091F086000200649CE
:1030C0000C310860FFF734FF4FF000600149803990
:1030D000086010BD88ED00E000380240FFFFF6FEFA
:1030E0001030002410B540F225511C4800F0BAFA07
:1030F00098B340F22551194800F08CFA174800F0B7
:103100006BFB17490880084600880A280AD0084641
:103110000178144802780078401C124B187012484D
:1031200081541AE000210F480078401E0E4A1154C5
:1031300032210E48FDF79CF80A480078421E0A49E1
:103140000A48FDF7B2F832210748FDF791F8002050
:103150000449087001200649087010BD00100140A4
:103160006000002066000020AA460020784600206B
:103170005E00002010B540F22551284800F072FA98
:1031800001284AD1254800F027FBC4B22448007822
:10319000401C234908700A2C2AD1224800780028B4
:1031A0001EDD20480078401E1F49085C0D2806D10E
:1031B00000211C480078401E1B4A115404E00021E5
:1031C0001948184A127881543F2217491748FDF7C9
:1031D0006CF80020154981F83F000120144908705F
:1031E00040211148FDF744F800200E49087013E013
:1031F0000C4800783F2808D20A4801780078401C23
:10320000084A10700848445406E040210648FDF77B
:103210002FF800200349087000BF10BD0044004093
:103220006200002067000020DC4600201C470020D0
:103230000000002010B540F22551D24800F012FAEB
:10324000012871D140F22551CE4800F0E3F9CD4874
:1032500000F0C2FAC4B2CC480078002874D0CB4841
:10326000007830B1012813D002285ED003286CD139
:103270009BE02B2C06D10020C54908700120C349D2
:10328000087004E0C3480068401CC249086007E1B8
:10329000BF48007870B9492C03D10120BC4908709F
:1032A00041E0BD480068401CBB4908600020B749A8
:1032B000087038E0B648007801280ED1502C03D1B0
:1032C0000220B34908702EE0B3480068401CB249A0
:1032D00008600020AD49087025E0AD48007802285C
:1032E0000ED1442C03D10320A94908701BE0AA4841
:1032F0000068401CA84908600020A449087012E03A
:103300002C2C08D10020A5490860A549086002209E
:103310009E49087007E0A0480068401C9E4908606C
:1033200000209A490870BBE01FE1302C0EDB392CDD
:103330000CDCA4F130009949096801EB810100EB34
:103340004100964908602FE0ACE0A5E03A2C23D17B
:103350009248006840B993480068401C9149086051
:1033600000208A4908701FE08C4800688E4909686F
:10337000884203D9894800688B49086087480068FB
:103380008A490968884203D28448006887490860EE
:1033900003207E49087007E085480068401C844986
:1033A00008600020794908707AE082490888411C49
:1033B000804A1180804909680C5480480068401C8C
:1033C0007E49086076480068401C754908601046D0
:1033D0000088B0F5805F50D3002077490968784AAB
:1033E000914212D10121774A11707749097821B9A8
:1033F0007649714A1160012031E07549097831BB85
:1034000074496D4A1160012029E06B4909686F4ACF
:10341000914212D101216C4A11706D49097821B98C
:103420006C49654A1160012019E06649097871B953
:103430006349614A1160012011E00121644A117061
:103440006049097821B95E495B4A1160012006E0B4
:103450005D49097819B95D49574A1160012018B1D1
:103460000021544A118007E05B490968491C5A4A07
:10347000116000214F4A118000BF49480068474948
:103480000968884207D355480068401C53490860C2
:1034900000203E49087003E000203C49087000BF4E
:1034A00000BF10BD4E48007840F2FF7188420CDA30
:1034B0004B4801780078401C494A107049484454F0
:1034C00000204849127888540AE0002044490870D6
:1034D0004448047000204349487001204049087066
:1034E0000A2C36D140480078002829DD3E48007873
:1034F000401E3E49085C0D2806D100213A4800785C
:10350000401E3A4A115404E000203849364A1278E5
:10351000885437A13548FCF7B6FE88B136A1334848
:10352000FCF7B1FE60B936A13048FCF7ACFE38B903
:10353000FF222E493548FCF7B8FE012034490870B7
:103540004FF480712948FCF793FE0020264908704B
:103550000BE025480078FF2807D22348017800783F
:10356000401C214A1070214844540821054800F0AD
:103570006CF820B1034800880248001D008800BF95
:103580008FE7000000480040010000201C000020E0
:10359000280000203C0000203000002020000020F7
:1035A00024000020380000204000002044000020BB
:1035B0003400002008000020040000201400002037
:1035C000781100200A0000200B0000207821002044
:1035D0000C00002078310020180000202C00002072
:1035E000630000205C470020650000205C50002044
:1035F0006D73673D000000006D73673D4F4B000029
:103600006D73673D4641494C000000005C4F00204F
:103610006400002010B50022002340F66A14A14285
:1036200000D100BF0A1201249440A3B2DC430480FD
:1036300010BD21B1828942F40052828104E0828966
:103640004DF6FF731A408281704702460020B1F5A3
:10365000007F00D100BF13880B400BB1012000E0B8
:103660000020704770B5024600240023002500208A
:1036700040F66A16B14200D100BFC1F3421501F015
:103680001F03012606FA03F3012D02D19689334068
:1036900006E0022D02D1168A334001E0968A3340BB
:1036A0000C12012606FA04F41688344013B10CB14A
:1036B000012000E0002070BDF0B503460024002684
:1036C0000025002040F66A17B94200D100BF184615
:1036D000C1F3421401F01F06012707FA06F5012C79
:1036E00001D10C3004E0022C01D1103000E0143084
:1036F0001AB107682F43076002E00768AF4307600D
:10370000F0BD00002DE9FF4705460E460024A14606
:1037100000BFA046B08900B100BF2C8A24F44054F9
:10372000F08804432C82AC8941F20C608443B08859
:1037300031890843718908430443AC81AC8A24F47D
:103740004074B0890443AC826846FFF767FB2048A9
:10375000854202D01F48854202D1DDF80C9001E07D
:10376000DDF80890A88900F4004040B109EBC900D9
:1037700000EB091031684900B0FBF1F707E009EBF5
:10378000C90000EB091031688900B0FBF1F7642033
:10379000B7FBF0F004012009642101FB1078A8892F
:1037A00000F4004040B1322000EBC800B0FBF1F063
:1037B00000F00700044308E0322000EB0810642109
:1037C000B0FBF1F000F00F0004432C81BDE8FF874F
:1037D000001001400014014001468888C0F3080031
:1037E0007047C1F308028280704710B5044603F0A9
:1037F00089F8782003F04EF803F02AF8002003F04F
:1038000049F803F025F8204603F044F803F020F8C7
:1038100003F09CF810BD10B5044603F073F878204F
:1038200003F038F803F014F8402003F033F803F005
:103830000FF8204603F02EF803F00AF803F086F89C
:1038400010BD00002DE9F04387B004460D46414805
:103850000078042803D03F480078052802D107B03B
:10386000BDE8F08365BB3C480068844200D1F6E7C0
:1038700039480460002006234E2219460090FDF7C7
:10388000CCFE102201A92046FEF75EFD082301AA06
:1038900006210020FEF7C6F801A8FCF71CFD00EB8E
:1038A0004000022101EB4000C7B208232BA20621F1
:1038B0003846FEF7B7F84FF0FF3029490860CEE7E9
:1038C000AC4201D3642008E06420A4FB00700146F0
:1038D0002A4600233846FCF773FC06462048006859
:1038E000864232D01E480660002006234E2219462A
:1038F0000090FDF792FEC6EB061000EB86106421E7
:10390000B0FBF1F000F0FF09B9F1000F09DD012073
:103910000090A9F10100C2B2062319460020FDF76C
:103920007CFE002006237F22194600905020FDF7E0
:1039300074FE33460BA2082105A800F08FFE082371
:1039400005AA06215220FEF76DF80348046000BF67
:1039500085E700002E110020401100202E2E2E00A1
:103960003C110020256C75252500000010B5FDF7E1
:1039700035FE012015490870102315A200210846C4
:10398000FEF750F83A2200211C20FDF7C5FF3B222C
:1039900000212C20FDF7C0FF392200213C20FDF73B
:1039A000BBFFFF200B4908704FF0FF300A49086049
:1039B0000A490860FF200A4908704FF0FF300949A2
:1039C0000860094908600949086010BD2B110020F2
:1039D0004F544100381100203C11002040110020BC
:1039E00044110020481100204C11002050110020EB
:1039F0002DE9F04104461F4805684FF400581E4861
:103A0000854201D11D4B10E01B48401C854201D16D
:103A10001B4B0AE0174E361D30681A4EB04201D1DA
:103A2000164E00E0164E334600BF1A4600211AE03B
:103A300052F82100144EB04200D013E0481C52F856
:103A40002070881C52F820601FFA87FC0F488642BD
:103A500007D30F48864204D8C4F800C00020BDE850
:103A6000F08100BF491CB1F5005FE1D34FF0FF309A
:103A7000F5E70000502800400300A5A500000A0853
:103A80000000040802005A5A31524556403A3401A7
:103A9000E0C035012DE9FF4FADF51B7D80468A461C
:103AA0001E46AA98002813D07BA0FDF7A0FA85A097
:103AB000FDF770FB41F2883186A0FDF715FB044647
:103AC0000CB984A000E084A0014689A0FDF78FFA1C
:103AD000AA9830B1534642468CA18BA800F0D2FD83
:103AE00005E05346424690A18BA800F0CBFD8BA980
:103AF00094A0FDF77CFA8BA8FDF74CFB43F69821C8
:103B000095A0FDF7F1FA04460CB995A000E096A047
:103B100003465246414696A0FDF769FA54B1524613
:103B200041469BA0FDF763FA4FF0FF300DF51F7D76
:103B3000BDE8F08F4346A04940A89D9A00F0A2FD41
:103B40003F909EA03F99FDF752FA40A981A0FDF752
:103B50004EFAA3A137A83F9A00F094FD37A8FDF7CD
:103B600019FB41F28831A2A0FDF7BEFA04460CB958
:103B7000A0A000E0A1A00146A2A0FDF738FA44B140
:103B8000A6A0FDF734FAAEA0FDF704FB4FF0FF301E
:103B9000CCE740A8FDF7FEFAAD48FDF728FA002073
:103BA000AC490870369000253590349030703CE078
:103BB000A8480778002F17DDA898401E401BB84280
:103BC00002DAA898401E471B002F09DD70193A46FB
:103BD000A149FCF726FB3D4400207055012034909C
:103BE00000209C4908703590349818B135981428F5
:103BF00000DD1BE0052002F0FBFD3698401C3690EE
:103C000094480078002802DD0020359004E03498C4
:103C100010B13598401C35900521A99890FBF1F121
:103C20003698814200DA01E000BFC1E700BF2946B3
:103C30008AA0FDF7DCF9AB460027002033901BE09B
:103C4000ABEB0709B9F1C80F01DD4FF0C809F11955
:103C50004A466846FCF7E5FA00200DF809006A4676
:103C60008AA03399FDF7C3F94F443398401C339031
:103C7000502002F0BDFD00BF5F45E1DB87A0339916
:103C8000FDF7B5F96EA0FDF785FA4FF4FA6111A0C2
:103C9000FDF72AFA002049E75B4F54415D202020C0
:103CA000E5BC80E590AF2053534C20E6A8A1E5BCCD
:103CB0008F202841542B43495053534C3D31290DFB
:103CC0000A00000041542B43495053534C3D310DE1
:103CD0000A0000004F4B0000E5A4B1E8B4A528E5B8
:103CE000B086E5B09DE8AF95E7BBA7E7BBAD29007F
:103CF0005B4F54415D20202053534C20E6A8A1E5A2
:103D0000BC8F3A2025730D0A0000000041542B435C
:103D1000495053544152543D2253534C222C222596
:103D200073222C25640D0A0041542B4349505354EF
:103D30004152543D22544350222C222573222C25DB
:103D4000640D0A005B4F54415D202020E58F91E90E
:103D500080813A2025730000434F4E4E4543540066
:103D6000E68890E58A9F0000E5A4B1E8B4A50000CC
:103D70005B4F54415D202020E8BF9EE68EA52025A4
:103D8000733A2564202D3E2025730D0A00000000A3
:103D90005B4F54415D202020E99499E8AFAF3A2071
:103DA000E697A0E6B395E8BF9EE68EA5E588B0202D
:103DB00025733A25640D0A001C7900085B4F5441B5
:103DC0005D2020204854545020E8AFB7E6B182204F
:103DD000282564E5AD97E88A82293A0D0A0000009B
:103DE00041542B43495053454E443D25640D0A0030
:103DF0003E000000E5B0B1E7BBAA0000E8B685E6EA
:103E000097B600005B4F54415D202020434950533A
:103E1000454E443A2025730D0A0000005B4F544183
:103E20005D202020E99499E8AFAF3A2043495053F0
:103E3000454E4420E5A4B1E8B4A50D0A00000000F9
:103E400041542B434950434C4F53450D0A00000049
:103E50008C7C0008630000205C4700200D0A5B4F4B
:103E600054415D2020203D3D3D20E68EA5E694B6E0
:103E7000E5AE8CE688902C20E585B120256420E510
:103E8000AD97E88A82203D3D3D0D0A005B73656772
:103E900025645D2025730D0A000000005B4F54412E
:103EA0005D2020203D3D3D20E68993E58DB0E5AEC7
:103EB0008CE688902C20E585B120256420E6AEB5FF
:103EC000203D3D3D0D0A000010B590B044A0FDF727
:103ED0008EF8012002F098FC4DA0FDF75BF901205F
:103EE00002F092FC64210320FDF796FC49A0FDF747
:103EF00051F940F6B83149A0FDF7F6F8044614B17F
:103F000047A0FDF774F864210620FDF785FC53A057
:103F1000FDF740F94FF4FA6140A0FDF7E5F86421A0
:103F20000920FDF779FC51A152A0FDF760F859A0D6
:103F3000FDF730F940F6B83138A0FDF7D5F830B1CB
:103F400058A0FDF754F84FF0FF3010B010BD6421B9
:103F50000C20FDF761FC5DA344A25FA1684600F060
:103F600091FB64210F20FDF757FC6846FDF712F91D
:103F70004FF4FA5129A0FDF7B7F828B15CA0FDF77E
:103F800036F84FF0FF30E0E762A0FDF730F864212B
:103F90001220FDF741FC66A0FDF7FCF84FF4FA6132
:103FA0001EA0FDF7A1F864211320FDF735FC64A0E5
:103FB000FDF7F0F84FF4FA6118A0FDF795F828B175
:103FC00063A0FDF714F84FF0FF30BEE76BA0FDF7DC
:103FD0000EF864211420FDF71FFC0020B5E7000057
:103FE0005B4F54415D202020E98080E587BAE9805D
:103FF0008FE4BCA0E6A8A1E5BC8F2028E997B4E92E
:104000009A94317320E58F91202B2B2B290D0A00D8
:104010002B2B2B0041540D0A000000004F4B0000D9
:104020005B4F54415D202020E8ADA6E5918A3A20FF
:104030004154E697A0E5938DE5BA942C20E58FAF27
:10404000E883BDE5B7B2E59CA8E99D9EE9808FE4D1
:10405000BCA0E6A8A1E5BC8F0D0A000041542B438B
:104060004950434C4F53450D0A000000796A786867
:104070006D0000005B4F54415D2020205769466968
:10408000E8BF9EE68EA520535349443D272573275C
:104090000D0A000041542B43574D4F44453D330D0D
:1040A0000A0000005B4F54415D202020E99499E80C
:1040B000AFAF3A2043574D4F44453D3320E8AEBEA5
:1040C000E7BDAEE5A4B1E8B4A50D0A006E73686E55
:1040D00073686E736800000041542B43574A415087
:1040E0003D222573222C222573220D0A0000000098
:1040F0005B4F54415D202020E99499E8AFAF3A200E
:1041000057694669E8BF9EE68EA5E5A4B1E8B4A567
:104110000D0A00005B4F54415D202020576946691D
:10412000E8BF9EE68EA5E68890E58A9F0D0A00000E
:1041300041542B4349504D55583D300D0A00000065
:1041400041542B4349504D4F44453D300D0A00002A
:104150005B4F54415D202020E99499E8AFAF3A20AD
:104160004349504D4F44453D3020E8AEBEE7BDAE1B
:10417000E5A4B1E8B4A50D0A000000005B4F54416E
:104180005D2020204553503832363620E5B0B1E767
:10419000BBAA2028E99D9EE9808FE4BCA0E591BDE3
:1041A000E4BBA4E6A8A1E5BC8F290D0A000000002D
:1041B0002DE9F35F0C464FF0FF30AC3444F8AC0C03
:1041C000002004F8A80C04F8880CA0612077E063B4
:1041D00000216164A164E064AC3C86A10098FCF716
:1041E00052F8054625B1224684A1E81DFCF796F851
:1041F00083A10098FCF747F805467DB1ED1D00202E
:1042000003E02A5C211D0A54401C1F2802DA295CA5
:104210002229F6D10022211D0A5400BF7AA100985C
:10422000FCF731F80546002D75D0ED1D7B212846A1
:10423000FCF747F80546002D6BD075A12846FCF722
:1042400022F807468FB1FF1D002004E03A5C04F11C
:1042500024010A54401C9F2802DA395C2229F5D136
:10426000002204F124010A5400BF6BA12846FCF788
:104270000AF88046B8F1000F06D004F1C4025FA12D
:1042800008F10A00FCF74AF866A12846FBF7FBFF95
:1042900006468EB1F61D002004E0325C04F1C80130
:1042A0000A54401C1F2802DA315C2229F5D1002271
:1042B00004F1C8010A5400BF5CA12846FBF7E3FFE4
:1042C0008146B9F1000F06D004F1E80259A109F1C5
:1042D0000700FCF723F858A12846FBF7D4FF8246D5
:1042E000BAF1000F06D004F1F00255A10AF107005F
:1042F000FCF714F854A12846FBF7C5FF8346BBF131
:10430000000F06D004F1F80252A10BF10800FCF7EF
:1043100005F862E0FFE73EA10098FBF7B4FF054611
:104320008DB1ED1D002004E02A5C04F124010A5443
:10433000401C9F2802DA295C2229F5D1002204F1D1
:1043400024010A5400BF34A10098FBF79CFF0546E6
:1043500035B104F1C40229A105F10A00FBF7DEFF23
:1043600030A10098FBF78FFF05468DB1ED1D0020B1
:1043700004E02A5C04F1C8010A54401C1F2802DA38
:10438000295C2229F5D1002204F1C8010A5400BF9A
:1043900026A10098FBF777FF05462DB104F1E8024E
:1043A00024A1E81DFBF7BAFF23A10098FBF76BFFE0
:1043B00005462DB104F1F00221A1E81DFBF7AEFF87
:1043C00021A10098FBF75FFF054635B104F1F80223
:1043D00020A105F10800FBF7A1FF206838B904F11E
:1043E0002400FBF778FF10B10020BDE8FC9F4FF0E0
:1043F000FF30FAE722636F6465223A00256400000B
:10440000226D7367223A22002264617461223A00AD
:104410002275726C223A22002276657273696F6E81
:10442000223A000022746167223A22002273697ADC
:1044300065223A00256C750022756E6978223A0073
:10444000256C6C7500000000226372633332223ADF
:1044500000000000257500001FB5284800780428DA
:1044600004D026480078052800D01FBD23480078D6
:104470002349097888420CD12248006822490968FA
:10448000884206D12148006821490968884200D144
:10449000EBE71A4800781A4908701A4800681A4968
:1044A00008601A4800681A490860002006234E2256
:1044B00019460090FDF7B1F81048007804280DD196
:1044C000124814A210210368684600F0C7F80823B8
:1044D0006A4606210020FDF7A5FA0DE009480FA263
:1044E00010210368684600F0B9F808236A460621DF
:1044F0000020FDF797FA00BF00BFB6E72E1100209D
:1045000044110020301100204811002034110020F7
:104510004C1100204F4B20256C757300453A253017
:10452000326C750008B549480078494909788842D5
:1045300006D14848007848490978884200D108BD2A
:104540004248007842490870424800784249087061
:10455000002004234E2203210090FDF75EF83B4823
:10456000007806286DD2DFE800F06C031D3751613A
:10457000322203210020FDF7CFF93322032110203E
:10458000FDF7CAF9342203212020FDF7C5F93522B1
:1045900003213020FDF7C0F9392203214020FDF727
:1045A000BBF94FE0362203210020FDF7B5F9372291
:1045B00003211020FDF7B0F93A2203212020FDF756
:1045C000ABF93B2203213020FDF7A6F93822032165
:1045D0004020FDF7A1F935E03A2203210020FDF744
:1045E0009BF93B2203211020FDF796F92522032198
:1045F0002020FDF791F9262203213020FDF78CF9C8
:10460000392203214020FDF787F91BE02D220321E9
:104610000020FDF781F92E2203211020FDF77CF9FF
:10462000392203212020FDF777F90BE02B2203210B
:104630000020FDF771F92C2203211020FDF76CF901
:1046400000E000BF00BF00BF79E700002D1100208F
:10465000381100202E110020441100200FB41CB589
:104660000A46521ECDE9000207A9054B6A46069884
:1046700000F0F0F8009A002111701CBC5DF814FBEA
:10468000834F00080FB4084B10B504A902AA039881
:1046900000F0E0F8044602A9002000F07DFC20466E
:1046A00010BC5DF814FB0000994F00087CB5491E52
:1046B0001C461546CDE90001044B6A4621462846B2
:1046C00000F0C8F8009A002111707CBD834F0008EB
:1046D00002E008C8121F08C1002AFAD170477047CB
:1046E000002001E001C1121F002AFBD17047000029
:1046F0002DE9FF5FDDE90220010DDDF838B002434E
:1047000018D044F61050A1F2FF3141430D140F9818
:10471000012820D0A5EB0B00401C5FEA000A4FF0F7
:104720000004474EDFF81C91A046504616D5CAF14A
:10473000000728E00F98012443A2012808D0002197
:1047400000980F9BC0E90021C0E90243BDE8FF9F2C
:104750006FEA0B01F4E7CBF10000DEE7074612E059
:10476000F80707D02246334640464946FCF7D1F8C1
:10477000804689462246334610461946FCF7C9F85A
:1047800004460E467F10002FEAD1DDE90201BAF19E
:10479000000F42464B4602DAFCF7BBF801E0FCF79B
:1047A0002AF904460E460022284BFCF7ABF903D841
:1047B0004FF0FF30014607E00022254B20463146EE
:1047C000FCF700F8FCF786F9102409E0002C0ADB5E
:1047D0000A220023FBF7F4FC019B30321A55641EB9
:1047E00050EA0102F2D1641C019AC4F1110314448D
:1047F0000F9A012A03D0012208430DD10AE0084391
:1048000004D000204FF0110B0F9080E7A3EB0B05B5
:104810006D1E0DE05B4504DD4FF0000205F1010562
:1048200004E003DA4FF00002A5F10105002AECD004
:1048300000980F99C0E90231C0E9004586E7000001
:10484000000024400000F03F300000000000F04372
:104850000000E03F2DE9FF4F95B09B468946064694
:1048600000250FE2252877D100242746F84A0121A8
:10487000059400E0044316F8013F203B01FA03F0E1
:104880001042F7D130782A2811D06FF02F033078FA
:10489000A0F13002092A16D8059A44F0020402EB6E
:1048A000820203EB42021044761C0590EFE759F8B0
:1048B000042B0592002A03DA504244F40054059078
:1048C00044F00204761C30782E2816D116F8010F19
:1048D00044F004042A280DD06FF02F023078A0F1A4
:1048E0003003092B09D807EB870302EB4303C718F2
:1048F000761CF3E759F8047B761C30786C280FD0CF
:1049000006DC4C2817D068280DD06A2814D104E0A2
:10491000742810D07A280FD10DE044F400140AE076
:1049200044F4801401E044F440147278824202D1CD
:1049300004F58014761C761C307866280BD013DCC6
:10494000582877D009DC002875D04528F6D04628AD
:10495000F4D047281AD19DE118E0632835D06428A7
:1049600079D0652812D195E1702873D008DC6728CA
:10497000F1D069286FD06E280DD06F2806D1B5E030
:1049800073282CD0752875D0782874D05A4617997A
:1049900090476D1C75E1C4F30250022809D003282A
:1049A0000DD0D9F8001004280DD00D6009F10409CC
:1049B00067E1D9F80010EA17C1E90052F6E7D9F823
:1049C00000100D80F2E70D70F0E719F8041B8DF868
:1049D000001000208DF80100EA46012003E059F89C
:1049E00004AB4FF0FF3061074FF0000102D40DE03F
:1049F00008F101018846B9420FDA8045F8DB1AF860
:104A000008100029F4D108E008F10101884681422C
:104A1000FADB1AF808100029F6D105985B46A0EBDE
:104A2000080721463846179A00F094FA284400EB0C
:104A3000080507E04DE029E10DE01AF8010B5A46A0
:104A400017999047B8F10108F7D25B4621463846DE
:104A5000179A13E142E00A220092C4F302524FF087
:104A6000000A022A08D059F804CB032A4FEAEC7155
:104A70000AD00DE029E02AE009F1070121F0070240
:104A8000F2E802C1914609E00FFA8CFC4FEAEC71A2
:104A9000042A03D14FFA8CFC4FEAEC71002907DAA3
:104AA0000A460021DCF1000C61EB02012D2202E03C
:104AB000220504D52B228DF80420012203E0E20711
:104AC00001D02022F7E7904659E00A2102E01022A7
:104AD0000DE010214FF0000A00910BE010224FF082
:104AE000000A44F004040827009203E008224FF073
:104AF000000A0092C4F30252022A05D059F804CBEE
:104B00000021032A08D009E009F1070121F007027A
:104B1000F2E802C1914605E01FFA8CFC042A01D19B
:104B20000CF0FF0C4FF00008220728D5702806D0A3
:104B3000009B83F0100353EA0A0305D00EE04022E5
:104B40008DF80420012208E05CEA010206D0302240
:104B50008DF804208DF8050002229046009B83F01A
:104B6000080353EA0A030AD15CEA010201D1620791
:104B700005D530228DF804204FF001087F1E5828FB
:104B800004D034A003900EA802900DE036A0F9E7FF
:104B900053466046009AFBF713FB84460398825CF9
:104BA0000298401E029002705CEA0100F0D1029867
:104BB00006A9081A00F1200A600702D524F48034FF
:104BC00000E00127574502DDA7EB0A0000E00020C6
:104BD00000EB0A01009005984144401A0590E0035B
:104BE00006D45B462146179A059800F0B3F90544B0
:104BF000002706E001A85A46C05D179990476D1C32
:104C00007F1C4745F6DBE0030CD55B462146179A2F
:104C1000059800F09FF9054404E030205A461799A2
:104C200090476D1C0099481E00900029F5DC08E0B3
:104C3000029802995A460078491C029117999047A8
:104C40006D1CBAF10001AAF1010AF1DC65E1000076
:104C50000928010030313233343536373839616252
:104C60006364656600000000303132333435363716
:104C700038394142434445460000000000F058F9ED
:104C80000544761C307800287FF4ECAD19B0284636
:104C9000BDE8F08F620700D4062709F1070222F071
:104CA000070CFCE80223E14603F000485FEA080C29
:104CB00002D00FF2702C0DE05FEA045C02D50FF217
:104CC000682C07E05FEAC47C02D00FF2602C01E0A0
:104CD000AFF2700C4FF0FF3823F00043CDF850C016
:104CE00065280CD006DC452809D046281DD0472869
:104CF0003DD13DE0662818D067287ED138E00021FC
:104D0000112F01DB112000E0781CCDE9000106A97C
:104D10000EA8FFF7EDFCDDE90F010E9A03910021CB
:104D2000009207F1010A04914DE04FF00040009716
:104D3000CDE9011006A90EA8FFF7DAFCDDE90F02A4
:104D400003920E9B11990022DDF80CA000930492AF
:104D500011B9791C00EB010AB7EB0A0004D4C0F1C9
:104D6000FF3007F1010A0490AAEB0700019044E02C
:104D7000012F00DA01270021112F01DD112000E0B1
:104D80003846CDE9000106A90EA8FFF7B1FCDDE920
:104D90000F010E9A0391002104910092BA46210757
:104DA0000CD40399514500DA8A46BAF1010F05DDAA
:104DB000009AAAF10101515C302908D0B84202DA08
:104DC00010F1040F06DA0121CDE9011015E0AAF176
:104DD0000101E9E7002805DC049901440491AAEBEC
:104DE000000102E0411C514500DD8A460499401A49
:104DF000401C01904FF000400290200704D401981D
:104E0000504501DBCDF8048000208DF84F0002985A
:104E10000DF14F07B0F1004F25D02B200E900298D6
:104E20004FF0020800280CDA404202902D200E902C
:104E300007E00A210298FBF74EFC3031029007F898
:104E4000011DB8F10001A8F10108F2DC0298002868
:104E5000EFD1791E0E980870307800F0200040F0F5
:104E6000450007F8020D12A8C01B00F107081498AE
:104E7000007800B1012000EB0A01019801EBE0711C
:104E800005984144401A401E0590E00306D45B4655
:104E90002146179A059800F05DF8054414980078AB
:104EA00018B15A46179990476D1CE00324D55B460C
:104EB0002146179A059800F04DF805441CE0049827
:104EC000002807DBDDE90301884203DD0098405C30
:104ED000179901E0179930205A469047049805F138
:104EE0000105401C04900198401E019004D12E2021
:104EF0005A46179990476D1CBAF10001AAF1010AB0
:104F0000DDDC05E017F8010B5A46179990476D1C38
:104F1000B8F10001A8F10108F4DC5B462146179ABC
:104F20000598ABE62D0000002B00000020000000DB
:104F30002DE9F041044600251E461746880404D496
:104F400005E039462020B0476D1C641EF9D528467F
:104F5000BDE8F0812DE9F041044600251E4690464B
:104F6000C80301D5302700E02027880404D505E0D8
:104F700041463846B0476D1C641EF9D52846BDE849
:104F8000F0814A68002A06D00A68531C0B60107032
:104F90004868401E486070470A68531C0B601070D8
:104FA0007047000001B5ADF58C6D5020BF9000201A
:104FB000BE90DDF86004BD900020BC90BB90B9901D
:104FC000D348FCF714F8D3A0DDF86014FCF70FF811
:104FD000DDF8600428B1DDF86004FBF77CF90A28ED
:104FE00007D2D2A0FCF703F84FF0FF300DF2644D6A
:104FF00000BDD8A0FBF7FBFF0822DDA1BD98FBF7A1
:105000007EF958B9BD980830BD9040F2BB10BF90F2
:105010000120BE90D9A0FBF7EAFF0CE00722E6A131
:10502000BD98FBF76CF930B9BD98C01DBD905020FC
:10503000BF900020BE900AE0BD980278BC98411C49
:10504000BC910DF580610A54BD98401CBD90BD987F
:10505000007850B1BD9800782F2806D0BD98007810
:105060003A2802D0BC985F28E6DB00210DF580626B
:10507000BC981154BD9800783A2819D1BD98401CAD
:10508000BD900020BF900BE0BD9800783038BF99EC
:1050900001EB810100EB4100BF90BD98401CBD9029
:1050A000BD980078302803DBBD9800783928EBDD07
:1050B00009E0BD980278BB98411CBB91C0A90A5475
:1050C000BD98401CBD90BD98007810B1BB98FF28DA
:1050D000EFDB0021C0AABB981154BB9828B92F2040
:1050E0008DF8000300208DF801030DF58061B4A058
:1050F000BE9BBF9AFBF77BFFC0A9BAA0FBF777FF67
:10510000BDA0FBF774FF01F05BFE01F083FEB890D9
:10511000C8A0B899FBF76BFF0820B890D148006889
:1051200030B1D048006800F58030401E000CB890C7
:10513000B898102801D91020B890B898800102467C
:10514000B790C9A0B899FBF752FF0020B79011E0C3
:105150000021B79801EB0040B690B69801F0F8FD39
:10516000B799491CCFA0B69BB89AFBF740FFB798F8
:10517000401CB790B899B7988842E9D3D5A0FBF7FF
:1051800036FF0020B7490860DA490860DA4908604C
:105190000120DA4908700020B990D9490870D9482F
:1051A000D94908600020D9490880D9490870D949EF
:1051B0000870D9490870D9490860D9490860D949A7
:1051C00008604FF48051CF48FBF752F84FF48051FC
:1051D000D548FBF74DF84FF48051D448FBF748F819
:1051E0000020D3490870D3490860D3490860D349E7
:1051F0000870D3490860D3490860D3490860D3498F
:105200000860D3490860D3490860401ED24908604D
:10521000002240F22551D148FEF74EFA0020D04935
:1052200008704FF40061CF48FBF722F8012240F2EA
:105230002551CA48FEF740FA0DF58061CAA0BF9A11
:10524000FBF7D5FED6A0FBF7A5FF40F6B831D8A0F6
:10525000FBF74AFFBE9890B1D6A0FBF7C8FEDFA0CF
:10526000FBF798FF40F6B831D1A0FBF73DFF0DF5F5
:105270008062DEA199A8BF9BFFF704FA06E00DF556
:105280008062E1A199A8BF9BFFF7FCF999A8FBF701
:1052900081FF43F69821E3A0FBF726FFBA90BA9866
:1052A00008B9E2A000E0E3A001469890E3A0FBF774
:1052B0009EFEBA9828B1E8A0FBF799FE4FF0FF30A8
:1052C00094E6F1A0FBF793FE0DF58063C0AAFE49BA
:1052D00039A8FFF7D7F93890FCA03899FBF787FE7B
:1052E0003898379000203690359018E2DDE9361076
:1052F000401A01900198C82801DDC820019039A901
:10530000369808440090014602A8019AF2E1000094
:105310006C7D00085B4F54415D202020E4B88BE891
:10532000BDBD55524C3A2025730D0A005B4F5441C8
:105330005D20E99499E8AFAF3A2055524C20E4B88B
:10534000BAE7A9BAE68896E8BF87E79FAD5C720A1C
:10535000000000005B4F54415D20342E3120E8A74F
:10536000A3E69E902055524C2E2E2E0D0A000000D2
:1053700068747470733A2F2F000000005B4F544123
:105380005D202020E6A380E6B58BE588B020485458
:105390005450532028E58FAFE883BDE4B88DE694E0
:1053A000AFE68C812C20E9998DE7BAA7E5B09DE89E
:1053B000AF95290D0A000000687474703A2F2F0011
:1053C0005B4F54415D202020686F73743D2573202E
:1053D000706F72743D25642073736C3D25640D0AF3
:1053E000000000005B4F54415D2020207061746814
:1053F0003D25730D0A0000005B4F54415D20342EA3
:105400003220E5889DE5A78BE58C962057323551F3
:1054100031323820E5B9B6E693A6E999A4283634A6
:105420004B42E59D97E693A6E999A4292E2E2E0DD1
:105430000A0000005B4F54415D2020205732355157
:105440003132382049443A203078253034582028E9
:1054500065787065637420454634302F4546313891
:10546000290D0A00500000205B4F54415D20202090
:10547000E99C80E693A6E999A420256C7520E4B800
:10548000AAE59D972028E6AF8FE59D972036344BFF
:10549000422C20E585B120256C75204B42292E2E0B
:1054A0002E0D0A005B4F54415D202020E693A6E9B3
:1054B00099A4E8BF9BE5BAA63A20256C752F256C08
:1054C0007520E59D97202830782530386C58290DB7
:1054D0000A0000005B4F54415D20202057323551B7
:1054E00031323820E693A6E999A4E5AE8CE688909F
:1054F0000D0A000054000020580000204800002041
:105500000100002078110020040000200800002085
:105510000A0000200B0000200C00002010000020DA
:10552000140000201800002078210020783100208D
:105530001C00002020000020240000202800002063
:105540002C00002030000020340000203800002013
:105550003C000020400000204400002000480040A3
:10556000630000205C4700205B4F54415D20342ED7
:105570003420E8BF9EE68EA52025733A25642028B6
:10558000E99D9EE9808FE4BCA0E6A8A1E5BC8F2B35
:105590004349504D4F44453D30292E2E2E0D0A00D3
:1055A00041542B4349504D4F44453D300D0A0000B6
:1055B0004F4B00005B4F54415D202020E5B09DE83B
:1055C000AF95E5BC80E590AF2053534C202843496C
:1055D0005053534C3D31290D0A00000041542B43D8
:1055E000495053534C3D310D0A00000041542B43A8
:1055F000495053544152543D2253534C222C22259E
:1056000073222C25640D0A0041542B4349505354F6
:105610004152543D22544350222C222573222C25E2
:10562000640D0A00434F4E4E45435400E68890E512
:105630008A9F0000E5A4B1E8B4A500005B4F544187
:105640005D202020E8BF9EE68EA5E7BB93E69E9CEA
:105650003A2025730D0A00005B4F54415D20E99408
:1056600099E8AFAF3A2054435020E8BF9EE68EA59C
:10567000E5A4B1E8B4A52C20E7BB88E6ADA2E4B868
:105680008BE8BDBD0D0A00005B4F54415D20342EF8
:105690003520E58F91E980812048545450204745BA
:1056A0005420E8AFB7E6B1822028E99D9EE9808FBB
:1056B000E4BCA02043495053454E443D6C656E29DF
:1056C0002E2E2E0D0A000000A07800085B4F5441DA
:1056D0005D2020204854545020E8AFB7E6B182E95D
:1056E00095BFE5BAA63D256420E5AD97E88A820D11
:1056F0000A000000FAF795FD002102AA0198115452
:10570000F6A03599FBF773FC01993698084436905A
:105710003598401C35901E2001F06AF800BFDDE985
:1057200036018842FFF6E2ADF0A130A8389AFEF7C4
:10573000A9FF30A8FBF72EFD41F28831EFA0FBF75F
:10574000D3FCBA90BA9848B1EDA03899FBF74FFC5A
:10575000F8A0FBF71FFD4FF0FF3047E439A8FBF737
:1057600019FD4FF4FA61F7A0FBF7BEFC002240F2EE
:105770002551F648FDF7A0FF0020F54908704FF4C9
:105780000061F448FAF774FD0120F3490870F3480A
:10579000F34908600020F3490880F34908700021AC
:1057A000F24801700020F2490870F2490860F2499D
:1057B00008600021F14801700020F1490860F149BA
:1057C00008600021F04801700020F0490860F049AD
:1057D0000860F04908600021EF4801600020EF49AF
:1057E0000860EF490860401EEE490860012240F25F
:1057F0002551D648FDF760FFEB48FBF7F8FBEB4877
:10580000FBF7F5FB0020B89040F2DC50B790002089
:10581000B690F3E0D4480078E8B30020B59025E0D6
:10582000E3480168B5980844B490B498C0B2C0F594
:105830008070B390B598C0F58051B398814203D27F
:10584000B598C0F5805000E0B39880B2B290C349DB
:10585000B5980844B1900146B29AB49801F032FA72
:10586000B599B298084480B2B59000BFB598B0F52C
:10587000805FD5D3CE48006800F58050CC490860E1
:10588000002240F22551B148FDF716FF0020B6492D
:105890000870012200E005E040F22551AB48FDF719
:1058A0000BFF00BFB1480078E8B30020B59025E0B9
:1058B000BF480168B5980844B490B498C0B2C0F528
:1058C0008070B390B598C0F58051B398814203D2EF
:1058D000B598C0F5805000E0B39880B2B290B54959
:1058E000B5980844B1900146B29AB49801F0EAF92B
:1058F000B599B298084480B2B59000BFB598B0F59C
:10590000805FD5D3AA48006800F58050A849086098
:10591000002240F225518D48FDF7CEFE002093492C
:105920000870012200E005E040F225518748FDF7AC
:10593000C3FE00BF8E480078E8B30020B59025E094
:105940009B480168B5980844B490B498C0B2C0F5BB
:105950008070B390B598C0F58051B398814203D25E
:10596000B598C0F5805000E0B39880B2B2909249EB
:10597000B5980844B1900146B29AB49801F0A2F9E2
:10598000B599B298084480B2B59000BFB598B0F50B
:10599000805FD5D38648006800F580508449086050
:1059A000002240F225516948FDF786FE002070492B
:1059B0000870012200E005E040F225516348FDF740
:1059C0007BFE00BF6B480168B69881420BD0002077
:1059D000B89068480068B6907848016865480068E3
:1059E000FBF71AFF02E0B898401CB890B799B89836
:1059F000884200DD03E0022000F0FAFE0AE700BF63
:105A0000002240F225515148FDF756FE0020524930
:105A10000870012240F225514C48FDF74DFE5148D7
:105A2000008800284BDD4E4800684C49884202D16E
:105A30000846B59009E04A4800685E49884202D1AC
:105A40000846B59001E05C48B59046480088B4909F
:105A50000020B39025E056480168B3980844B290FE
:105A6000B298C0B2C0F58070B190B399B498411AA1
:105A7000B198814203DAB399B498401A00E0B19822
:105A800080B2B090B399B5980844AF900146B09AEF
:105A9000B29801F017F9B399B098084480B2B39066
:105AA00000BFB499B3988842D5DB41480168B498E7
:105AB00001443F48016000202A49088000BF2D486A
:105AC00000683F4908603A4800683E490860354828
:105AD0000068401C08B9002078E075E05B52455131
