:020000040800F2
:10000000D82E00209D010008A5010008A7010008C6
:10001000A9010008AB010008AD01000800000000C4
:10002000000000000000000000000000AF01000818
:10003000B101000800000000B3010008B50100088C
:10004000B7010008B7010008B7010008B7010008B0
:10005000B7010008B7010008B7010008B7010008A0
:10006000B7010008B7010008B7010008B701000890
:10007000B7010008B7010008B7010008B701000880
:10008000B7010008B7010008B7010008B701000870
:10009000B7010008B7010008B7010008B701000860
:1000A000B7010008B7010008B7010008B701000850
:1000B000B7010008B7010008B7010008B701000840
:1000C000B7010008B7010008B7010008B701000830
:1000D000B701000845360008D5360008CD370008BE
:1000E000B7010008B7010008B7010008B701000810
:1000F000B7010008B7010008B7010008B701000800
:10010000B7010008B7010008B7010008B7010008EF
:10011000B7010008B7010008B7010008B7010008DF
:10012000B7010008B7010008B7010008B7010008CF
:10013000B7010008B7010008B7010008B7010008BF
:10014000B7010008B7010008B7010008B7010008AF
:10015000B7010008B7010008B7010008B70100089F
:10016000B7010008B7010008B7010008B70100088F
:10017000B7010008B7010008B7010008B70100087F
:10018000B7010008B7010008DFF80CD000F01AFC36
:100190000048004705460008D82E00200648804742
:1001A00006480047FEE7FEE7FEE7FEE7FEE7FEE75C
:1001B000FEE7FEE7FEE7FEE7DD35000889010008FF
:1001C00040EA01039B0703D009E008C9121F08C0D9
:1001D000042AFAD203E011F8013B00F8013B521E59
:1001E000F9D27047D2B201E000F8012B491EFBD2D0
:1001F00070470022F6E710B513460A460446194632
:10020000FFF7F0FF204610BD30B505462A460B46E5
:1002100012F8010B13F8014B08B1A042F8D01CB141
:10022000002802D06D1CF1E7284630BD10B5044609
:1002300004E00B7800F8013B03B1491C521EF8D2D0
:10024000204610BDCAB2401E10F8011F8A4202D0DB
:100250000029F9D100207047421C10F8011B002929
:10026000FBD1801A704700000FB400B58DB010A903
:1002700009900B9000914FF0FF300A9000200C90F5
:1002800005480690054807906A4609A80F9900F0AE
:10029000B3F90DB05DF814FB15060008330600082D
:1002A0002DE9FF4F1C4681B00021D4E9016791463A
:1002B0004FF0FF358A468846A1696D1C0298884731
:1002C000216A834688470028F6D1BBF1FF3F0CD056
:1002D00026F4C066002F1ADD700615D5BBF12B0F72
:1002E0000AD0BBF12D0F0FD104E04FF0FF3005B065
:1002F000BDE8F08F46F48066A1696D1C02988847BE
:100300007F1E8346002F02DDBBF1300F03D0B9F111
:10031000000F2AD025E0A1696D1C46F400767F1EEF
:10032000029888478346002F05DDBBF1780F06D081
:10033000BBF1580F03D0B9F1000F10D011E0B9F1A3
:10034000000F02D0B9F1100F0BD1A1696D1C26F47A
:1003500000767F1E029888478346102000E0082020
:1003600081464FEAE970009017E00A20F8E743461B
:10037000AAFB092803FB0980DDF800C07F1E0AFBE9
:100380000C0112EB0B0A41EBEB78A16946F4007605
:1003900005F10105029888478346002F06DD49468E
:1003A000584600F015F95FEA000BE0D5E1690298C4
:1003B0008847B00502D46FF0010098E7F00718D124
:1003C000700610D57005514605D50023D1EB030109
:1003D00063EB080200E042462068031D23600068CA
:1003E000C0E9001205E02068011D21600068C0E935
:1003F00000A828467BE72DE9FF5F1D464FF0FF3B35
:10040000D5E9014691465F464FF00008A9697F1C77
:1004100001988847296A824688470028F6D1BAF1B0
:10042000FF3F0CD024F4C064002E19DD600614D503
:10043000BAF12B0F09D0BAF12D0F0ED103E05846B7
:1004400004B0BDE8F09F44F48064A9697F1C019862
:100450008847761E8246002E02DDBAF1300F03D0A7
:10046000B9F1000F26D032E0A969761E44F4007479
:100470007F1C019888478246002E05DDBAF1780F6F
:1004800006D0BAF1580F03D0B9F1000F10D01EE01A
:10049000B9F1000F02D0B9F1100F18D1A969761E79
:1004A00024F400747F1C019888478246102002E0E3
:1004B000082000E00A20814609E008FB0908A96934
:1004C000761E44F400747F1C019888478246002EF3
:1004D00005DD4946504600F07BF80028EDDAE96971
:1004E00001988847A00502D46FF00100A8E7E00753
:1004F00025D1600613D5600502D5C8F1000000E0E3
:10050000404629680A1D2A600968220501D508703D
:1005100015E0220701D5088011E008600FE0286887
:10052000011D29600068210502D580F8008006E0E1
:10053000210702D5A0F8008001E0C0F8008038460D
:100540007EE730B50B46014600202022012409E059
:1005500021FA02F59D4205D303FA02F5491B04FA7C
:1005600002F52844151EA2F10102F1DC30BD2DE98F
:10057000F05F0546002092469B4688460646814627
:1005800040241BE0284641464746224600F03BFAFD
:1005900053465A46C01A914110D311461846224676
:1005A00000F022FA2D1A67EB01084F46224601207F
:1005B000002100F019FA17EB00094E41201EA4F1AA
:1005C0000104DFDC484631462A464346BDE8F09F39
:1005D0003A2800D2303820F02002412A01D3A2F17B
:1005E0003700884201D34FF0FF3070470268114452
:1005F0001378016018467047D1600449516104497D
:10060000116200211161114600F024BAED050008C5
:100610004B0A0008426842B1016811F8013B23B15E
:10062000521EC0E90012184670470121C160881EA1
:10063000704742685AB1C368016843B983688B4206
:1006400005D0491E521CC0E90012002070474FF02F
:10065000FF3070472DE9FE4F804681EA0300C00F4E
:100660000C46009021F0004123F00045B8EB020059
:10067000A94105D24046214690461C460B460246FB
:1006800023F00040104347D0270DC7F30A00C3F3FF
:100690000A510290401A019040286BDAC3F313000C
:1006A00040F4801B0098924620B10023D2EB030A4D
:1006B00063EB0B0B01985946C0F14002504600F025
:1006C00093F906460D4650465946019A00F0ABF99B
:1006D00010EB08006141002487EA115284EAE773B5
:1006E0001A4340D0009A62B3019A012A4FEA075296
:1006F00015DC001B61EB02014FF0004202EA0752D9
:10070000CDE90042001C41F5801132462B4600F035
:1007100046FB03B0BDE8F08F40462146F9E7001BD9
:1007200061EB0201001C41F5801300185B412018A9
:10073000A2F5001747EB030140EAD570B6196D41E9
:1007400011E06D084FEA360645EAC0754FEA0752D8
:10075000001B61EB0201001C41F5801149084FEAC2
:1007600030000019514132462B4603B0BDE8F04F2E
:1007700000F006BB0098012240000023D0EB0202EB
:1007800063EBE073009821464FEAE074B8EB000099
:1007900061EB0401E9E783F000435BE781F000418E
:1007A00058E72DE9FE4F81EA030404F0004421F0EC
:1007B000004100944FF0000B23F0004350EA010485
:1007C0005ED052EA03045BD0C3F30A54C1F30A5566
:1007D0002C44A4F2F3340194A0FB0254C1F313019E
:1007E00041F48011C3F3130343F4801301FB02446B
:1007F00000FB034E840A970A44EA815447EA835770
:10080000A4FB076802958D0A05FB07854FEA932C28
:1008100004FB0C542705029D4FEA065847EA163799
:10082000B5EB08056EEB070C870E920E47EA8117B1
:1008300042EA8312A7FB0201B6EB0B0164EB000452
:100840002B0D43EA0C335E1844EB1C50DA4651463C
:10085000E7FB0201C5F313044FEA0B3343EA1453D9
:100860004FEA0432019C43EA0603A4F10C0402940B
:10087000009CCDE900B400F092FA03B0BDE8F08F1F
:1008800000200146F9E72DE9F04D81EA030404F068
:10089000004B21F0004514464FF0000A23F00041C0
:1008A00050EA050220D054EA01021DD0C5F30A57D0
:1008B0000246C5F31303C1F31300C1F30A5640F413
:1008C000801543F48013A7EB0608101BD64608F2E8
:1008D000FD3873EB050002D308F1010801E092181E
:1008E0005B41B8F1000F03DA00200146BDE8F08D4E
:1008F00000204FF48011064684460EE0171B73EB70
:10090000050705D3121B63EB050306434CEA010CF4
:1009100049084FEA300092185B4150EA0107EDD1D7
:1009200052EA030012D082EA040083EA0501084378
:1009300005D0101BAB4106D20122002306E00022A5
:100940004FF0004302E06FF0010253101AEB060073
:100950004CEB085110EB0A0041EB0B01BDE8F04DE8
:1009600000F00EBAC1F30A52C1F3130140F2FF3393
:1009700041F480119A4202DA00200146704740F2A9
:1009800033439A42A2F2334202DC524200F03BB8B7
:1009900000F02AB830B5041E71F1000404DB4FF0FA
:1009A0000044404264EB0101141E73F1000405DBB6
:1009B0001C464FF00043524263EB0403994208BFC8
:1009C000904230BD064C074D06E0E06840F0010360
:1009D00094E8070098471034AC42F6D3FFF7D8FBF1
:1009E0003857000858570008202A04DB203A00FA3C
:1009F00002F1002070479140C2F1200320FA03F376
:100A0000194390407047202A04DB203A21FA02F073
:100A10000021704721FA02F3D040C2F12002914038
:100A2000084319467047202A06DBCB17203A41FAC3
:100A300002F043EAE07306E041FA02F3D040C2F16B
:100A400020029140084319467047C0B24FF4F0515C
:100A500000F0F4B92DE9F34F8BB04FF0000801F12D
:100A60000C000C464FF0010B46460DF1080A0190B0
:100A7000626901210198904705002DD0252D2CD0C9
:100A8000216A8847C0B16269012101989047216AB3
:100A900088470028F7D1411E62690198904700E01D
:100AA000761CA1690B988847216A88470028F7D1EE
:100AB000E1690B988847DBE7A1690B9888470746EF
:100AC000A84201D1761CD3E7E1690B9888477F1CC7
:100AD00002D1B8F1000F6FD046E1002762693D46B0
:100AE0003946019890472A2804D16269012101986A
:100AF00090470125DFF884926269012101989047AF
:100B0000A0F130010A290AD24F45E5DC07EB870145
:100B100000EB4107303FDFD445F01005ECE7E90674
:100B200001D46FF000476C280AD04C2814D06828F4
:100B300015D06A280DD074281CD07A281AD01DE050
:100B400062690121019890476C2802D045F00405A4
:100B500014E045F002050DE045F020050AE0626969
:100B6000012101989047682802D045F0080505E06A
:100B700045F400656269012101989047C4E9015775
:100B800065283DD019DC58287AD00CDC452837D0B0
:100B900004DC252826D0412831D131E046282FD049
:100BA00047282CD12CE05B2877D0612828D06328F7
:100BB0007CD0642823D15AE0D0E06F2848D008DCEC
:100BC00066281DD067281BD0692821D06E2816D131
:100BD00027E0702845D0732868D0752847D078283A
:100BE0000DD14DE0A1690B988847054625283FF4B3
:100BF00069AFE1690B9888476D1C3FF46AAFB3E0B9
:100C000023466A466FF001000B99AFF300809EE027
:100C100045F040006060A80723464FF0000236D43C
:100C20003EE0E8077FF447AF2068011D21600068BF
:100C3000290501D506701BE7290701D5068017E7AE
:100C4000A90703D5F117C0E9006111E706600FE7B6
:100C500045F040006060A80723464FF0080216D414
:100C60001EE040F60E0125EA0100606016E045F046
:100C700040006060A80723464FF00A0207D40FE047
:100C800045F040006060A80708D5234610226FF0A9
:100C900001000B99FFF704FB59E007E023461022FF
:100CA0006FF001000B99FFF7A6FB50E04FF0000931
:100CB0004F464B46632802D05B2806D040E0E8064A
:100CC00001D40120A06001273AE062690121019866
:100CD00090475E2805D14FF00109626949460198A5
:100CE0009047216939B900210A46534643F821202B
:100CF000491C0829FADBB0B3216969B9C11700EBB7
:100D0000D16253110AEB830122F01F02821A0120E3
:100D10000B68904003430B60626901210198904782
:100D20005D28E8D1B9F1000F09D00020514651F8F3
:100D30002020D24341F82020401C0828F7DB02ABDA
:100D4000224600976FF001000B99AFF30080002856
:100D50000CDA401C08D1BBF1000F05D04FF0FF307A
:100D60000DB0BDE8F08FFFE74046F9E7E90701D194
:100D700008F1010806444FF0000B79E6CCCCCC0C0E
:100D800010B5141E73F1000408DA401C41F1000193
:100D900092185B411A4301D120F0010010BD2DE9EA
:100DA000F04D92469B4611B1B1FA81F202E0B0FAE1
:100DB00080F220329046FFF717FE04460F4640EAC5
:100DC0000A0041EA0B0153465A46084313D0114624
:100DD00053EA010019D0C8F140025046FFF713FE54
:100DE00005460E46504659464246FFF7FDFD08436C
:100DF00005D0012004E020463946BDE8F08D0020F2
:100E0000054346EAE0762C4337430A986305E40A33
:100E1000A0EB08000022FD0A44EA47540A3002D53C
:100E200000200146E9E7010510196941DDE908459F
:100E300000196941BDE8F04DA2E700007F2801D903
:100E4000002208E0064A02EB5002C007127800D1E7
:100E5000120902F00F020120904008407047000084
:100E60009C51000870B58D1810F8014B14F0030266
:100E700001D110F8012B231106D110F8013B03E03A
:100E800010F8016B01F8016B521EF9D1ABB110F8EB
:100E9000012B04F00C048A1A0C2C03D0A2EB841250
:100EA0009B1C08E010F8014BA2EB0422F8E712F8B3
:100EB000014B01F8014B5B1EF9D5A942D4D30020A8
:100EC00070BD0FB400B5C1B043A800904FF480715D
:100ED00001A8009B429A02F04BFE0020009001A85E
:100EE00000F07EFA41B05DF814FB000070B50446D6
:100EF0000E4615461848844203D118A0FFF7E1FFBB
:100F000002E021A0FFF7DDFF204602F0DBFA3146C8
:100F1000284600F038FA4FF4967003F0A4FA3146F0
:100F2000284600F032FA4FF4967003F09CFA3146EE
:100F3000284600F028FA4FF4967003F094FA3146F0
:100F4000284600F022FA4FF4967003F08CFA2046FF
:100F500000F01EFA70BD0000000004085B424F4F15
:100F6000545D20E8B7B3E8BDACE588B0202D3E2045
:100F70004120E58886E58CBA202830783038303436
:100F800030303030290D0A005B424F4F545D20E86D
:100F9000B7B3E8BDACE588B0202D3E204220E588FF
:100FA00086E58CBA20283078303830413030303007
:100FB000290D0A0030B501460C46226863680025F9
:100FC000B2F1005F04D30D48824201D2012506E050
:100FD000B2F1805F03D30A48824200D2012555B1A5
:100FE0000848834207D3B3F1016F04D203F0010034
:100FF00008B1012030BD0020FCE700000000022005
:1010000000000110000004082DE9F04104460D46DF
:1010100000277E1E12E021461148FFF7F5F808B1BF
:1010200000260CE00A2003F01EFA7F1C0A2095FB24
:10103000F0F0B84202DA4FF0FF3600E0EBE700BF15
:101040003346074A214607A0FFF73BFF00200F4920
:101050000870FF210248FFF7CCF83046BDE8F08168
:10106000D40B00205B4442475D203F3F3F3F3A277F
:10107000257327207C203F3F3F3A27257327207C7C
:10108000207265743D25640D0A00000005000020F3
:1010900070B5054600240CE0295D094802F0FFFC0C
:1010A00000BF8021064802F02EFC0028F9D0601C09
:1010B000C4B22846FFF7D0F8A042EDD870BD0000BA
:1010C0000048004070B504460A460026092502B9CA
:1010D00009E0012A01D1160205E0022A01D1160217
:1010E00001E04FF4407600F09FF80546092D28D125
:1010F0001548006820F440701349086008460068ED
:10110000304308600846006820F0F8000860084690
:10111000006844F0020108430B4908600846006873
:1011200040F48030086000F07FF80546064800680B
:1011300020F00200044908600846006820F0F8002A
:101140000860284670BD0000103C02400920134989
:10115000096801F48031B1F5803F01D101201CE024
:101160000E49096801F0100109B1062015E00B498C
:10117000096801F4807109B102200EE0074909688D
:1011800001F0EF0109B1072007E00449096801F007
:10119000020109B1082000E0092070470C3C024020
:1011A0000348006840F000400149086070470000B3
:1011B000103C024030B502460C46092500F034F8D8
:1011C0000546092D19D10E48006820F440700C49DD
:1011D00008600846006840F400700860084600682F
:1011E00040F001000860146000F01EF80546044855
:1011F000006820F0010002490860284630BD000068
:10120000103C02400548006800F0004028B1044846
:1012100002490C390860034808607047103C0240DE
:1012200023016745AB89EFCD08B509200090FFF792
:101230008DFF009002E0FFF789FF00909DF800000D
:101240000128F8D09DF8000008BD00001CB5012160
:10125000202002F093F80121102002F08FF84FF4C3
:10126000C060009001208DF8040000208DF8060079
:101270008DF8070003208DF8050069460A4800F044
:1012800017F84FF4C04000906946084800F010F885
:101290004FF4C061044800F078F84FF4C0410348AF
:1012A00000F073F81CBD0000001402400010024062
:1012B000F0B50A4600210023002400BF3DE00125CF
:1012C00005FA01F3156805EA03049C4234D1056868
:1012D0004F000326BE40B543056015794E00B5406A
:1012E0000668354305601579012D02D01579022D68
:1012F00016D185684F000326BE40B54385605579F9
:101300004E00B540866835438560456801268E40AD
:10131000B5434560456896798E40B6B23543456021
:10132000C5684F000326BE40B543C560D5794E0061
:10133000B540C6683543C560491C1029BFD3F0BD10
:10134000F0B5002300244D07ED0E02FA05F3CE1090
:1013500000F1200555F826504E07F70E0F26BE4027
:10136000B543CF1000F1200646F82750CE1000F10B
:10137000200555F8265045EA0304CE1000F120055B
:1013800045F82640F0BD4183704701837047000057
:1013900070B50446254672B600204FF0E021086182
:1013A0004861886100BF08E04FF0FF32094941F809
:1013B0002020094941F82020401C0828F4D3074880
:1013C0000460286880F3088800BF62B66E68B04782
:1013D00070BD000080E100E080E200E008ED00E088
:1013E00070B505462846FEF737FFC6B200240CE06C
:1013F000295D074802F053FB00BF8021044802F03A
:1014000082FA0028F9D0601CC4B2B442F0DB70BD8F
:101410000044004070B5002100230F22C4781CB3A3
:10142000174C246804F4E064C4F5E064C4F30721B5
:10143000C1F10404E3B20A4144789C40E1B28478EB
:10144000144021430C07210E0E4C05786155047899
:1014500004F01F050124AC4005786D11AD0005F1C5
:10146000E025C5F8004109E0047804F01F050124D7
:10147000AC40054D0678761145F8264070BD000059
:101480000CED00E000E400E080E100E070B5002435
:1014900018E004F1B000002100F0C1FA0021084674
:1014A00000F0BDFA0021102000F0B9FA002505E097
:1014B0000121002000F0B3FA681CC5B2802DF7DBD3
:1014C000601CC4B2082CE4DB70BD00001FB5012114
:1014D0000A2001F053FF4FF48060029000208DF845
:1014E0000C0001208DF80F0002A94D48FFF7E0FE27
:1014F0004FF40040029001208DF80C0000208DF880
:101500000E0002208DF80D0001208DF80F0002A9B9
:101510004448FFF7CDFE002001901EE04FF400414B
:101520004048FFF732FF0020009002E00098401C86
:10153000009000986428F9D34FF400413948FFF730
:1015400022FF0020009002E00098401C00900098CC
:101550006428F9D30198401C019001980928DDD333
:101560004FF48060029001208DF80C0000208DF86F
:101570000E0002208DF80D0001208DF80F0002A949
:101580002748FFF795FE4FF480612548FFF7FBFEE3
:101590000020009002E00098401C00900098642811
:1015A000F9D34FF400411F48FFF7EFFE00200090F1
:1015B00002E00098401C009000986428F9D34FF492
:1015C00080611748FFF7E1FE0020009002E00098DC
:1015D000401C009000986428F9D34FF40041114852
:1015E000FFF7D1FE0020009002E00098401C009020
:1015F00000986428F9D34FF48060029001208DF8A0
:101600000C0000208DF80E0002208DF80D00012046
:101610008DF80F0002A90248FFF74AFE1FBD000027
:10162000000C0240000402401CB5FFF74FFF0121EF
:101630000A2001F0A3FE4FF40040009001208DF835
:10164000040000208DF8060002208DF8050001201E
:101650008DF8070069463D48FFF72AFE4FF4806089
:10166000009069463A48FFF723FEC82002F0FBFECF
:101670000021AE2000F0D3F90021084600F0CFF998
:101680000021102000F0CBF90021402000F0C7F924
:101690000021B02000F0C3F90021812000F0BFF943
:1016A0000021FF2000F0BBF90021A12000F0B7F9D4
:1016B0000021A62000F0B3F90021A82000F0AFF926
:1016C00000213F2000F0ABF90021C82000F0A7F96D
:1016D0000021D32000F0A3F90021084600F09FF973
:1016E0000021D52000F09BF90021802000F097F91F
:1016F0000021D82000F093F90021052000F08FF997
:101700000021D92000F08BF90021F12000F087F9A9
:101710000021DA2000F083F90021122000F07FF987
:101720000021DB2000F07BF90021302000F077F968
:1017300000218D2000F073F90021142000F06FF9D2
:101740000021AF2000F06BF91CBD00000004024036
:10175000000C024010B510231DA20421002000F04F
:1017600041F910231AA20621002000F03BF91F22A4
:101770000421002000F0B0F820220421102000F005
:10178000ABF824220421202000F0A6F82522042111
:10179000302000F0A1F826220621002000F09CF85D
:1017A00027220621102000F097F828220621202069
:1017B00000F092F829220621302000F08DF82A222C
:1017C0000621402000F088F8FF200649087010BD6F
:1017D0002020202020202020202020202020202009
:1017E00000000000CA0A00201CB504461548007815
:1017F000FF2814D11F220621002000F06DF82022BE
:101800000621102000F068F823220621202000F095
:1018100063F810230CA20621302000F0E3F80948F9
:10182000007884420DD0234609A20821684602F0C0
:1018300077F910236A460621482000F0D3F80148C2
:1018400004701CBDCA0A00202E2E2E20200000008D
:10185000253364252500000010B510230EA20621B3
:10186000002000F0BFF81F220621002000F034F80D
:1018700020220621102000F02FF82122062120200E
:1018800000F02AF822220621302000F025F8FF205F
:101890000649087010BD00002020202020202020B4
:1018A000202020202020202000000000CA0A002044
:1018B00070B504460D4605F1B000002100F0AFF808
:1018C000102141EA1410002100F0A9F804F00F00E3
:1018D000002100F0A4F870BD2DE9F04180460E46CD
:1018E0001546002731464046FFF7E2FF00240AE094
:1018F000124A02EB8511085D012100F090F8781C76
:10190000C7B2601CC4B2102CF2DB701CC1B24046DE
:10191000FFF7CEFF00240CE06900491C074A02EBE8
:101920004111085D012100F07AF8781CC7B2601CF3
:10193000C4B2102CF0DBBDE8F08100000A000020EA
:101940002DE9F04707460E469046994600250024AB
:10195000A8F12000C5B27F2F02DD0027B01CC6B25F
:10196000B9F1100F24D131463846FFF7A1FF00240A
:1019700008E004EB0511194A505C012100F04FF812
:10198000601CC4B2082CF4DB701CC1B23846FFF7EF
:101990008FFF002409E004EB051108310F4A505C69
:1019A000012100F03CF8601CC4B2082CF3DB12E00B
:1019B00031463846FFF77CFF00240AE005EB45017D
:1019C000074A02EB4101085D012100F028F8601C84
:1019D000C4B2062CF2DBBDE8F08700009C4B000887
:1019E000744900082DE9F04104460F461546984613
:1019F00000260FE0AA5D434639462046FFF7A0FFC8
:101A000004F10800C4B2782C02DD0024B81CC7B26F
:101A1000701CC6B2A85D0028ECD1BDE8F08170B59D
:101A200004460D461DB1E0B202F063F802E0E0B2F8
:101A300002F049F870BD00002DE9F04FB3B08146C7
:101A400000203290319000BF0026B5A001F0EAFAE4
:101A5000BEA001F0E7FA012002F011FDC4A0FFF7DB
:101A600017FB012002F00BFDC2A0FFF711FB40F6AF
:101A7000B831C2A0FFF7C8FAC1A0FFF709FB4FF4C5
:101A8000FA61BEA0FFF7C0FAC1A001F0CBFAC7A06F
:101A9000FFF7FEFA40F6B831B8A0FFF7B5FA40B14B
:101AA000C6A001F0BFFAFFF755FE701E33B0BDE8C7
:101AB000F08FC8A3CAA2CCA121A802F045F821A8A2
:101AC000FFF7E6FA4FF4FA51ACA0FFF79DFA38B1F0
:101AD000CBA001F0A7FAFFF73DFE4FF0FF30E5E79E
:101AE000BFA1CFA001F09EFAD4A0FFF7D1FA4FF426
:101AF000FA61A2A0FFF788FAD4A0FFF7C9FA4FF461
:101B0000FA619EA0FFF780FA38B1D4A001F08AFAFA
:101B1000FFF720FE4FF0FF30C8E75023D6A2DAA12E
:101B200021A802F011F85022D3A1DEA001F07AFA28
:101B300021A8FFF7ADFA42F21071E1A0FFF764FAB5
:101B400038B1E1A001F06EFAFFF704FE4FF0FF306C
:101B5000ACE7E5A001F066FAE9A001F063FAFFF74F
:101B600051FBF048814509D13020ADF8BC00382048
:101B7000ADF8BE004020ADF8C00008E04820ADF848
:101B8000BC005020ADF8BE005820ADF8C0000024C5
:101B900017E02FA931F814000221FFF793FA054648
:101BA000092D0DD02FA830F814102A46DEA001F020
:101BB00039FAFFF7F5FAFFF7CDFD4FF0FF3075E783
:101BC000641C032CE5DBE2A001F02CFAAAA3E54A91
:101BD000E5A109A801F0B8FF04462246EFA101A83B
:101BE00001F0B2FF01A8FFF753FA40F6B831EFA0B9
:101BF000FFF70AFA60B1EEA001F014FA60A0FFF757
:101C000047FAFFF7CDFAFFF7A5FD4FF0FF304DE79C
:101C100009A8FFF73DFA2146ECA001F003FAF4A071
:101C200001F000FA00203090804683462F903FE27A
:101C3000F7480078002870D0F6A1F548FEF7E4FADE
:101C40002E902E98002869D02E98441D4FF0000A3F
:101C500006E0207830380AEB8A0100EB410A641C68
:101C60002078302802DB20783928F2DDBAF1000F25
:101C70004CDD20783A2849D1641CBBF1000F46D1D5
:101C80005746002513E0605D0D280FD1681C205CCD
:101C90000A280BD1A81C205C0D2807D1E81C205C69
:101CA0000A2803D12F1D4FF0010B03E06D1CF81E15
:101CB000A842E8DC00BF08EB070140F2FF30814298
:101CC0000BDAD64901EB08003A462146FEF778FACE
:101CD000B8440020D14901F80800BBF1000F15D02D
:101CE000574513DAAAEB07002D90C6F580512D98C1
:101CF000814202DAC6F580502D90E119C84A901948
:101D00002D9AFEF75DFA2D98064400BF94E1C6F5C2
:101D10008057BA4503DA504685E198E18DE181E1CB
:101D20000D0A3D3D3D3D3D205B4F54415D20446FDC
:101D3000776E6C6F616420416E6420466C617368DD
:101D4000203D3D3D3D3D0D0A000000005B4F5441EC
:101D50005D2065786974207472616E73706172655C
:101D60006E74206D6F64652E2E2E0D0A000000002B
:101D70002B2B2B0041540D0A000000004F4B00009C
:101D800041542B434950434C4F53450D0A0000002A
:101D90005B4F54415D20636F6E66696720576946EB
:101DA00069205354412E2E2E0D0A000041542B431E
:101DB000574D4F44453D330D0A0000005B4F5441E1
:101DC0002D4552525D2043574D4F44452066616971
:101DD0006C0D0A006E73686E73686E7368000000A5
:101DE000796A78686D00000041542B43574A41508E
:101DF0003D222573222C222573220D0A00000000AB
:101E00005B4F54412D4552525D205769466920630E
:101E10006F6E6E656374206661696C0D0A00000068
:101E20005B4F54415D205769466920636F6E6E6554
:101E30006374656420282573290D0A0041542B43DF
:101E400049504D55583D300D0A00000041542B4378
:101E500049504D4F44453D300D0A00005B4F544101
:101E60002D4552525D204349504D4F44453D302051
:101E70006661696C0D0A000062696E2E62656D66AE
:101E8000612E636F6D00000041542B434950535441
:101E90004152543D22544350222C222573222C259A
:101EA000640D0A005B4F54415D20636F6E6E656385
:101EB000742025733A2564202E2E2E0D0A00000072
:101EC000434F4E4E454354005B4F54412D455252B3
:101ED0005D2054435020636F6E6E656374206661AD
:101EE000696C0D0A000000005B4F54415D205443B3
:101EF0005020636F6E6E65637465640D0A000000A8
:101F00005B4F54415D2065726173696E6720746137
:101F10007267657420736563746F72732E2E2E0D55
:101F20000A000000000004085B4F54412D45525246
:101F30005D20657261736520736563746F7220251F
:101F400064206661696C3A2025640D0A0000000077
:101F50005B4F54415D20657261736520646F6E65EF
:101F60000D0A0000A055000847455420257320485D
:101F70005454502F312E310D0A486F73743A202576
:101F8000730D0A436F6E6E656374696F6E3A2063FA
:101F90006C6F73650D0A0D0A0000000041542B435D
:101FA000495053454E443D25640D0A003E00000053
:101FB0005B4F54412D4552525D2043495053454E8D
:101FC00044206E6F20273E270D0A00005B4F5441CE
:101FD0005D2048545450204745542073656E74204A
:101FE000282564206279746573290D0A00000000B9
:101FF0005B4F54415D2077616974696E6720666F3D
:102000007220726573706F6E73652E2E2E0D0A002E
:10201000D40B00202B4950442C000000D312002088
:10202000D316002038460546F94988192A46214624
:10203000FEF7C6F82E4400BF00BF0020F549087027
:10204000FF21F548FEF7D5F800202F9000BFBBF127
:10205000000F03D0B6F5805F00DB2AE0BBF1000F74
:1020600006D0642002F0FFF9EB48007800B920E0C8
:102070000A2002F0F8F93098401C3090E6480078C9
:1020800010B100202F9005E0B8F1000F02DD2F986D
:10209000401C2F903098B0F5FA6F05DCB8F1000FB6
:1020A00006DD2F98322803DDDCA000F0BBFF00E046
:1020B000BEE500BFE2A000F0B5FF0020EA4981F8CC
:1020C000FF01EAA0FEF7FDFEEAA000F0ABFFF3A1DE
:1020D000E548FEF799F8044644B132AAF1A120463A
:1020E000FEF7C2F8F2A0329900F09CFFF6A1DE489C
:1020F000FEF78AF804465CB131AAF7A104F110009A
:10210000FEF7B2F83198820A0146F4A000F08AFF87
:102110003298C82805D1319818B13198B0F5C02F40
:102120000FD9F8A0DDE9312100F07CFFAFF2B0302B
:10213000FEF7AEFFFFF734F8FFF70CFB4FF0FF3070
:10214000B4E4CA460025002400203090FFF74CFB81
:102150003FE03098411C3091AD490A5C2046641C38
:10216000F5490A546D1CB4F5806F32DB002714E08A
:10217000F148C15D0246781C105C41EA0021B81CA0
:10218000105C41EA0041F81C105C41EA00680AEB6F
:1021900007004146FFF70EF83F1DB7F5806FE7DBFC
:1021A0000AF5806A0024642068433199B0FBF1F09D
:1021B00000F0FF084046FFF717FB642068433199A1
:1021C000B0FBF1F843460A462946DCA000F02AFF9E
:1021D00000BF3098B042BCDB00202F902E90A3E0CF
:1021E0008D48007800287DD0AFF2D8118A48FEF7DC
:1021F0000BF82D902D9800286BD02D98471D4FF08F
:10220000000B06E0387830380BEB8B0100EB410B0C
:102210007F1C3878302802DB38783928F2DDBBF1B2
:10222000000F55DD38783A2852D17F1C00202C90C1
:1022300047E02C983A5C2046641CBF490A546D1C48
:10224000B4F5806F3ADB4FF000081AE0BA4810F896
:102250000810024608F10100105C41EA002108F173
:102260000200105C41EA004108F10300105C41EA01
:1022700000602B900AEB08002B99FEF79BFF08F1FA
:102280000408B8F5806FE1DB0AF5806A0024642059
:1022900068433199B0FBF1F0C0B22B902B98FFF757
:1022A000A3FA642068433199B0FBF1F003460A4673
:1022B00029462B90A1A000F0B5FE00BF2C98401C31
:1022C0002C902C98584502DA31988542B1D300BF42
:1022D00000BF00204F490870FF214F48FDF789FFDC
:1022E000002000E001E02E9000BF052002F0BBF8C6
:1022F0002F98401C2F904848007810B100202E9055
:1023000002E02E98401C2E9042F6E0612F98884201
:1023100004DC4DB12E98B0F57A7F05DD294690A0FA
:10232000319A00F07FFE03E031988542FFF458AF08
:1023300000BF002C27DD04E0FF222046641C7E49FC
:102340000A54E11704EB91718910A4EB8101002973
:10235000F2D1002714E07848C15D0246781C105C79
:1023600041EA0021B81C105C41EA0041F81C105CF5
:1023700041EA00680AEB07004146FEF71BFF3F1DDC
:10238000A742E8DBA244FEF70BFF29467EA000F03F
:1023900049FEAFF21460FEF77BFE4FF4FA61AFF234
:1023A0002460FEF731FE4F463C687D684FF0000820
:1023B000B4F1005F05D38048844202D24FF0010897
:1023C00007E0B4F1805F04D37C48844201D24FF02F
:1023D0000108B8F1000F11D0794885420ED3B5F14C
:1023E000016F0BD205F0010040B12A46214675A0CD
:1023F00000F018FEFFF730FA002008E42A462146D4
:102400007AA000F00FFEFFF7A5F94FF0FF3097E636
:10241000D316002005000020D40B00205B4F544150
:102420002D5741524E5D206865616465722072656A
:1024300063656976652074696D656F75740D0A0052
:102440000D0A3D3D3D3D3D2048545450205265739A
:10245000706F6E736520486561646572203D3D3D17
:102460003D3D0D0A00000000D312002025730D0A27
:10247000000000003D3D3D3D3D3D3D3D3D3D3D3D80
:102480003D3D3D3D3D3D3D3D3D3D3D3D3D3D3D3D7C
:102490003D3D3D3D0D0A0D0A0000000048545450DA
:1024A0002F000000485454502F312E312025640055
:1024B0005B4F54415D2048545450207374617475CF
:1024C000733A2025640D0A00436F6E74656E742D97
:1024D0004C656E6774683A00256C75005B4F54411B
:1024E0005D2066696C652073697A653A20256C7594
:1024F0002062797465732028256C75204B42290D64
:102500000A0000005B4F54412D4552525D20696E18
:1025100076616C696420726573706F6E73652028D4
:102520007374617475733D2564206C656E3D256C14
:1025300075290D0A00000000D32600205B4F54418E
:102540005D2070726F67726573733A20256C752019
:102550002F20256C752028256C752525290D0A004E
:102560005B4F54412D4552525D207265636569761B
:10257000652074696D656F75742028256C752F252D
:102580006C75290D0A0000005B4F54415D20466CBC
:1025900061736820777269746520636F6D706C6514
:1025A00074652C20746F74616C3A20256C75206200
:1025B000797465730D0A000000000220000001100C
:1025C000000004085B4F54415D20766572696679AE
:1025D000204F4B212053503D307825303858205023
:1025E000433D3078253038580D0A00005B4F544188
:1025F0002D4552525D207665726966792066616963
:102600006C212053503D3078253038582050433DC0
:102610003078253038580D0A000000002DE9F04FC1
:10262000E7B090A000F0FEFC9BA000F0FBFC0120B6
:1026300001F025FFA0A0FEF72BFD012001F01FFFF8
:102640009EA0FEF725FD40F6B8319EA0FEF7DCFC0B
:102650006590659810B19CA000F0E4FCA8A0FEF77E
:1026600017FD4FF4FA6197A0FEF7CEFCA8A000F08A
:10267000D9FCB1A0FEF70CFD40F6B83191A0FEF7F1
:10268000C3FC38B1B0A000F0CDFC4FF0FF3067B014
:10269000BDE8F08FB9A3BCA2BDA155A801F054FAC2
:1026A00055A8FEF7F5FC4FF4FA5186A0FEF7ACFCF6
:1026B00028B1BD4800F0B6FC4FF0FF30E7E7B2A10B
:1026C000BAA000F0AFFCC5A0FEF7E2FC4FF4FA613F
:1026D0007CA0FEF799FCC5A0FEF7DAFC4FF4FA6186
:1026E00078A0FEF791FC28B1C4A000F09BFC4FF04D
:1026F000FF30CCE75023CEA2D1A145A801F024FAA7
:102700005022CBA1D5A000F08DFC45A8FEF7C0FC5F
:1027100042F21071DAA0FEF777FC28B1DA4800F037
:1027200081FC4FF0FF30B2E7D8A000F07BFCC0A3E3
:10273000DE4ADFA11DA801F007FA1C90E9A114A848
:102740001C9A01F001FA14A8FEF7A2FC40F6B83179
:10275000E8A0FEF759FC40B1E7A000F063FC68A0D8
:10276000FEF796FC4FF0FF3091E71DA8FEF790FCB6
:10277000F0A01C9900F056FC1DA9FAA0FEF7A1FBE1
:10278000FAA000F04FFC00200F9080460E90824689
:1027900029E2FE48007800285ED0FDA1FB48FDF745
:1027A00033FD0D900D9800284CD00D98461D4FF02C
:1027B000000906E03078303809EB890100EB410967
:1027C000761C3078302802DB30783928F2DDB9F118
:1027D000000F36DD30783A2833D108EB090040F29B
:1027E000FF3188422DDACB46BAF1000F28D10027FD
:1027F00014E0F05D0D2810D1781C305C0A280CD153
:10280000B81C305C0D2808D1F81C305C0A2804D1B3
:1028100007F1040B4FF0010A04E07F1CABF1030049
:10282000B842E6DC00BFDC4901EB08005A463146FD
:10283000FDF7C6FCD8440020D74901F8080000BFC6
:1028400000BF00BF0020D5490870FF21CF48FDF729
:10285000D0FC00200E9000BFBAF1000F00D0C3E101
:102860009EE100000D0A3D3D3D3D3D205B4F544142
:102870005D20485454502062696E20EFBFBDEFBF09
:10288000BDCFA2EFBFBDEFBFBDEFBFBDEFBFBD204E
:102890003D3D3D3D3D0D0A005B4F54415D20EFBF86
:1028A000BDCBB3EFBFBDCDB8EFBFBDEFBFBDC4A3C0
:1028B000CABD2E2E2E0D0A002B2B2B0041540D0AC3
:1028C000000000004F4B00005B4F54415D2041541D
:1028D00020EFBFBDEFBFBDEFBFBDEFBFBDD3A62C87
:1028E00020EFBFBDEFBFBDEFBFBDEFBFBDEFBFBDB1
:1028F000EFBFBDEFBFBDEFBFBD2E2E2E0D0A0000F6
:1029000041542B434950434C4F53450D0A0000009E
:102910005B4F54415D20EFBFBDEFBFBDEFBFBDEFCB
:10292000BFBD20576946692028535441C4A3CABD7E
:10293000292E2E2E0D0A000041542B43574D4F4493
:10294000453D330D0A0000005B4F54412DEFBFBDE4
:10295000EFBFBDEFBFBDEFBFBD5D2043574D4F443F
:102960004520EFBFBDEFBFBDEFBFBDEFBFBDCAA7E5
:10297000EFBFBDEFBFBD0D0A000000006E73686EB3
:1029800073686E7368000000796A78686D000000F3
:1029900041542B43574A41503D222573222C222576
:1029A00073220D0A00000000585400085B4F544188
:1029B0005D205769466920EFBFBDEFBFBDEFBFBDCA
:1029C000EFBFBDEFBFBDEFBFBD2028EFBFBDC8B596
:1029D000EFBFBD3A202573290D0A000041542B4357
:1029E00049504D55583D300D0A00000041542B43CD
:1029F00049504D4F44453D300D0A00005B4F544156
:102A00002DEFBFBDEFBFBDEFBFBDEFBFBD5D20432D
:102A100049504D4F44453D3020EFBFBDEFBFBDEFA6
:102A2000BFBDEFBFBDCAA7EFBFBDEFBFBD0D0A0061
:102A300062696E2E62656D66612E636F6D000000C7
:102A400041542B43495053544152543D2254435016
:102A5000222C222573222C25640D0A005B4F544141
:102A60005D20EFBFBDEFBFBDEFBFBDD3B5EFBFBDB5
:102A70002025733A2564202E2E2E0D0A000000001A
:102A8000434F4E4E45435400905200085B4F544113
:102A90005D2054435020EFBFBDEFBFBDEFBFBDD39E
:102AA000B3C9B9EFBFBD0D0A00000000A055000872
:102AB00047455420257320485454502F312E310D52
:102AC0000A486F73743A2025730D0A436F6E6E6562
:102AD0006374696F6E3A20636C6F73650D0A0D0A3B
:102AE0000000000041542B43495053454E443D25BE
:102AF000640D0A003E0000005B4F54412DEFBFBD46
:102B0000EFBFBDEFBFBDEFBFBD5D20CEB4EFBFBD1A
:102B1000D5B5EFBFBD2043495053454E4420EFBFCC
:102B2000BDEFBFBDCABEEFBFBDEFBFBD20273E2773
:102B30000D0A00005B4F54415D204854545020471B
:102B4000455420EFBFBDD1B7EFBFBDEFBFBDEFBF55
:102B5000BD2028256420EFBFBDD6BDEFBFBD293AFB
:102B60000D0A000025730D0A000000005B4F544160
:102B70005D20E7AD89E5BE85E69C8DE58AA1E599F6
:102B8000A8E5938DEFBF3F2E2E0D0A00D40B002039
:102B90002B4950442C000000D30E002005000020DB
:102BA0000A2001F060FC0F98401C0F9083480078C9
:102BB00010B100200E9005E0B8F1000F02DD0E9874
:102BC000401C0E90BAF1000F0DD10F98B0F5FA6FBE
:102BD00005DCB8F1000F06DD0E98322803DD7848D9
:102BE00000F020FA00E0D4E500BF76A000F01AFA69
:102BF0000020804981F8FF01AFF29800FEF761F9EB
:102C00007C49AFF2A000FEF75CF97BA000F00AFA65
:102C10000020139084A17748FDF7F6FA044674B1BA
:102C200013AA83A12046FDF71FFB84A0139900F08F
:102C3000F9F91398C82802D0874800F0F3F900206A
:102C4000129086A16B48FDF7DFFA044664B112AA20
:102C500086A104F11000FDF707FB1298820A0146D5
:102C600083A000F0DFF902E08D4800F0DBF98DA1D0
:102C70006048FDF7C9FA0446F4B100208DF8000061
:102C8000AFF288312046FDF7BFFA07467FB104F165
:102C90000E003E1A3F2E00DD3F26324604F10E01A3
:102CA0006846FDF78DFA00200DF8060000BF694662
:102CB00080A000F0B7F900BF00211091119186A10A
:102CC0004C48FDF7A1FA044684B13A212046FDF7AD
:102CD000B9FA06464EB110AA82A1701CFDF7C4FADB
:102CE00082A0DDE9102300F09DF902E0884800F0A1
:102CF00099F900254AA13F48FDF786FA04461CB31E
:102D0000201D3C49401A85B22A462946814800F0D8
:102D100089F905F10800B0F5806F18DC3548FDF73A
:102D20009BFA05F10801884211D33249E81C085C7E
:102D30000E460090A81C335C681C325C0846415D5E
:102D4000754800F06FF902E0744800F06BF9AFF2DB
:102D50005040FEF79DF94FF4FA61AFF29840FEF74C
:102D600053F96FA000F05EF91398C8281FD112988C
:102D700000281CD0002D1ADD6FA000F053F97BA0B5
:102D8000129900F04FF982A0DDE9102300F04AF912
:102D9000294684A000F046F98F4AAFF26C318FA02B
:102DA00000F040F994A000F03DF900206FE49C4849
:102DB00000F038F94FF0FF3069E40000D40B002038
:102DC0004C5500080D0A3D3D3D3D3D2048545450B2
:102DD00020EFBFBDEFBFBDD3A6CDB72028C7B0350C
:102DE0003132EFBFBDD6BDEFBFBD29203D3D3D3DDA
:102DF0003D0D0A00D30E00203D3D3D3D3D3D3D3D96
:102E00003D3D3D3D3D3D3D3D3D3D3D3D3D3D3D3DF2
:102E10003D3D3D3D3D3D3D3D3D3D3D3D3D3D3D3DE2
:102E20000D0A0D0A00000000485454502F00000005
:102E3000485454502F312E31202564005B4F5441AB
:102E40005D204854545020D7B4CCACEFBFBDEFBF89
:102E5000BD3A2025640D0A008C530008436F6E7440
:102E6000656E742D4C656E6774683A00256C75004C
:102E70005B4F54415D20EFBFBDC4BCEFBFBDEFBF92
:102E8000BDEFBFBDD0A13A20256C7520EFBFBDD6E8
:102E9000BDEFBFBD2028256C75204B42290D0A00CF
:102EA000A8540008436F6E74656E742D5479706574
:102EB0003A0000005B4F54415D20EFBFBDC4BCEF42
:102EC000BFBDEFBFBDEFBFBDEFBFBDEFBFBD3A2080
:102ED00025730D0A00000000637263363465636D6C
:102EE00061000000256C6C75000000005B4F5441D0
:102EF0005D20637263363465636D6120D0A3EFBFDC
:102F0000BDEFBFBD3A20256C6C750D0A00000000B6
:102F1000DC5100083C52000808550008E85200083F
:102F20005B4F54415D2054435020EFBFBDD1B9D811
:102F3000B1EFBFBD0D0A00000D0A3D3D3D3D3D20F6
:102F40005B4F54415D204854545020EFBFBDEFBF4C
:102F5000BDEFBFBDEFBFBDCDA8EFBFBDEFBFBD2172
:102F6000203D3D3D3D3D0D0A000000002020EFBF0B
:102F7000BDC4BCEFBFBDEFBFBDEFBFBDD0A1203A08
:102F800020257520EFBFBDD6BDEFBFBD0D0A0000E7
:102F900020206372633634202020203A20256C6C78
:102FA000750D0A002020CDB7C6ABEFBFBDEFBFBD8A
:102FB0002020203A20257520EFBFBDD6BDEFBFBD34
:102FC0002028EFBFBDEFBFBDEFBFBDEFBFBD485471
:102FD0005450CDB7290D0A00A05500082020EFBF9E
:102FE000BDEFBFBDEFBFBDD8B5EFBFBDD6B7203A6F
:102FF00020257325730D0A003D3D3D3D3D3D3D3D82
:103000003D3D3D3D3D3D3D3D3D3D3D3D3D3D3D3DF0
:103010003D3D3D3D3D3D3D3D3D3D0D0A0000000037
:10302000045400080FB400B5C1B043A800904FF499
:10303000807101A8009B429A00F09AFD0020009048
:1030400001A903A0FDF73DFF41B05DF814FB0000AE
:103050002573000010B588B004460121084600F031
:103060008DF90121480400F099F907220221224834
:10307000FEF766F9072203211F48FEF761F90C20CD
:10308000069002208DF81C0000208DF81E00032001
:103090008DF81D0001208DF81F0006A91648FEF7C7
:1030A00007F902940C20ADF812000020ADF81000D2
:1030B000ADF80E00ADF80C00ADF8140002A90F48F1
:1030C00000F07EFC26208DF8040001208DF805001C
:1030D0008DF806008DF8070001A8FEF79BF9012284
:1030E00040F22551054800F045FC0121034800F05D
:1030F000FEFB08B010BD000000000240004400408C
:1031000010B588B004460121102000F057F90121C4
:10311000084600F033F9072209212248FEF710F98A
:1031200007220A211F48FEF70BF94FF4C0600690F2
:1031300002208DF81C0000208DF81F008DF81E0065
:1031400003208DF81D0006A91648FEF7B1F8029479
:103150000020ADF80C00ADF810000C20ADF8120006
:103160000020ADF80E00ADF8140002A90E4800F0E2
:1031700027FC25208DF8040001208DF805008DF82E
:1031800006008DF8070001A8FEF744F9012240F27D
:103190002551054800F0EEFB0121034800F0A7FB94
:1031A00008B010BD000002400010014010B588B00A
:1031B00004460121022000F0E1F80121880400F01A
:1031C000EDF84FF44060069002208DF81C000020BE
:1031D0008DF81E0003208DF81D0000208DF81F00C3
:1031E00006A91B48FEF764F807220A211848FEF7D3
:1031F000A7F807220B211648FEF7A2F802940C202C
:10320000ADF812000020ADF81000ADF80E00ADF8DA
:103210000C00ADF8140002A90E4800F0D1FB2720E5
:103220008DF8040001208DF805008DF806008DF85A
:10323000070001A8FEF7EEF8012240F225510548EB
:1032400000F098FB0121034800F051FB08B010BDCD
:103250000004024000480040014908627047000035
:1032600000000E4210B52648007818B3002024490B
:10327000087024480078782803D02248007858281D
:1032800011D14FF4E130FFF7E5FE4FF4E130FFF7E5
:103290008DFF1D48FDF715FEFFF7C0F91BA0FDF7D8
:1032A00010FE012010BD1748007818B115492148BB
:1032B000FDF707FE2048007800281FD000201E4997
:1032C00008701E480078782803D01C4800785828D9
:1032D0000DD14FF4E130FFF769FF19A0FDF7F1FDC3
:1032E000FFF79CF909A0FDF7ECFD0120DAE7134890
:1032F000007818B111490F48FDF7E3FD0020D1E730
:1033000001000020F00A0020805600085B424F4F69
:10331000545D204F54415F485454505F546573745A
:1033200020E689A7E8A18CE5AE8CE6AF952E0D0AC4
:1033300000000000E455000800000020940B00206D
:103340005B424F4F545D20E8939DE78999E694B620
:10335000E588B0E591BDE4BBA420277827202D3E69
:1033600020E590AFE58AA8204F54415F485454505F
:103370005F546573742E2E2E0D0A000029B1064A83
:1033800012680243044B1A6004E0034A1268824345
:10339000014B1A60704700003038024029B1064ADC
:1033A00012680243044B1A6004E0034A1268824325
:1033B000014B1A60704700004038024029B1064AAC
:1033C00012680243044B1A6004E0034A1268824305
:1033D000014B1A607047000044380240F0B50021EC
:1033E00000220024022500260223324F3F6807F006
:1033F0000C0121B1042905D0082937D105E02E4F51
:10340000076036E02D4F076033E02A4F3F1F3F68CB
:10341000C7F38056274F3F1F3F6807F03F036EB149
:10342000264FB7FBF3F7DFF88CC0ACF1040CDCF8E7
:1034300000C0CCF3881C07FB0CF40CE01E4FB7FB5C
:10344000F3F7DFF870C0ACF1040CDCF800C0CCF38B
:10345000881C07FB0CF4174F3F1F3F68C7F3014759
:103460007F1C7D00B4FBF5F7076002E0124F076098
:1034700000BF00BF0F4F3F6807F0F0010909104F70
:103480007A5C0768D74047600A4F3F6807F4E0510D
:10349000890A0B4F7A5C4768D7408760054F3F68C1
:1034A00007F46041490B064F7A5C4768D740C76014
:1034B000F0BD0000083802400024F40000127A0039
:1034C000CB0A002010B504460120FFF7C5FE0548D1
:1034D000844201D1044801E00348401C03490860CC
:1034E00010BD00000000040801005A5A5428004092
:1034F0000CB50020019000903448006840F4803002
:103500003249086000BF3148006800F40030009084
:103510000198401C0190009818B90198B0F5A04F8F
:10352000F1D12A48006800F4003010B10120009069
:1035300001E0002000900098012846D12348403047
:10354000006840F080502149403108602048006800
:1035500040F440401E4908601C48083000681B4980
:10356000083108600846006840F4004008600846DA
:10357000006840F4A05008601648091F0860081F42
:10358000006840F08070091F086000BF0F480068A5
:1035900000F000700028F9D040F205700E49086074
:1035A0000A480830006820F0030008490831086024
:1035B0000846006840F00200086000BF0348083079
:1035C000006800F00C000828F8D10CBD003802405B
:1035D0000070004019544007003C024010B51548E7
:1035E000006840F47000134908601348006840F018
:1035F00001001149086000200F49083108600E4899
:1036000000680E4908400C4908600D48091D086013
:10361000081F006820F48020091F08600020064968
:103620000C310860FFF764FF4FF0006001498039FA
:10363000086010BD88ED00E000380240FFFFF6FE94
:103640001030002410B540F225511C4800F068F9F4
:1036500098B340F22551194800F03AF9174800F0A4
:1036600019FA17490880084600880A280AD008462F
:103670000178144802780078401C124B18701248E8
:1036800081541AE000210F480078401E0E4A115460
:1036900032210E48FCF7ADFD0A480078421E0A4967
:1036A0000A48FCF7C3FD32210748FCF7A2FD0020C1
:1036B0000449087001200649087010BD001001403F
:1036C0000200002008000020220B0020F00A002049
:1036D0000100002010B540F225512E4800F020F9DD
:1036E000012856D12B4800F0D5F9C4B22A480078F9
:1036F000401C294908700A2C33D12848007800283A
:1037000027DD26480078401E2549085C0D2806D193
:10371000002122480078401E214A115404E0002173
:103720001F481E4A127881543F221D491D48FCF74C
:103730007DFD00201B4981F83F001BA0FDF750FED6
:103740001848FDF74DFE19A0FDF74AFE0120184963
:10375000087040211248FCF74CFD00200F4908700A
:1037600016E00E4800783F2808D20C48017800780F
:10377000401C0A4A10700A48445409E00DA0FDF7A5
:103780002FFE40210648FCF734FD00200349087055
:1037900000BF10BD004400400400002009000020CC
:1037A000540B0020940B002052585B005D0D0A0062
:1037B000000000204552523A427566666572206FDD
:1037C000766572666C6F77210D0A000010B540F2C5
:1037D0002551314800F0A4F801285CD140F2255170
:1037E0002D4800F075F82C4800F054F9C4B22B486D
:1037F0000078FF280ADA294801780078401C274A17
:103800001070274844540021127881540A2C36D174
:1038100024480078002829DD22480078401E2249EB
:10382000085C0D2806D100211E480078401E1E4A63
:10383000115404E000211C481A4A127881541BA13B
:103840001948FCF7E1FC88B11AA11748FCF7DCFC29
:1038500060B91AA11448FCF7D7FC38B9FF22124905
:103860001948FCF7E3FC0120184908704FF48071F7
:103870000D48FCF7BEFC00200A4908700BE009481F
:103880000078FF2807D2074801780078401C054AD5
:1038900010700548445410BD004800400500002049
:1038A000D40B002007000020D30D00206D73673D6E
:1038B000000000006D73673D4F4B00006D73673D66
:1038C0004641494C00000000D30C002006000020B7
:1038D00010B50022002340F66A14A14200D100BFB7
:1038E0000A1201249440A3B2DC43048010BD21B12C
:1038F000828942F40052828104E082894DF6FF738E
:103900001A408281704702460020B1F5007F00D145
:1039100000BF13880B400BB1012000E0002070476E
:1039200070B50246002400230025002040F66A16E8
:10393000B14200D100BFC1F3421501F01F030126BF
:1039400006FA03F3012D02D19689334006E0022DD9
:1039500002D1168A334001E0968A33400C120126C8
:1039600006FA04F41688344013B10CB1012000E0CB
:10397000002070BDF0B5034600240026002500207D
:1039800040F66A17B94200D100BF1846C1F342148D
:1039900001F01F06012707FA06F5012C01D10C30B2
:1039A00004E0022C01D1103000E014301AB1076895
:1039B0002F43076002E00768AF430760F0BD0000D7
:1039C0002DE9FF4705460E460024A14600BFA0464C
:1039D000B08900B100BF2C8A24F44054F08804431D
:1039E0002C82AC8941F20C608443B0883189084351
:1039F000718908430443AC81AC8A24F44074B089D3
:103A00000443AC826846FFF7E9FC2048854202D0B7
:103A10001F48854202D1DDF80C9001E0DDF80890E6
:103A2000A88900F4004040B109EBC90000EB09107F
:103A300031684900B0FBF1F707E009EBC90000EB82
:103A4000091031688900B0FBF1F76420B7FBF0F092
:103A500004012009642101FB1078A88900F40040CA
:103A600040B1322000EBC800B0FBF1F000F00700DD
:103A7000044308E0322000EB08106421B0FBF1F0B1
:103A800000F00F0004432C81BDE8FF8700100140C7
:103A90000014014001468888C0F308007047C1F354
:103AA00008028280704770B504461420B4FBF0F61B
:103AB000002505E0FFF7D6FB142000F0D4FC6D1CB8
:103AC000B542F7D370BD10B5044600F057FD78201D
:103AD00000F01CFD00F0F8FC002000F017FD00F0E5
:103AE000F3FC204600F012FD00F0EEFC00F06AFD51
:103AF00010BD10B5044600F041FD782000F006FD31
:103B000000F0E2FC402000F001FD00F0DDFC20466A
:103B100000F0FCFC00F0D8FC00F054FD10BD0000EB
:103B20000FB41CB50A46521ECDE9000207A9054B89
:103B30006A46069800F0F0F8009A002111701CBC4B
:103B40005DF814FB474400080FB4084B10B504A9F6
:103B500002AA039800F0E0F8044602A9002000F051
:103B60007DFC204610BC5DF814FB00005D4400089D
:103B70007CB5491E1C461546CDE90001044B6A463A
:103B80002146284600F0C8F8009A002111707CBD3B
:103B90004744000802E008C8121F08C1002AFAD1F1
:103BA00070477047002001E001C1121F002AFBD1BD
:103BB000704700002DE9FF5FDDE90220010DDDF80F
:103BC00038B0024318D044F61050A1F2FF314143FF
:103BD0000D140F98012820D0A5EB0B00401C5FEAC4
:103BE000000A4FF00004474EDFF81C91A0465046F3
:103BF00016D5CAF1000728E00F98012443A2012836
:103C000008D0002100980F9BC0E90021C0E90243C1
:103C1000BDE8FF9F6FEA0B01F4E7CBF10000DEE7A0
:103C2000074612E0F80707D0224633464046494689
:103C3000FCF7B7FD804689462246334610461946B2
:103C4000FCF7AFFD04460E467F10002FEAD1DDE9F8
:103C50000201BAF1000F42464B4602DAFCF7A1FD21
:103C600001E0FCF710FE04460E460022284BFCF74C
:103C700091FE03D84FF0FF30014607E00022254BAC
:103C800020463146FCF7E6FCFCF76CFE102409E008
:103C9000002C0ADB0A220023FCF769FC019B30326E
:103CA0001A55641E50EA0102F2D1641C019AC4F153
:103CB000110314440F9A012A03D0012208430DD1A5
:103CC0000AE0084304D000204FF0110B0F9080E76A
:103CD000A3EB0B056D1E0DE05B4504DD4FF000020C
:103CE00005F1010504E003DA4FF00002A5F101053A
:103CF000002AECD000980F99C0E90231C0E90045D4
:103D000086E70000000024400000F03F3000000083
:103D10000000F0430000E03F2DE9FF4F95B09B46C7
:103D20008946064600250FE2252877D1002427463C
:103D3000F84A0121059400E0044316F8013F203BB6
:103D400001FA03F01042F7D130782A2811D06FF031
:103D50002F033078A0F13002092A16D8059A44F0D2
:103D6000020402EB820203EB42021044761C05902F
:103D7000EFE759F8042B0592002A03DA504244F485
:103D80000054059044F00204761C30782E2816D199
:103D900016F8010F44F004042A280DD06FF02F020A
:103DA0003078A0F13003092B09D807EB870302EB29
:103DB0004303C718761CF3E759F8047B761C307868
:103DC0006C280FD006DC4C2817D068280DD06A2844
:103DD00014D104E0742810D07A280FD10DE044F4F7
:103DE00000140AE044F4801401E044F440147278B2
:103DF000824202D104F58014761C761C3078662845
:103E00000BD013DC582877D009DC002875D0452862
:103E1000F6D04628F4D047281AD19DE118E063284F
:103E200035D0642879D0652812D195E1702873D0F7
:103E300008DC6728F1D069286FD06E280DD06F2874
:103E400006D1B5E073282CD0752875D0782874D0A9
:103E50005A46179990476D1C75E1C4F30250022829
:103E600009D003280DD0D9F8001004280DD00D601A
:103E700009F1040967E1D9F80010EA17C1E9005215
:103E8000F6E7D9F800100D80F2E70D70F0E719F8A9
:103E9000041B8DF8001000208DF80100EA46012077
:103EA00003E059F804AB4FF0FF3061074FF0000119
:103EB00002D40DE008F101018846B9420FDA8045CD
:103EC000F8DB1AF808100029F4D108E008F1010124
:103ED00088468142FADB1AF808100029F6D10598C5
:103EE0005B46A0EB080721463846179A00F094FA83
:103EF000284400EB080507E04DE029E10DE01AF841
:103F0000010B5A4617999047B8F10108F7D25B4662
:103F100021463846179A13E142E00A220092C4F380
:103F200002524FF0000A022A08D059F804CB032AA3
:103F30004FEAEC710AD00DE029E02AE009F107010F
:103F400021F00702F2E802C1914609E00FFA8CFC69
:103F50004FEAEC71042A03D14FFA8CFC4FEAEC7162
:103F6000002907DA0A460021DCF1000C61EB0201AE
:103F70002D2202E0220504D52B228DF804200122F7
:103F800003E0E20701D02022F7E7904659E00A213A
:103F900002E010220DE010214FF0000A00910BE02A
:103FA00010224FF0000A44F004040827009203E0B6
:103FB00008224FF0000A0092C4F30252022A05D0F0
:103FC00059F804CB0021032A08D009E009F10701C0
:103FD00021F00702F2E802C1914605E01FFA8CFCCD
:103FE000042A01D10CF0FF0C4FF00008220728D55D
:103FF000702806D0009B83F0100353EA0A0305D013
:104000000EE040228DF80420012208E05CEA010263
:1040100006D030228DF804208DF80500022290464B
:10402000009B83F0080353EA0A030AD15CEA010209
:1040300001D1620705D530228DF804204FF0010828
:104040007F1E582804D034A003900EA802900DE0E3
:1040500036A0F9E753466046009AFCF788FA844692
:104060000398825C0298401E029002705CEA010094
:10407000F0D1029806A9081A00F1200A600702D5BB
:1040800024F4803400E00127574502DDA7EB0A0045
:1040900000E0002000EB0A01009005984144401A1E
:1040A0000590E00306D45B462146179A059800F078
:1040B000B3F90544002706E001A85A46C05D1799E8
:1040C00090476D1C7F1C4745F6DBE0030CD55B4633
:1040D0002146179A059800F09FF9054404E0302026
:1040E0005A46179990476D1C0099481E0090002968
:1040F000F5DC08E0029802995A460078491C0291C2
:10410000179990476D1CBAF10001AAF1010AF1DC80
:1041100065E100000928010030313233343536378B
:104120003839616263646566000000003031323303
:1041300034353637383941424344454600000000A3
:1041400000F058F90544761C307800287FF4ECAD77
:1041500019B02846BDE8F08F620700D4062709F1A0
:10416000070222F0070CFCE80223E14603F00048B6
:104170005FEA080C02D00FF2702C0DE05FEA045CDD
:1041800002D50FF2682C07E05FEAC47C02D00FF280
:10419000602C01E0AFF2700C4FF0FF3823F00043C9
:1041A000CDF850C065280CD006DC452809D046283B
:1041B0001DD047283DD13DE0662818D067287ED124
:1041C00038E00021112F01DB112000E0781CCDE93F
:1041D000000106A90EA8FFF7EDFCDDE90F010E9A1C
:1041E00003910021009207F1010A04914DE04FF084
:1041F00000400097CDE9011006A90EA8FFF7DAFCF0
:10420000DDE90F0203920E9B11990022DDF80CA04C
:104210000093049211B9791C00EB010AB7EB0A0074
:1042200004D4C0F1FF3007F1010A0490AAEB0700A3
:10423000019044E0012F00DA01270021112F01DD58
:10424000112000E03846CDE9000106A90EA8FFF7CD
:10425000B1FCDDE90F010E9A039100210491009257
:10426000BA4621070CD40399514500DA8A46BAF1BF
:10427000010F05DD009AAAF10101515C302908D037
:10428000B84202DA10F1040F06DA0121CDE901107B
:1042900015E0AAF10101E9E7002805DC04990144D1
:1042A0000491AAEB000102E0411C514500DD8A4661
:1042B0000499401A401C01904FF0004002902007E2
:1042C00004D40198504501DBCDF8048000208DF81E
:1042D0004F0002980DF14F07B0F1004F25D02B2071
:1042E0000E9002984FF0020800280CDA404202902B
:1042F0002D200E9007E00A210298FCF722F93031B8
:10430000029007F8011DB8F10001A8F10108F2DCE4
:1043100002980028EFD1791E0E980870307800F0CE
:10432000200040F0450007F8020D12A8C01B00F164
:1043300007081498007800B1012000EB0A010198E9
:1043400001EBE07105984144401A401E0590E003DE
:1043500006D45B462146179A059800F05DF805449F
:104360001498007818B15A46179990476D1CE003CD
:1043700024D55B462146179A059800F04DF8054470
:104380001CE00498002807DBDDE90301884203DD17
:104390000098405C179901E0179930205A469047E1
:1043A000049805F10105401C04900198401E0190FD
:1043B00004D12E205A46179990476D1CBAF100017E
:1043C000AAF1010ADDDC05E017F8010B5A4617993E
:1043D00090476D1CB8F10001A8F10108F4DC5B46C0
:1043E0002146179A0598ABE62D0000002B0000002F
:1043F000200000002DE9F041044600251E46174626
:10440000880404D405E039462020B0476D1C641EA2
:10441000F9D52846BDE8F0812DE9F0410446002594
:104420001E469046C80301D5302700E020278804A7
:1044300004D505E041463846B0476D1C641EF9D5E9
:104440002846BDE8F0814A68002A06D00A68531C55
:104450000B6010704868401E486070470A68531C23
:104460000B601070704710B5044603E04FF47A708B
:1044700000F012F82000A4F10104F7D110BD10B52E
:10448000044603E04FF47A70FFF7EDFF2000A4F13B
:104490000104F7D110BD000010B5084B5968084B56
:1044A0001B68084CB3FBF4F303FB00F200BF034BA3
:1044B0005B685B1A9342FAD310BD0000001000E065
:1044C000DC0A002040420F0010B5002000F02AFA5C
:1044D00001200C4908600520FFF7DEFF0A48D0F8EC
:1044E0002802012801D1012400E000240520FFF763
:1044F000D3FF0020034908600520FFF7CDFF2046C9
:1045000010BD0000BC8240420080414270B50546AB
:10451000012000F007FA0020144908601449C1F88E
:10452000A8020520FFF7B8FF07241CE00120A040E7
:10453000284018B101200F49086002E000200D4911
:1045400008600220FFF7A8FF012008490860052045
:10455000FFF7A2FF00200849C1F8BC020520FFF7C1
:104560009BFF601E44B2002CE0DA70BDBC8240426A
:1045700000804142A88241420080404210B50120A3
:1045800000F0D0F901200B4908600B49C1F8A802DE
:104590000520FFF781FF0020084908600520FFF78C
:1045A0007BFF00200649C1F8BC020520FFF774FF1D
:1045B00010BD0000BC82404200804142A8824142BE
:1045C0000080404210B5012000F0ACF901200A49FA
:1045D000086000200949C1F8A8020520FFF75CFF28
:1045E0000120074908600520FFF756FF0020034916
:1045F000C1F8A80210BD0000BC82404200804142C8
:10460000A882414208B5FCF721FE4FF4E130FEF7E5
:1046100077FD4FF41650FEF71DFD4FF400718248F0
:10462000FCF7B1FEC820FFF71EFF4FF400717E4873
:10463000FCF7ABFEC820FFF716FF4FF400717A4875
:10464000FCF7A1FEC820FFF70EFF4FF4007176487B
:10465000FCF79BFEC820FFF706FF6420FFF703FF6F
:104660007248806800907148C3888288C16870A0D1
:10467000FCF727FC7648FCF724FC40F6B830FFF73F
:1046800012FA01210807FEF789FE0120FEF7E4FD7A
:104690007048046800206F4908606F48844202D067
:1046A000401C844256D16C48844201D16B4800E0E2
:1046B0006B4807466848844201D1694800E0674872
:1046C00080464FF4E130FEF7C5FC4FF4E130FEF7D1
:1046D0006DFDFCF7A9FFFCF7D9FE5F48844201D1CC
:1046E00060A000E060A0014660A0FCF7EAFB38464D
:1046F000FDF7A2F90646B6B93846FCF75BFC90B167
:1047000065A0FCF7DEFB5548874205D1464A1115E6
:104710003846FCF7EBFB1CE0694A4FF40051384681
:10472000FCF7E4FB15E067A0FCF7CBFB4046FCF789
:1047300041FC70B14948804505D13B4A11154046BE
:10474000FCF7D4FB05E05E4A4FF400514046FCF70D
:10475000CDFB00BF4048801E844209D13F48FCF792
:1047600029FC28B1304A11153C48FCF7BFFB0DE08D
:104770003948401E844209D13948FCF71BFC28B156
:104780004F4A4FF400513648FCF7B0FB3148001D4A
:1047900005685848854209D13048FCF70BFC28B120
:1047A000214A11152D48FCF7A1FB0DE05148401C92
:1047B000854209D12A48FCF7FDFB28B1404A4FF455
:1047C00000512748FCF792FB2448FCF7F3FB28B183
:1047D000154A11152148FCF789FB09E02048FCF730
:1047E000E9FB28B1364A4FF400511D48FCF77EFB27
:1047F00041A0FCF766FB4A48FCF763FB13E04FF46B
:1048000080412F48FCF7BFFD4FF49670FFF72BFE59
:104810004FF480412A48FCF7B8FD4FF49670FFF73B
:1048200022FEFEF71FFDEAE7001402408C5100084B
:104830000D0A3D3D3D202573205625642E2564201C
:104840006275696C64202564203D3D3D0D0A0000C1
:104850002C560008502800400300A5A500000408BD
:1048600000000A0841000000420000005B424F4F78
:10487000545D204F544120757067726164652072E9
:104880006571756573742C207461726765743A2064
:1048900025730D0A000000005B424F4F545D204F0E
:1048A0005441204F4B2C206A756D7020746F206E20
:1048B000657720706172746974696F6E0D0A00000B
:1048C000001002405B424F4F545D204F5441204640
:1048D00041494C2C2066616C6C6261636B20746F83
:1048E000206F6C6420706172746974696F6E0D0A58
:1048F0000000000001005A5A5B424F4F545D20E611
:104900009CAAE58F91E78EB0E69C89E69588E79AA8
:10491000842041505020E5BA94E794A8210D0A0064
:10492000E05600081CB504464FF480600090012C4E
:104930000CD101208DF8040000208DF80600032022
:104940008DF8050001208DF807000AE034B9002039
:104950008DF8040001208DF8070002E04FF0FF30D1
:104960001CBD69460248FCF7A3FC0020F8E70000E4
:10497000000C02400000000000000000002F0000BA
:1049800000000700070000147F147F1400242A7F12
:104990002A12006264081323003649552250000091
:1049A0000503000000001C224100000041221C0001
:1049B0000014083E08140008083E0808000000A083
:1049C000600000080808080800006060000000207F
:1049D00010080402003E5149453E0000427F40005D
:1049E000004261514946002141454B3100181412E3
:1049F0007F10002745454539003C4A4949300001B0
:104A00007109050300364949493600064949291EFE
:104A10000000363600000000563600000008142260
:104A20004100001414141414000041221408000260
:104A30000151090600324959513E007C1211127C85
:104A4000007F49494936003E41414122007F4141B2
:104A5000221C007F49494941007F09090901003EA4
:104A60004149497A007F0808087F0000417F4100E2
:104A7000002040413F01007F08142241007F404058
:104A80004040007F020C027F007F0408107F003E40
:104A90004141413E007F09090906003E4151215E26
:104AA000007F091929460046494949310001017F23
:104AB0000101003F4040403F001F2040201F003FB9
:104AC0004038403F0063140814630007087008076B
:104AD00000615149454300007F41410000552A557E
:104AE0002A55000041417F000004020102040040F9
:104AF000404040400000010204000020545454781B
:104B0000007F48444438003844444420003844443A
:104B1000487F00385454541800087E0901020018D8
:104B2000A4A4A47C007F080404780000447D400015
:104B3000004080847D00007F102844000000417FF9
:104B40004000007C04180478007C080404780038D5
:104B50004444443800FC242424180018242418FC5D
:104B6000007C0804040800485454542000043F44C6
:104B70004020003C4040207C001C2040201C003C89
:104B80004030403C004428102844001CA0A0A07CD9
:104B9000004464544C441414141414140000000011
:104BA000000000000000000000000000000000F80D
:104BB00000000000000000333000000000100C0670
:104BC000100C0600000000000000000040C078400B
:104BD000C0784000043F04043F040400007088FCD7
:104BE00008300000001820FF211E0000F008F0002F
:104BF000E018000000211C031E211E0000F00888A0
:104C0000700000001E2123241927211010160E0009
:104C1000000000000000000000000000000000E0B4
:104C200018040200000000071820400000020418C9
:104C3000E00000000040201807000000404080F025
:104C4000804040000202010F01020200000000F05B
:104C5000000000000101011F01010100000000002F
:104C60000000000080B070000000000000000000A4
:104C7000000000000001010101010101000000002D
:104C800000000000003030000000000000000000C4
:104C900080601804006018060100000000E01008A1
:104CA0000810E000000F102020100F00001010F876
:104CB000000000000020203F2020000000700808B5
:104CC0000888700000302824222130000030088835
:104CD000884830000018202020110E000000C0205D
:104CE00010F8000000070424243F240000F808887E
:104CF000880808000019212020110E0000E010880B
:104D000088180000000F112020110E00003808083C
:104D1000C83808000000003F00000000007088084C
:104D200008887000001C222121221C0000E01008CD
:104D30000810E0000000312222110F00000000C026
:104D4000C0000000000000303000000000000080C3
:104D500000000000000080600000000000008040B3
:104D600020100800000102040810200040404040CC
:104D7000404040000404040404040400000810201F
:104D80004080000000201008040201000070480864
:104D90000808F0000000003036010000C030C828CC
:104DA000E810E0000718272423140B000000C03887
:104DB000E0000000203C23020227382008F8888801
:104DC00088700000203F202020110E00C03008080D
:104DD00008083800071820202010080008F80808E4
:104DE0000810E000203F202020100F0008F88888DD
:104DF000E8081000203F20202320180008F88888A9
:104E0000E8081000203F200003000000C030080820
:104E10000838000007182020221E020008F80800A9
:104E20000008F808203F210101213F20000808F870
:104E3000080800000020203F202000000000080893
:104E4000F8080800C08080807F00000008F888C053
:104E500028180800203F20012638200008F8080004
:104E600000000000203F20202020300008F8F8003B
:104E7000F8F80800203F003F003F200008F830C04D
:104E80000008F808203F200007183F00E01008083D
:104E90000810E0000F10202020100F0008F808086C
:104EA0000808F000203F210101010000E01008087F
:104EB0000810E0000F18242438504F0008F88888A4
:104EC00088887000203F2000030C30200070880884
:104ED000080838000038202121221C00180808F892
:104EE000080818000000203F2000000008F8080013
:104EF0000008F808001F202020201F0008788800E4
:104F000000C83808000007380E010000F80800F853
:104F10000008F800033C0700073C030008186880FD
:104F20008068180820302C03032C30200838C80073
:104F3000C83808000000203F2000000010080808C2
:104F4000C83808002038262120201800000000FE64
:104F5000020202000000007F40404000000C30C010
:104F600000000000000000010638C000000202023C
:104F7000FE000000004040407F00000000000402EE
:104F80000202040000000000000000000000000019
:104F90000000000080808080808080800002020409
:104FA0000000000000000000000000000000808001
:104FB000808000000019242222223F2008F800806F
:104FC00080000000003F112020110E000000008032
:104FD00080800000000E11202020110000000080C1
:104FE0008088F800000E112020103F2000008080F3
:104FF00080800000001F222222221300008080F007
:10500000888888180020203F202000000000808031
:1050100080808000006B94949493600008F8008076
:1050200080800000203F210000203F2000809898D1
:10503000000000000020203F202000000000008031
:105040009898000000C08080807F000008F8000071
:1050500080808000203F24022D302000000808F8C6
:10506000000000000020203F202000008080808081
:1050700080808000203F20003F20003F8080008013
:1050800080800000203F210000203F200000808021
:1050900080800000001F202020201F0080800080D2
:1050A0008000000080FFA12020110E000000008081
:1050B00080808000000E112020A0FF808080800072
:1050C0008080800020203F2120000100000080809F
:1050D000808080000033242424241900008080E094
:1050E000808000000000001F202000008080000061
:1050F00000808000001F202020103F208080800042
:105100000080808000010E30080601008080008051
:10511000008080800F300C030C300F000080800076
:10512000808080000020312E0E31200080808000A1
:105130000080808080818E70180601000080808051
:10514000808080000021302C2221300000000000EF
:10515000807C020200000000003F40400000000090
:10516000FF00000000000000FF0000000002027CC1
:10517000800000000040403F0000000000060101E8
:1051800002020404000000000000000031524556F5
:1051900001000000CE2735012C570008DDDDDDDDE4
:1051A000DCBBBBDDDDDDDDDDDDDDDDDD98888888B8
:1051B000888888887777777777888888855555565F
:1051C00066666666666666666668888883333332B6
:1051D00022222222222222222228888D5B4F544121
:1051E0002DEFBFBDEFBFBDEFBFBDEFBFBD5D20EF7A
:1051F000BFBDEFBFBDD3A6CDB7EFBFBDEFBFBDCE27
:10520000B4EFBFBDD2B5EFBFBD2063726336346566
:10521000636D612028EFBFBDCFB4EFBFBDCAB1CE73
:10522000B4EFBFBDEFBFBDEFBFBDEFBFBDD0A3EFBC
:10523000BFBDEFBFBD3F290D0A0000005B4F5441C9
:105240005D2062696E20EFBFBDEFBFBDEFBFBDEF58
:10525000BFBDEFBFBDEFBFBDCABCC6ABEFBFBDEFAB
:10526000BFBD3A202568752028EFBFBDEFBFBDEF59
:10527000BFBDEFBFBD2025687520EFBFBDD6BDEF18
:10528000BFBDEFBFBDEFBFBDD3A6CDB7290D0A008F
:105290005B4F54412DEFBFBDEFBFBDEFBFBDEFBFB3
:1052A000BD5D2054435020EFBFBDEFBFBDEFBFBD7C
:1052B000EFBFBDCAA7EFBFBDEFBFBD2028EFBFBD89
:1052C000EFBFBDEFBF3F62696E2E62656D66612EF6
:1052D000636F6D3A383020EFBFBDEFBFBDEFBFBD8C
:1052E000EFBFBD290D0A00005B4F54412DEFBFBD3C
:1052F000EFBFBDEFBFBDEFBFBD5D20EFBFBDEFBFD7
:10530000BDEFBFBDEFBFBDEFBFBDEFBFBDEFBFBDC9
:10531000EFBFBDCEB4EFBFBDD2B5EFBFBDEFBFBDD8
:10532000EFBFBDD3A6CDB7EFBFBDEFBFBDEFBFBDD4
:10533000EFBFBDEFBFBDEFBFBDD6BE2043524C4651
:105340002A322028EFBFBDEFBFBDD3A6CDB7EFBF38
:10535000BDEFBFBDEFBFBDD8B6EFBFBD2C20EFBFC7
:10536000BDEFBFBDD2AAEFBFBDEFBFBDEFBFBDD880
:10537000B8EFBFBDEFBFBDEFBFBDEFBFBDEFBFBD5E
:10538000EFBFBDEFBFBD290D0A0000005B4F5441C8
:105390002DEFBFBDEFBFBDEFBFBDEFBFBD5D20D7E0
:1053A000B4CCACEFBFBDEBB2BBEFBFBDEFBFBDEF49
:1053B000BFBDEFBFBD2032303020283430343DEF48
:1053C000BFBDC4BCEFBFBDEFBFBDEFBFBDEFBFBD35
:1053D000EFBFBDEFBFBDEFBFBD2C203578783DEFEF
:1053E000BFBDEFBFBDEFBFBDEFBFBDEFBFBDEFBFE7
:1053F000BDEFBFBDEFBFBDEFBFBDEFBFBD290D0A04
:10540000000000000D0A3D3D3D3D3D205B4F5441F5
:105410005D204854545020EFBFBDEFBFBDEFBFBD6E
:10542000EFBFBDCAA7EFBFBDEFBFBD2028EFBFBD17
:10543000EFBFBDE9BFB4EFBFBDEFBFBDEFBFBDEF75
:10544000BFBDEFBFBDEFBFBDEFBFBD3F203D3D3D89
:105450003D3D0D0A000000005B4F54412DEFBFBDE4
:10546000EFBFBDEFBFBDEFBFBD5D205769466920EF
:10547000EFBFBDEFBFBDEFBFBDEFBFBDCAA7EFBF61
:10548000BDEFBFBD2028EFBFBDEFBFBDEFBFBDEF7C
:10549000BFBDCBBAEFBFBDEFBFBDEFBFBDEFBFBD5F
:1054A000EFBF3F0D0A0000005B4F54412DEFBFBD21
:1054B000EFBFBDEFBFBDEFBFBD5D20EFBFBDEFBF15
:1054C000BDD3A6CDB7EFBFBDEFBFBDCEB4EFBFBD5F
:1054D000D2B5EFBFBD20436F6E74656E742D4C6501
:1054E0006E6774682028EFBFBDEFBFBDEFBFBDEF93
:1054F000BFBDEFBFBDC7B7D6BFEFBFBDEFBFBDEFED
:10550000BFBDEFBF3F0D0A005B4F54415D20626994
:105510006E20C7B034EFBFBDD6BDEFBFBD2028CAD7
:10552000AEEFBFBDEFBFBDEFBFBDEFBFBDEFBFBDB6
:10553000EFBFBD293A20253032582025303258207F
:105540002530325820253032580D0A005B4F544127
:105550002DE8ADA6E5918A5D20E68EA5E694B6E538
:10556000938DE5BA94E5A4B4E8B685E697B6E688E7
:1055700096E7A9BAE997B2E8BF87E4B9852C20E598
:105580008FAFE883BDE698AFE5938DE5BA94E5A4C7
:10559000B4E4B88DE5AE8CE695B45C720A00000008
:1055A0002F622F3334303433372F3342634D325927
:1055B000795A44566D5A5746694E44426C59544D77
:1055C000344E44526B4D6A4D7A4D6A466D4D545976
:1055D00031595749795A47493D6F74612E62696E56
:1055E000000000005B424F4F545D20E69CAAE79FFD
:1055F000A5E591BDE4BBA420272573272028E58FCE
:1056000091E9808120277827202B20E59B9EE8BD0B
:10561000A620E8BF9BE8A18C204F54412048545459
:105620005020E6B58BE8AF95290D0A005B424F4F3D
:10563000545D20E9809AE8BF87E8939DE78999E562
:105640008F91E9808120277827202B20E59B9EE8F9
:10565000BDA620E58FAFE590AFE58AA8204F544165
:10566000204854545020E6B58BE8AF95202833E706
:10567000A792E7AA97E58FA3292E2E2E0D0A0000E8
:105680005B424F4F545D20E694B6E588B0E591BD8E
:10569000E4BBA420277827202D3E20E5889DE5A7A0
:1056A0008BE58C9620424C45285553415254322963
:1056B0002B455350383236362855534152543329EE
:1056C00020E5B9B6E590AFE58AA8204F54415F4880
:1056D0005454505F546573742E2E2E0D0A00000032
:1056E0005B424F4F545D20E99A8FE697B6E58FAF46
:1056F000E9809AE8BF87E8939DE78999E58F91E96A
:10570000808120277827202B20E59B9EE8BDA620BE
:10571000E590AFE58AA8204F5441204854545020CA
:10572000E6B58BE8AF952E0D0A000000426F6F744E
:105730006C6F61646572000058570008000000201B
:10574000F00A0000640E0008045C0008F00A002063
:10575000E8230000A43B0008720001E0112020248F
:105760002424A4242420FF20222C20200001F01037
:1057700040C07E40403F222220030C102040F820F1
:10578000F00E1060020CC0021EE2020202E21E1EB7
:10579000F012000004047C0380804020130C1320CE
:1057A00040808060117D000A11FEA3220022CC00FF
:1057B00000FF3F200900080601FF0001040112FF5D
:1057C00064011080100B1010FF109008888888FF6B
:1057D0000402100880100544827F018100071043F5
:1057E0002C102846818010048080EE3C000A11E8CD
:1057F0008F088878484E40C082167F21000A127FA9
:10580000008140300F304180A3000714000001E206
:105810001CE01A1200FB1404100C03090404120308
:105820000C300020041010900121C600051010114A
:1058300016107F10052060203FE506150080100936
:105840004040484848C8784F060005134848404043
:10585000840009130312122222528A06A134041072
:1058600060807A11040310C030FE100740404043AE
:10587000407F060005117F42414060053E80214186
:10588000000A1110D030FF30D0121C10FF3006106B
:10589000080402019E0005110102040821040E11F2
:1058A00000FE222222FE00FE828292A29E80040E30
:1058B00012601F0242827F00FF402F102C43C00461
:1058C0000B1390884C57A42454548C84DB1007018C
:1058D0008042221A0744080611423E010101E108F4
:1058E0000D12E4242CB4252624B42C24E404021044
:1058F0000AFF02011E1212121E41860D1220030021
:105900000D10E4040FF40404F444CF44444441046F
:105910000E1340407D44447D4445447C44457CE036
:105920002004C2B2820132FE060D1061032720203E
:105930004308041541807FA0713B0213FE3F19C14B
:1059400043300FC80915E229B704071210F01010F0
:1059500014139E0410108181414121110D030D117A
:105960002141418181BF3806FC848484FC062D03DB
:105970000309108129FD1E3F630303140640C3146D
:1059800006F8010600F0601EF282040612FE7F1582
:10599000040007131F1111111F0041197D1807FF83
:1059A000901040425CE50F1150CEC0041E031A0354
:1059B0003004014044010D12A20434078060F8074E
:1059C0001090050A11D0C029BC0C0A144040415E59
:1059D0004040704E41A00352E0A61D20050D11006D
:1059E00005118171BA0F12010E0003000813021293
:1059F00022C202C232FE2D00032E0082040C0611C8
:105A00000C30000F30C00515811DE00419C02101C4
:105A10000E113C00044009300F211549817F00061A
:105A2000011A013FC030E9040D12C3035E180505D9
:105A30000D12200620060484E43C277E1EE4E605C1
:105A40000510801DFE0313FF0901031949897E0C0F
:105A50000420C03FC0800506131061100940424277
:105A600042C27E42C2070D125F036DC0051E3F0990
:105A70000503124070DF0006380C12120C000128DA
:105A800006FE12628272BA0E14F802071EFF0207A7
:105A90002A4E000A130FC01F808040030C0A13FE19
:105AA00082838280FF808080C0030C041820180746
:105AB000C0031C072030AC6330003B030C0610020F
:105AC00002625AC67F031C0A226722121240308FDC
:105AD0008041070D1240057804100C04400C04139B
